{
  "_format": "hh-sol-artifact-1",
  "contractName": "Competition",
  "sourceName": "contracts/Competition.sol",
  "abi": [
    {
      "inputs": [],
      "stateMutability": "nonpayable",
      "type": "constructor"
    },
    {
      "anonymous": false,
      "inputs": [
        {
          "indexed": true,
          "internalType": "address",
          "name": "owner",
          "type": "address"
        },
        {
          "indexed": true,
          "internalType": "address",
          "name": "approved",
          "type": "address"
        },
        {
          "indexed": true,
          "internalType": "uint256",
          "name": "tokenId",
          "type": "uint256"
        }
      ],
      "name": "Approval",
      "type": "event"
    },
    {
      "anonymous": false,
      "inputs": [
        {
          "indexed": true,
          "internalType": "address",
          "name": "owner",
          "type": "address"
        },
        {
          "indexed": true,
          "internalType": "address",
          "name": "operator",
          "type": "address"
        },
        {
          "indexed": false,
          "internalType": "bool",
          "name": "approved",
          "type": "bool"
        }
      ],
      "name": "ApprovalForAll",
      "type": "event"
    },
    {
      "anonymous": false,
      "inputs": [
        {
          "indexed": false,
          "internalType": "address",
          "name": "",
          "type": "address"
        }
      ],
      "name": "Buyin",
      "type": "event"
    },
    {
      "anonymous": false,
      "inputs": [
        {
          "indexed": false,
          "internalType": "address[]",
          "name": "",
          "type": "address[]"
        },
        {
          "indexed": false,
          "internalType": "string",
          "name": "",
          "type": "string"
        }
      ],
      "name": "End",
      "type": "event"
    },
    {
      "anonymous": false,
      "inputs": [
        {
          "indexed": false,
          "internalType": "address",
          "name": "",
          "type": "address"
        },
        {
          "indexed": false,
          "internalType": "uint256",
          "name": "",
          "type": "uint256"
        },
        {
          "indexed": false,
          "internalType": "uint256",
          "name": "",
          "type": "uint256"
        }
      ],
      "name": "Payout",
      "type": "event"
    },
    {
      "anonymous": false,
      "inputs": [
        {
          "indexed": false,
          "internalType": "uint256",
          "name": "",
          "type": "uint256"
        },
        {
          "indexed": false,
          "internalType": "uint256",
          "name": "",
          "type": "uint256"
        },
        {
          "indexed": false,
          "internalType": "string",
          "name": "",
          "type": "string"
        },
        {
          "indexed": false,
          "internalType": "string",
          "name": "",
          "type": "string"
        }
      ],
      "name": "Start",
      "type": "event"
    },
    {
      "anonymous": false,
      "inputs": [
        {
          "indexed": true,
          "internalType": "address",
          "name": "from",
          "type": "address"
        },
        {
          "indexed": true,
          "internalType": "address",
          "name": "to",
          "type": "address"
        },
        {
          "indexed": true,
          "internalType": "uint256",
          "name": "tokenId",
          "type": "uint256"
        }
      ],
      "name": "Transfer",
      "type": "event"
    },
    {
      "inputs": [
        {
          "internalType": "address",
          "name": "admin",
          "type": "address"
        }
      ],
      "name": "addAdmin",
      "outputs": [],
      "stateMutability": "nonpayable",
      "type": "function"
    },
    {
      "inputs": [
        {
          "internalType": "address",
          "name": "to",
          "type": "address"
        },
        {
          "internalType": "uint256",
          "name": "tokenId",
          "type": "uint256"
        }
      ],
      "name": "approve",
      "outputs": [],
      "stateMutability": "nonpayable",
      "type": "function"
    },
    {
      "inputs": [
        {
          "internalType": "address",
          "name": "owner",
          "type": "address"
        }
      ],
      "name": "balanceOf",
      "outputs": [
        {
          "internalType": "uint256",
          "name": "",
          "type": "uint256"
        }
      ],
      "stateMutability": "view",
      "type": "function"
    },
    {
      "inputs": [],
      "name": "buyin",
      "outputs": [],
      "stateMutability": "payable",
      "type": "function"
    },
    {
      "inputs": [],
      "name": "checkIfAdmin",
      "outputs": [
        {
          "internalType": "bool",
          "name": "",
          "type": "bool"
        }
      ],
      "stateMutability": "view",
      "type": "function"
    },
    {
      "inputs": [],
      "name": "checkIfOwner",
      "outputs": [
        {
          "internalType": "bool",
          "name": "",
          "type": "bool"
        }
      ],
      "stateMutability": "view",
      "type": "function"
    },
    {
      "inputs": [
        {
          "internalType": "address",
          "name": "admin",
          "type": "address"
        }
      ],
      "name": "delAdmin",
      "outputs": [],
      "stateMutability": "nonpayable",
      "type": "function"
    },
    {
      "inputs": [],
      "name": "endCompetition",
      "outputs": [],
      "stateMutability": "nonpayable",
      "type": "function"
    },
    {
      "inputs": [],
      "name": "getAllUsers",
      "outputs": [
        {
          "internalType": "address[]",
          "name": "",
          "type": "address[]"
        }
      ],
      "stateMutability": "view",
      "type": "function"
    },
    {
      "inputs": [
        {
          "internalType": "uint256",
          "name": "tokenId",
          "type": "uint256"
        }
      ],
      "name": "getApproved",
      "outputs": [
        {
          "internalType": "address",
          "name": "",
          "type": "address"
        }
      ],
      "stateMutability": "view",
      "type": "function"
    },
    {
      "inputs": [],
      "name": "getBalanceOfContract",
      "outputs": [
        {
          "internalType": "uint256",
          "name": "",
          "type": "uint256"
        }
      ],
      "stateMutability": "view",
      "type": "function"
    },
    {
      "inputs": [],
      "name": "getCompetitionStats",
      "outputs": [
        {
          "internalType": "uint256",
          "name": "",
          "type": "uint256"
        },
        {
          "internalType": "address[]",
          "name": "",
          "type": "address[]"
        },
        {
          "internalType": "string",
          "name": "",
          "type": "string"
        },
        {
          "internalType": "uint256",
          "name": "",
          "type": "uint256"
        },
        {
          "internalType": "uint256",
          "name": "",
          "type": "uint256"
        },
        {
          "internalType": "bool",
          "name": "",
          "type": "bool"
        }
      ],
      "stateMutability": "view",
      "type": "function"
    },
    {
      "inputs": [
        {
          "internalType": "address",
          "name": "competitors",
          "type": "address"
        }
      ],
      "name": "getCompetitorStats",
      "outputs": [
        {
          "internalType": "address",
          "name": "",
          "type": "address"
        },
        {
          "internalType": "int256",
          "name": "",
          "type": "int256"
        },
        {
          "internalType": "uint256[3]",
          "name": "",
          "type": "uint256[3]"
        },
        {
          "internalType": "uint256",
          "name": "",
          "type": "uint256"
        },
        {
          "internalType": "uint256",
          "name": "",
          "type": "uint256"
        }
      ],
      "stateMutability": "view",
      "type": "function"
    },
    {
      "inputs": [],
      "name": "getWinners",
      "outputs": [
        {
          "internalType": "address[]",
          "name": "",
          "type": "address[]"
        }
      ],
      "stateMutability": "view",
      "type": "function"
    },
    {
      "inputs": [
        {
          "internalType": "address",
          "name": "owner",
          "type": "address"
        },
        {
          "internalType": "address",
          "name": "operator",
          "type": "address"
        }
      ],
      "name": "isApprovedForAll",
      "outputs": [
        {
          "internalType": "bool",
          "name": "",
          "type": "bool"
        }
      ],
      "stateMutability": "view",
      "type": "function"
    },
    {
      "inputs": [
        {
          "internalType": "string",
          "name": "tokenURI",
          "type": "string"
        }
      ],
      "name": "mintNFT",
      "outputs": [
        {
          "internalType": "uint256",
          "name": "",
          "type": "uint256"
        }
      ],
      "stateMutability": "nonpayable",
      "type": "function"
    },
    {
      "inputs": [],
      "name": "name",
      "outputs": [
        {
          "internalType": "string",
          "name": "",
          "type": "string"
        }
      ],
      "stateMutability": "view",
      "type": "function"
    },
    {
      "inputs": [
        {
          "internalType": "uint256",
          "name": "tokenId",
          "type": "uint256"
        }
      ],
      "name": "ownerOf",
      "outputs": [
        {
          "internalType": "address",
          "name": "",
          "type": "address"
        }
      ],
      "stateMutability": "view",
      "type": "function"
    },
    {
      "inputs": [
        {
          "internalType": "address",
          "name": "from",
          "type": "address"
        },
        {
          "internalType": "address",
          "name": "to",
          "type": "address"
        },
        {
          "internalType": "uint256",
          "name": "tokenId",
          "type": "uint256"
        }
      ],
      "name": "safeTransferFrom",
      "outputs": [],
      "stateMutability": "nonpayable",
      "type": "function"
    },
    {
      "inputs": [
        {
          "internalType": "address",
          "name": "from",
          "type": "address"
        },
        {
          "internalType": "address",
          "name": "to",
          "type": "address"
        },
        {
          "internalType": "uint256",
          "name": "tokenId",
          "type": "uint256"
        },
        {
          "internalType": "bytes",
          "name": "data",
          "type": "bytes"
        }
      ],
      "name": "safeTransferFrom",
      "outputs": [],
      "stateMutability": "nonpayable",
      "type": "function"
    },
    {
      "inputs": [
        {
          "internalType": "address",
          "name": "operator",
          "type": "address"
        },
        {
          "internalType": "bool",
          "name": "approved",
          "type": "bool"
        }
      ],
      "name": "setApprovalForAll",
      "outputs": [],
      "stateMutability": "nonpayable",
      "type": "function"
    },
    {
      "inputs": [
        {
          "internalType": "uint256",
          "name": "spots",
          "type": "uint256"
        },
        {
          "internalType": "uint256",
          "name": "cost",
          "type": "uint256"
        },
        {
          "internalType": "string",
          "name": "typeComp",
          "type": "string"
        }
      ],
      "name": "startCompetition",
      "outputs": [],
      "stateMutability": "nonpayable",
      "type": "function"
    },
    {
      "inputs": [
        {
          "internalType": "bytes4",
          "name": "interfaceId",
          "type": "bytes4"
        }
      ],
      "name": "supportsInterface",
      "outputs": [
        {
          "internalType": "bool",
          "name": "",
          "type": "bool"
        }
      ],
      "stateMutability": "view",
      "type": "function"
    },
    {
      "inputs": [],
      "name": "symbol",
      "outputs": [
        {
          "internalType": "string",
          "name": "",
          "type": "string"
        }
      ],
      "stateMutability": "view",
      "type": "function"
    },
    {
      "inputs": [
        {
          "internalType": "uint256",
          "name": "tokenId",
          "type": "uint256"
        }
      ],
      "name": "tokenURI",
      "outputs": [
        {
          "internalType": "string",
          "name": "",
          "type": "string"
        }
      ],
      "stateMutability": "view",
      "type": "function"
    },
    {
      "inputs": [
        {
          "internalType": "address",
          "name": "from",
          "type": "address"
        },
        {
          "internalType": "address",
          "name": "to",
          "type": "address"
        },
        {
          "internalType": "uint256",
          "name": "tokenId",
          "type": "uint256"
        }
      ],
      "name": "transferFrom",
      "outputs": [],
      "stateMutability": "nonpayable",
      "type": "function"
    },
    {
      "inputs": [
        {
          "internalType": "address",
          "name": "voteFor",
          "type": "address"
        }
      ],
      "name": "vote",
      "outputs": [],
      "stateMutability": "nonpayable",
      "type": "function"
    },
    {
      "inputs": [],
      "name": "withdrawMoney",
      "outputs": [],
      "stateMutability": "nonpayable",
      "type": "function"
    }
  ],
  "bytecode": "0x60806040523480156200001157600080fd5b506040518060400160405280600b81526020017f776176706f6f6c204e46540000000000000000000000000000000000000000008152506040518060400160405280600481526020017f574156500000000000000000000000000000000000000000000000000000000081525081600090816200008f919062000396565b508060019081620000a1919062000396565b5050506000600a6000600b54815260200190815260200160002060050160006101000a81548160ff02191690831515021790555033601060006101000a81548173ffffffffffffffffffffffffffffffffffffffff021916908373ffffffffffffffffffffffffffffffffffffffff1602179055506200047d565b600081519050919050565b7f4e487b7100000000000000000000000000000000000000000000000000000000600052604160045260246000fd5b7f4e487b7100000000000000000000000000000000000000000000000000000000600052602260045260246000fd5b600060028204905060018216806200019e57607f821691505b602082108103620001b457620001b362000156565b5b50919050565b60008190508160005260206000209050919050565b60006020601f8301049050919050565b600082821b905092915050565b6000600883026200021e7fffffffffffffffffffffffffffffffffffffffffffffffffffffffffffffffff82620001df565b6200022a8683620001df565b95508019841693508086168417925050509392505050565b6000819050919050565b6000819050919050565b600062000277620002716200026b8462000242565b6200024c565b62000242565b9050919050565b6000819050919050565b620002938362000256565b620002ab620002a2826200027e565b848454620001ec565b825550505050565b600090565b620002c2620002b3565b620002cf81848462000288565b505050565b5b81811015620002f757620002eb600082620002b8565b600181019050620002d5565b5050565b601f82111562000346576200031081620001ba565b6200031b84620001cf565b810160208510156200032b578190505b620003436200033a85620001cf565b830182620002d4565b50505b505050565b600082821c905092915050565b60006200036b600019846008026200034b565b1980831691505092915050565b600062000386838362000358565b9150826002028217905092915050565b620003a1826200011c565b67ffffffffffffffff811115620003bd57620003bc62000127565b5b620003c9825462000185565b620003d6828285620002fb565b600060209050601f8311600181146200040e5760008415620003f9578287015190505b62000405858262000378565b86555062000475565b601f1984166200041e86620001ba565b60005b82811015620004485784890151825560018201915060208501945060208101905062000421565b8683101562000468578489015162000464601f89168262000358565b8355505b6001600288020188555050505b505050505050565b615cf9806200048d6000396000f3fe6080604052600436106101b75760003560e01c8063898de773116100ec578063df15c37e1161008a578063ed00e65311610064578063ed00e653146105ee578063f509252114610619578063f80eca221461065a578063fb37e88314610671576101b7565b8063df15c37e1461055b578063e2842d7914610586578063e985e9c5146105b1576101b7565b8063a789ab3a116100c6578063a789ab3a146104ae578063ac446002146104de578063b88d4fde146104f5578063c87b56dd1461051e576101b7565b8063898de7731461042f57806395d89b411461045a578063a22cb46514610485576101b7565b806355f1d17211610159578063697660791161013357806369766079146103965780636dd7d8ea146103a057806370480275146103c957806370a08231146103f2576101b7565b806355f1d1721461030757806362d91855146103305780636352211e14610359576101b7565b8063095ea7b311610195578063095ea7b314610261578063229688851461028a57806323b872dd146102b557806342842e0e146102de576101b7565b806301ffc9a7146101bc57806306fdde03146101f9578063081812fc14610224575b600080fd5b3480156101c857600080fd5b506101e360048036038101906101de9190613f5b565b6106ae565b6040516101f09190613fa3565b60405180910390f35b34801561020557600080fd5b5061020e610790565b60405161021b919061404e565b60405180910390f35b34801561023057600080fd5b5061024b600480360381019061024691906140a6565b610822565b6040516102589190614114565b60405180910390f35b34801561026d57600080fd5b506102886004803603810190610283919061415b565b610868565b005b34801561029657600080fd5b5061029f61097f565b6040516102ac91906141aa565b60405180910390f35b3480156102c157600080fd5b506102dc60048036038101906102d791906141c5565b610a17565b005b3480156102ea57600080fd5b50610305600480360381019061030091906141c5565b610a77565b005b34801561031357600080fd5b5061032e6004803603810190610329919061434d565b610a97565b005b34801561033c57600080fd5b50610357600480360381019061035291906143bc565b610d0b565b005b34801561036557600080fd5b50610380600480360381019061037b91906140a6565b610e07565b60405161038d9190614114565b60405180910390f35b61039e610e8d565b005b3480156103ac57600080fd5b506103c760048036038101906103c291906143bc565b6113d8565b005b3480156103d557600080fd5b506103f060048036038101906103eb91906143bc565b6115c9565b005b3480156103fe57600080fd5b50610419600480360381019061041491906143bc565b61170a565b60405161042691906141aa565b60405180910390f35b34801561043b57600080fd5b506104446117c1565b6040516104519190613fa3565b60405180910390f35b34801561046657600080fd5b5061046f611829565b60405161047c919061404e565b60405180910390f35b34801561049157600080fd5b506104ac60048036038101906104a79190614415565b6118bb565b005b3480156104ba57600080fd5b506104c36118d1565b6040516104d596959493929190614513565b60405180910390f35b3480156104ea57600080fd5b506104f3611aa4565b005b34801561050157600080fd5b5061051c60048036038101906105179190614623565b611b8a565b005b34801561052a57600080fd5b50610545600480360381019061054091906140a6565b611bec565b604051610552919061404e565b60405180910390f35b34801561056757600080fd5b50610570611cfe565b60405161057d91906146a6565b60405180910390f35b34801561059257600080fd5b5061059b611df4565b6040516105a891906146a6565b60405180910390f35b3480156105bd57600080fd5b506105d860048036038101906105d391906146c8565b611e82565b6040516105e59190613fa3565b60405180910390f35b3480156105fa57600080fd5b50610603611f16565b6040516106109190613fa3565b60405180910390f35b34801561062557600080fd5b50610640600480360381019061063b91906143bc565b611fbe565b6040516106519594939291906147cc565b60405180910390f35b34801561066657600080fd5b5061066f61218c565b005b34801561067d57600080fd5b506106986004803603810190610693919061481f565b612a6a565b6040516106a591906141aa565b60405180910390f35b60007f80ac58cd000000000000000000000000000000000000000000000000000000007bffffffffffffffffffffffffffffffffffffffffffffffffffffffff1916827bffffffffffffffffffffffffffffffffffffffffffffffffffffffff1916148061077957507f5b5e139f000000000000000000000000000000000000000000000000000000007bffffffffffffffffffffffffffffffffffffffffffffffffffffffff1916827bffffffffffffffffffffffffffffffffffffffffffffffffffffffff1916145b80610789575061078882612c21565b5b9050919050565b60606000805461079f90614897565b80601f01602080910402602001604051908101604052809291908181526020018280546107cb90614897565b80156108185780601f106107ed57610100808354040283529160200191610818565b820191906000526020600020905b8154815290600101906020018083116107fb57829003601f168201915b5050505050905090565b600061082d82612c8b565b6004600083815260200190815260200160002060009054906101000a900473ffffffffffffffffffffffffffffffffffffffff169050919050565b600061087382610e07565b90508073ffffffffffffffffffffffffffffffffffffffff168373ffffffffffffffffffffffffffffffffffffffff16036108e3576040517f08c379a00000000000000000000000000000000000000000000000000000000081526004016108da9061493a565b60405180910390fd5b8073ffffffffffffffffffffffffffffffffffffffff16610902612cd6565b73ffffffffffffffffffffffffffffffffffffffff16148061093157506109308161092b612cd6565b611e82565b5b610970576040517f08c379a0000000000000000000000000000000000000000000000000000000008152600401610967906149cc565b60405180910390fd5b61097a8383612cde565b505050565b6000601060009054906101000a900473ffffffffffffffffffffffffffffffffffffffff1673ffffffffffffffffffffffffffffffffffffffff163373ffffffffffffffffffffffffffffffffffffffff1614610a11576040517f08c379a0000000000000000000000000000000000000000000000000000000008152600401610a0890614a38565b60405180910390fd5b47905090565b610a28610a22612cd6565b82612d97565b610a67576040517f08c379a0000000000000000000000000000000000000000000000000000000008152600401610a5e90614aca565b60405180910390fd5b610a72838383612e2c565b505050565b610a9283838360405180602001604052806000815250611b8a565b505050565b600960003373ffffffffffffffffffffffffffffffffffffffff1673ffffffffffffffffffffffffffffffffffffffff16815260200190815260200160002060000160009054906101000a900473ffffffffffffffffffffffffffffffffffffffff1673ffffffffffffffffffffffffffffffffffffffff163373ffffffffffffffffffffffffffffffffffffffff161480610b805750601060009054906101000a900473ffffffffffffffffffffffffffffffffffffffff1673ffffffffffffffffffffffffffffffffffffffff163373ffffffffffffffffffffffffffffffffffffffff16145b610bbf576040517f08c379a0000000000000000000000000000000000000000000000000000000008152600401610bb690614b5c565b60405180910390fd5b60606040518060e00160405280828152602001828152602001848152602001858152602001600b54815260200160011515815260200183815250600a6000600b5481526020019081526020016000206000820151816000019080519060200190610c2a929190613de6565b506020820151816001019080519060200190610c47929190613de6565b5060408201518160020155606082015181600301556080820151816004015560a08201518160050160006101000a81548160ff02191690831515021790555060c0820151816006019081610c9b9190614d28565b509050507fca79b48d994cc00aa13fe51439b88e91ae314df9d78f478c49be788f7d0a65d7848484610cce600b54613125565b604051602001610cde9190614e82565b604051602081830303815290604052604051610cfd9493929190614eb7565b60405180910390a150505050565b601060009054906101000a900473ffffffffffffffffffffffffffffffffffffffff1673ffffffffffffffffffffffffffffffffffffffff163373ffffffffffffffffffffffffffffffffffffffff1614610d9b576040517f08c379a0000000000000000000000000000000000000000000000000000000008152600401610d9290614a38565b60405180910390fd5b600960008273ffffffffffffffffffffffffffffffffffffffff1673ffffffffffffffffffffffffffffffffffffffff168152602001908152602001600020600080820160006101000a81549073ffffffffffffffffffffffffffffffffffffffff0219169055505050565b600080610e13836131f3565b9050600073ffffffffffffffffffffffffffffffffffffffff168173ffffffffffffffffffffffffffffffffffffffff1603610e84576040517f08c379a0000000000000000000000000000000000000000000000000000000008152600401610e7b90614f56565b60405180910390fd5b80915050919050565b610e95613230565b15610ed5576040517f08c379a0000000000000000000000000000000000000000000000000000000008152600401610ecc90614fe8565b60405180910390fd5b6000600a6000600b5481526020019081526020016000206003015411610f30576040517f08c379a0000000000000000000000000000000000000000000000000000000008152600401610f2790615054565b60405180910390fd5b600a6000600b548152602001908152602001600020600201543414610f8a576040517f08c379a0000000000000000000000000000000000000000000000000000000008152600401610f81906150c0565b60405180910390fd5b610f92613e70565b3373ffffffffffffffffffffffffffffffffffffffff16600860003373ffffffffffffffffffffffffffffffffffffffff1673ffffffffffffffffffffffffffffffffffffffff16815260200190815260200160002060000160009054906101000a900473ffffffffffffffffffffffffffffffffffffffff1673ffffffffffffffffffffffffffffffffffffffff16146111c2576040518061010001604052803373ffffffffffffffffffffffffffffffffffffffff16815260200160008152602001600081526020016001815260200160008152602001600081526020018281526020016000815250600860003373ffffffffffffffffffffffffffffffffffffffff1673ffffffffffffffffffffffffffffffffffffffff16815260200190815260200160002060008201518160000160006101000a81548173ffffffffffffffffffffffffffffffffffffffff021916908373ffffffffffffffffffffffffffffffffffffffff1602179055506020820151816001015560408201518160020155606082015181600301556080820151816004015560a0820151816005015560c08201518160060190600361114c929190613e92565b5060e082015181600901559050506011339080600181540180825580915050600190039060005260206000200160009091909190916101000a81548173ffffffffffffffffffffffffffffffffffffffff021916908373ffffffffffffffffffffffffffffffffffffffff16021790555061129b565b6001600860003373ffffffffffffffffffffffffffffffffffffffff1673ffffffffffffffffffffffffffffffffffffffff168152602001908152602001600020600301819055506000600860003373ffffffffffffffffffffffffffffffffffffffff1673ffffffffffffffffffffffffffffffffffffffff168152602001908152602001600020600401819055506000600860003373ffffffffffffffffffffffffffffffffffffffff1673ffffffffffffffffffffffffffffffffffffffff168152602001908152602001600020600101819055505b600a6000600b548152602001908152602001600020600001339080600181540180825580915050600190039060005260206000200160009091909190916101000a81548173ffffffffffffffffffffffffffffffffffffffff021916908373ffffffffffffffffffffffffffffffffffffffff1602179055506001600a6000600b548152602001908152602001600020600301600082825461133d919061510f565b925050819055506001600860003373ffffffffffffffffffffffffffffffffffffffff1673ffffffffffffffffffffffffffffffffffffffff16815260200190815260200160002060090160008282546113979190615143565b925050819055507f0e060bb02c4922cc146182d64ff24031896b73e532122cebaec992d3cf33ab3c336040516113cd9190614114565b60405180910390a150565b6113e0613230565b61141f576040517f08c379a00000000000000000000000000000000000000000000000000000000081526004016114169061520f565b60405180910390fd5b6001600860003373ffffffffffffffffffffffffffffffffffffffff1673ffffffffffffffffffffffffffffffffffffffff16815260200190815260200160002060030154146114a4576040517f08c379a000000000000000000000000000000000000000000000000000000000815260040161149b906152a1565b60405180910390fd5b8073ffffffffffffffffffffffffffffffffffffffff163373ffffffffffffffffffffffffffffffffffffffff1603611512576040517f08c379a000000000000000000000000000000000000000000000000000000000815260040161150990615333565b60405180910390fd5b6001600860003373ffffffffffffffffffffffffffffffffffffffff1673ffffffffffffffffffffffffffffffffffffffff1681526020019081526020016000206003016000828254611565919061510f565b925050819055506001600860008373ffffffffffffffffffffffffffffffffffffffff1673ffffffffffffffffffffffffffffffffffffffff16815260200190815260200160002060040160008282546115bf9190615353565b9250508190555050565b601060009054906101000a900473ffffffffffffffffffffffffffffffffffffffff1673ffffffffffffffffffffffffffffffffffffffff163373ffffffffffffffffffffffffffffffffffffffff1614611659576040517f08c379a000000000000000000000000000000000000000000000000000000000815260040161165090614a38565b60405180910390fd5b60405180602001604052808273ffffffffffffffffffffffffffffffffffffffff16815250600960008373ffffffffffffffffffffffffffffffffffffffff1673ffffffffffffffffffffffffffffffffffffffff16815260200190815260200160002060008201518160000160006101000a81548173ffffffffffffffffffffffffffffffffffffffff021916908373ffffffffffffffffffffffffffffffffffffffff16021790555090505050565b60008073ffffffffffffffffffffffffffffffffffffffff168273ffffffffffffffffffffffffffffffffffffffff160361177a576040517f08c379a000000000000000000000000000000000000000000000000000000000815260040161177190615409565b60405180910390fd5b600360008373ffffffffffffffffffffffffffffffffffffffff1673ffffffffffffffffffffffffffffffffffffffff168152602001908152602001600020549050919050565b60003373ffffffffffffffffffffffffffffffffffffffff16601060009054906101000a900473ffffffffffffffffffffffffffffffffffffffff1673ffffffffffffffffffffffffffffffffffffffff16036118215760019050611826565b600090505b90565b60606001805461183890614897565b80601f016020809104026020016040519081016040528092919081815260200182805461186490614897565b80156118b15780601f10611886576101008083540402835291602001916118b1565b820191906000526020600020905b81548152906001019060200180831161189457829003601f168201915b5050505050905090565b6118cd6118c6612cd6565b8383613308565b5050565b60006060806000806000600a6000600b54815260200190815260200160002060040154600a6000600b548152602001908152602001600020600001600a6000600b548152602001908152602001600020600601600a6000600b54815260200190815260200160002060030154600a6000600b54815260200190815260200160002060020154600a6000600b54815260200190815260200160002060050160009054906101000a900460ff16848054806020026020016040519081016040528092919081815260200182805480156119fd57602002820191906000526020600020905b8160009054906101000a900473ffffffffffffffffffffffffffffffffffffffff1673ffffffffffffffffffffffffffffffffffffffff16815260200190600101908083116119b3575b50505050509450838054611a1090614897565b80601f0160208091040260200160405190810160405280929190818152602001828054611a3c90614897565b8015611a895780601f10611a5e57610100808354040283529160200191611a89565b820191906000526020600020905b815481529060010190602001808311611a6c57829003601f168201915b50505050509350955095509550955095509550909192939495565b601060009054906101000a900473ffffffffffffffffffffffffffffffffffffffff1673ffffffffffffffffffffffffffffffffffffffff163373ffffffffffffffffffffffffffffffffffffffff1614611b34576040517f08c379a0000000000000000000000000000000000000000000000000000000008152600401611b2b90614a38565b60405180910390fd5b60003390508073ffffffffffffffffffffffffffffffffffffffff166108fc611b5b61097f565b9081150290604051600060405180830381858888f19350505050158015611b86573d6000803e3d6000fd5b5050565b611b9b611b95612cd6565b83612d97565b611bda576040517f08c379a0000000000000000000000000000000000000000000000000000000008152600401611bd190614aca565b60405180910390fd5b611be684848484613474565b50505050565b6060611bf782612c8b565b6000600660008481526020019081526020016000208054611c1790614897565b80601f0160208091040260200160405190810160405280929190818152602001828054611c4390614897565b8015611c905780601f10611c6557610100808354040283529160200191611c90565b820191906000526020600020905b815481529060010190602001808311611c7357829003601f168201915b505050505090506000611ca16134d0565b90506000815103611cb6578192505050611cf9565b600082511115611ceb578082604051602001611cd3929190615429565b60405160208183030381529060405292505050611cf9565b611cf4846134e7565b925050505b919050565b60606001600b541015611d46576040517f08c379a0000000000000000000000000000000000000000000000000000000008152600401611d3d906154bf565b60405180910390fd5b600a60006001600b54611d59919061510f565b8152602001908152602001600020600101805480602002602001604051908101604052809291908181526020018280548015611dea57602002820191906000526020600020905b8160009054906101000a900473ffffffffffffffffffffffffffffffffffffffff1673ffffffffffffffffffffffffffffffffffffffff1681526020019060010190808311611da0575b5050505050905090565b60606011805480602002602001604051908101604052809291908181526020018280548015611e7857602002820191906000526020600020905b8160009054906101000a900473ffffffffffffffffffffffffffffffffffffffff1673ffffffffffffffffffffffffffffffffffffffff1681526020019060010190808311611e2e575b5050505050905090565b6000600560008473ffffffffffffffffffffffffffffffffffffffff1673ffffffffffffffffffffffffffffffffffffffff16815260200190815260200160002060008373ffffffffffffffffffffffffffffffffffffffff1673ffffffffffffffffffffffffffffffffffffffff16815260200190815260200160002060009054906101000a900460ff16905092915050565b6000600960003373ffffffffffffffffffffffffffffffffffffffff1673ffffffffffffffffffffffffffffffffffffffff16815260200190815260200160002060000160009054906101000a900473ffffffffffffffffffffffffffffffffffffffff1673ffffffffffffffffffffffffffffffffffffffff163373ffffffffffffffffffffffffffffffffffffffff1603611fb65760019050611fbb565b600090505b90565b600080611fc9613e70565b600080600860008773ffffffffffffffffffffffffffffffffffffffff1673ffffffffffffffffffffffffffffffffffffffff16815260200190815260200160002060000160009054906101000a900473ffffffffffffffffffffffffffffffffffffffff16600860008873ffffffffffffffffffffffffffffffffffffffff1673ffffffffffffffffffffffffffffffffffffffff16815260200190815260200160002060050154600860008973ffffffffffffffffffffffffffffffffffffffff1673ffffffffffffffffffffffffffffffffffffffff168152602001908152602001600020600601600860008a73ffffffffffffffffffffffffffffffffffffffff1673ffffffffffffffffffffffffffffffffffffffff16815260200190815260200160002060090154600860008b73ffffffffffffffffffffffffffffffffffffffff1673ffffffffffffffffffffffffffffffffffffffff1681526020019081526020016000206002015482600380602002604051908101604052809291908260038015612172576020028201915b81548152602001906001019080831161215e575b505050505092509450945094509450945091939590929450565b600960003373ffffffffffffffffffffffffffffffffffffffff1673ffffffffffffffffffffffffffffffffffffffff16815260200190815260200160002060000160009054906101000a900473ffffffffffffffffffffffffffffffffffffffff1673ffffffffffffffffffffffffffffffffffffffff163373ffffffffffffffffffffffffffffffffffffffff1614806122755750601060009054906101000a900473ffffffffffffffffffffffffffffffffffffffff1673ffffffffffffffffffffffffffffffffffffffff163373ffffffffffffffffffffffffffffffffffffffff16145b6122b4576040517f08c379a00000000000000000000000000000000000000000000000000000000081526004016122ab90614b5c565b60405180910390fd5b6002600f54116127035760005b600a6000600b548152602001908152602001600020600001805490508110156125c057600d5460086000600a6000600b5481526020019081526020016000206000018481548110612315576123146154df565b5b9060005260206000200160009054906101000a900473ffffffffffffffffffffffffffffffffffffffff1673ffffffffffffffffffffffffffffffffffffffff1673ffffffffffffffffffffffffffffffffffffffff1681526020019081526020016000206004015413801561240c5750600073ffffffffffffffffffffffffffffffffffffffff16600a6000600b54815260200190815260200160002060000182815481106123c8576123c76154df565b5b9060005260206000200160009054906101000a900473ffffffffffffffffffffffffffffffffffffffff1673ffffffffffffffffffffffffffffffffffffffff1614155b156125ad5760086000600a6000600b548152602001908152602001600020600001838154811061243f5761243e6154df565b5b9060005260206000200160009054906101000a900473ffffffffffffffffffffffffffffffffffffffff1673ffffffffffffffffffffffffffffffffffffffff1673ffffffffffffffffffffffffffffffffffffffff16815260200190815260200160002060000160009054906101000a900473ffffffffffffffffffffffffffffffffffffffff16600c60006101000a81548173ffffffffffffffffffffffffffffffffffffffff021916908373ffffffffffffffffffffffffffffffffffffffff16021790555060086000600a6000600b5481526020019081526020016000206000018381548110612536576125356154df565b5b9060005260206000200160009054906101000a900473ffffffffffffffffffffffffffffffffffffffff1673ffffffffffffffffffffffffffffffffffffffff1673ffffffffffffffffffffffffffffffffffffffff16815260200190815260200160002060040154600d8190555080600e819055505b80806125b89061550e565b9150506122c1565b50600a6000600b548152602001908152602001600020600101600c60009054906101000a900473ffffffffffffffffffffffffffffffffffffffff169080600181540180825580915050600190039060005260206000200160009091909190916101000a81548173ffffffffffffffffffffffffffffffffffffffff021916908373ffffffffffffffffffffffffffffffffffffffff160217905550600a6000600b548152602001908152602001600020600001600e5481548110612688576126876154df565b5b9060005260206000200160006101000a81549073ffffffffffffffffffffffffffffffffffffffff02191690557fffffffffffffffffffffffffffffffffffffffffffffffffffffffffffffffff600d819055506001600f60008282546126ef9190615143565b925050819055506126fe61218c565b612a68565b60006002600a6000600b54815260200190815260200160002060000180549050600a6000600b548152602001908152602001600020600201546127469190615556565b61275091906155c7565b905060005b600a6000600b548152602001908152602001600020600101805490508110156129ed5760028261278591906155c7565b91506000600a6000600b54815260200190815260200160002060010182815481106127b3576127b26154df565b5b9060005260206000200160009054906101000a900473ffffffffffffffffffffffffffffffffffffffff1690508073ffffffffffffffffffffffffffffffffffffffff166108fc849081150290604051600060405180830381858888f19350505050158015612826573d6000803e3d6000fd5b50600160086000600a6000600b5481526020019081526020016000206001018581548110612857576128566154df565b5b9060005260206000200160009054906101000a900473ffffffffffffffffffffffffffffffffffffffff1673ffffffffffffffffffffffffffffffffffffffff1673ffffffffffffffffffffffffffffffffffffffff16815260200190815260200160002060060183600381106128d1576128d06154df565b5b0160008282546128e19190615143565b925050819055507f634235fcf5af0adbca1a405ec65f6f6c08f55e1f379c2c45cd10f23cb29e0e3160086000600a6000600b5481526020019081526020016000206001018581548110612937576129366154df565b5b9060005260206000200160009054906101000a900473ffffffffffffffffffffffffffffffffffffffff1673ffffffffffffffffffffffffffffffffffffffff1673ffffffffffffffffffffffffffffffffffffffff16815260200190815260200160002060000160009054906101000a900473ffffffffffffffffffffffffffffffffffffffff1684846040516129d1939291906155f8565b60405180910390a15080806129e59061550e565b915050612755565b506129f661354f565b6001600b6000828254612a099190615143565b925050819055506000600f819055507f7cb9e2fcf8f841f4857b076f6552d8f4c0610a8d555f9a0a92b472647f16baf1600a6000600b548152602001908152602001600020600101604051612a5e9190615767565b60405180910390a1505b565b6000612a74613230565b612ab3576040517f08c379a0000000000000000000000000000000000000000000000000000000008152600401612aaa9061520f565b60405180910390fd5b6001600860003373ffffffffffffffffffffffffffffffffffffffff1673ffffffffffffffffffffffffffffffffffffffff1681526020019081526020016000206001015410612b38576040517f08c379a0000000000000000000000000000000000000000000000000000000008152600401612b2f90615834565b60405180910390fd5b612b4260076136ce565b6000612b4e60076136e4565b9050612b5a33826136f2565b612b64818461390f565b6001600860003373ffffffffffffffffffffffffffffffffffffffff1673ffffffffffffffffffffffffffffffffffffffff1681526020019081526020016000206001016000828254612bb79190615143565b925050819055506001600860003373ffffffffffffffffffffffffffffffffffffffff1673ffffffffffffffffffffffffffffffffffffffff1681526020019081526020016000206002016000828254612c119190615143565b9250508190555080915050919050565b60007f01ffc9a7000000000000000000000000000000000000000000000000000000007bffffffffffffffffffffffffffffffffffffffffffffffffffffffff1916827bffffffffffffffffffffffffffffffffffffffffffffffffffffffff1916149050919050565b612c948161397c565b612cd3576040517f08c379a0000000000000000000000000000000000000000000000000000000008152600401612cca90614f56565b60405180910390fd5b50565b600033905090565b816004600083815260200190815260200160002060006101000a81548173ffffffffffffffffffffffffffffffffffffffff021916908373ffffffffffffffffffffffffffffffffffffffff160217905550808273ffffffffffffffffffffffffffffffffffffffff16612d5183610e07565b73ffffffffffffffffffffffffffffffffffffffff167f8c5be1e5ebec7d5bd14f71427d1e84f3dd0314c0f7b2291e5b200ac8c7c3b92560405160405180910390a45050565b600080612da383610e07565b90508073ffffffffffffffffffffffffffffffffffffffff168473ffffffffffffffffffffffffffffffffffffffff161480612de55750612de48185611e82565b5b80612e2357508373ffffffffffffffffffffffffffffffffffffffff16612e0b84610822565b73ffffffffffffffffffffffffffffffffffffffff16145b91505092915050565b8273ffffffffffffffffffffffffffffffffffffffff16612e4c82610e07565b73ffffffffffffffffffffffffffffffffffffffff1614612ea2576040517f08c379a0000000000000000000000000000000000000000000000000000000008152600401612e99906158c6565b60405180910390fd5b600073ffffffffffffffffffffffffffffffffffffffff168273ffffffffffffffffffffffffffffffffffffffff1603612f11576040517f08c379a0000000000000000000000000000000000000000000000000000000008152600401612f0890615958565b60405180910390fd5b612f1e83838360016139bd565b8273ffffffffffffffffffffffffffffffffffffffff16612f3e82610e07565b73ffffffffffffffffffffffffffffffffffffffff1614612f94576040517f08c379a0000000000000000000000000000000000000000000000000000000008152600401612f8b906158c6565b60405180910390fd5b6004600082815260200190815260200160002060006101000a81549073ffffffffffffffffffffffffffffffffffffffff02191690556001600360008573ffffffffffffffffffffffffffffffffffffffff1673ffffffffffffffffffffffffffffffffffffffff168152602001908152602001600020600082825403925050819055506001600360008473ffffffffffffffffffffffffffffffffffffffff1673ffffffffffffffffffffffffffffffffffffffff16815260200190815260200160002060008282540192505081905550816002600083815260200190815260200160002060006101000a81548173ffffffffffffffffffffffffffffffffffffffff021916908373ffffffffffffffffffffffffffffffffffffffff160217905550808273ffffffffffffffffffffffffffffffffffffffff168473ffffffffffffffffffffffffffffffffffffffff167fddf252ad1be2c89b69c2b068fc378daa952ba7f163c4a11628f55a4df523b3ef60405160405180910390a46131208383836001613ae3565b505050565b60606000600161313484613ae9565b01905060008167ffffffffffffffff81111561315357613152614222565b5b6040519080825280601f01601f1916602001820160405280156131855781602001600182028036833780820191505090505b509050600082602001820190505b6001156131e8578080600190039150507f3031323334353637383961626364656600000000000000000000000000000000600a86061a8153600a85816131dc576131db615598565b5b04945060008503613193575b819350505050919050565b60006002600083815260200190815260200160002060009054906101000a900473ffffffffffffffffffffffffffffffffffffffff169050919050565b600080600090505b600a6000600b548152602001908152602001600020600001805490508110156132ff57600a6000600b5481526020019081526020016000206000018181548110613285576132846154df565b5b9060005260206000200160009054906101000a900473ffffffffffffffffffffffffffffffffffffffff1673ffffffffffffffffffffffffffffffffffffffff163373ffffffffffffffffffffffffffffffffffffffff16036132ec576001915050613305565b80806132f79061550e565b915050613238565b50600090505b90565b8173ffffffffffffffffffffffffffffffffffffffff168373ffffffffffffffffffffffffffffffffffffffff1603613376576040517f08c379a000000000000000000000000000000000000000000000000000000000815260040161336d906159c4565b60405180910390fd5b80600560008573ffffffffffffffffffffffffffffffffffffffff1673ffffffffffffffffffffffffffffffffffffffff16815260200190815260200160002060008473ffffffffffffffffffffffffffffffffffffffff1673ffffffffffffffffffffffffffffffffffffffff16815260200190815260200160002060006101000a81548160ff0219169083151502179055508173ffffffffffffffffffffffffffffffffffffffff168373ffffffffffffffffffffffffffffffffffffffff167f17307eab39ab6107e8899845ad3d59bd9653f200f220920489ca2b5937696c31836040516134679190613fa3565b60405180910390a3505050565b61347f848484612e2c565b61348b84848484613c3c565b6134ca576040517f08c379a00000000000000000000000000000000000000000000000000000000081526004016134c190615a56565b60405180910390fd5b50505050565b606060405180602001604052806000815250905090565b60606134f282612c8b565b60006134fc6134d0565b9050600081511161351c5760405180602001604052806000815250613547565b8061352684613125565b604051602001613537929190615429565b6040516020818303038152906040525b915050919050565b60005b600a6000600b548152602001908152602001600020600001805490508110156136cb5760086000600a6000600b54815260200190815260200160002060000183815481106135a3576135a26154df565b5b9060005260206000200160009054906101000a900473ffffffffffffffffffffffffffffffffffffffff1673ffffffffffffffffffffffffffffffffffffffff1673ffffffffffffffffffffffffffffffffffffffff1681526020019081526020016000206004015460086000600a6000600b548152602001908152602001600020600001848154811061363a576136396154df565b5b9060005260206000200160009054906101000a900473ffffffffffffffffffffffffffffffffffffffff1673ffffffffffffffffffffffffffffffffffffffff1673ffffffffffffffffffffffffffffffffffffffff16815260200190815260200160002060050160008282546136b19190615353565b9250508190555080806136c39061550e565b915050613552565b50565b6001816000016000828254019250508190555050565b600081600001549050919050565b600073ffffffffffffffffffffffffffffffffffffffff168273ffffffffffffffffffffffffffffffffffffffff1603613761576040517f08c379a000000000000000000000000000000000000000000000000000000000815260040161375890615ac2565b60405180910390fd5b61376a8161397c565b156137aa576040517f08c379a00000000000000000000000000000000000000000000000000000000081526004016137a190615b2e565b60405180910390fd5b6137b86000838360016139bd565b6137c18161397c565b15613801576040517f08c379a00000000000000000000000000000000000000000000000000000000081526004016137f890615b2e565b60405180910390fd5b6001600360008473ffffffffffffffffffffffffffffffffffffffff1673ffffffffffffffffffffffffffffffffffffffff16815260200190815260200160002060008282540192505081905550816002600083815260200190815260200160002060006101000a81548173ffffffffffffffffffffffffffffffffffffffff021916908373ffffffffffffffffffffffffffffffffffffffff160217905550808273ffffffffffffffffffffffffffffffffffffffff16600073ffffffffffffffffffffffffffffffffffffffff167fddf252ad1be2c89b69c2b068fc378daa952ba7f163c4a11628f55a4df523b3ef60405160405180910390a461390b600083836001613ae3565b5050565b6139188261397c565b613957576040517f08c379a000000000000000000000000000000000000000000000000000000000815260040161394e90615bc0565b60405180910390fd5b806006600084815260200190815260200160002090816139779190614d28565b505050565b60008073ffffffffffffffffffffffffffffffffffffffff1661399e836131f3565b73ffffffffffffffffffffffffffffffffffffffff1614159050919050565b6001811115613add57600073ffffffffffffffffffffffffffffffffffffffff168473ffffffffffffffffffffffffffffffffffffffff1614613a515780600360008673ffffffffffffffffffffffffffffffffffffffff1673ffffffffffffffffffffffffffffffffffffffff1681526020019081526020016000206000828254613a49919061510f565b925050819055505b600073ffffffffffffffffffffffffffffffffffffffff168373ffffffffffffffffffffffffffffffffffffffff1614613adc5780600360008573ffffffffffffffffffffffffffffffffffffffff1673ffffffffffffffffffffffffffffffffffffffff1681526020019081526020016000206000828254613ad49190615143565b925050819055505b5b50505050565b50505050565b600080600090507a184f03e93ff9f4daa797ed6e38ed64bf6a1f0100000000000000008310613b47577a184f03e93ff9f4daa797ed6e38ed64bf6a1f0100000000000000008381613b3d57613b3c615598565b5b0492506040810190505b6d04ee2d6d415b85acef81000000008310613b84576d04ee2d6d415b85acef81000000008381613b7a57613b79615598565b5b0492506020810190505b662386f26fc100008310613bb357662386f26fc100008381613ba957613ba8615598565b5b0492506010810190505b6305f5e1008310613bdc576305f5e1008381613bd257613bd1615598565b5b0492506008810190505b6127108310613c01576127108381613bf757613bf6615598565b5b0492506004810190505b60648310613c245760648381613c1a57613c19615598565b5b0492506002810190505b600a8310613c33576001810190505b80915050919050565b6000613c5d8473ffffffffffffffffffffffffffffffffffffffff16613dc3565b15613db6578373ffffffffffffffffffffffffffffffffffffffff1663150b7a02613c86612cd6565b8786866040518563ffffffff1660e01b8152600401613ca89493929190615c35565b6020604051808303816000875af1925050508015613ce457506040513d601f19601f82011682018060405250810190613ce19190615c96565b60015b613d66573d8060008114613d14576040519150601f19603f3d011682016040523d82523d6000602084013e613d19565b606091505b506000815103613d5e576040517f08c379a0000000000000000000000000000000000000000000000000000000008152600401613d5590615a56565b60405180910390fd5b805181602001fd5b63150b7a0260e01b7bffffffffffffffffffffffffffffffffffffffffffffffffffffffff1916817bffffffffffffffffffffffffffffffffffffffffffffffffffffffff191614915050613dbb565b600190505b949350505050565b6000808273ffffffffffffffffffffffffffffffffffffffff163b119050919050565b828054828255906000526020600020908101928215613e5f579160200282015b82811115613e5e5782518260006101000a81548173ffffffffffffffffffffffffffffffffffffffff021916908373ffffffffffffffffffffffffffffffffffffffff16021790555091602001919060010190613e06565b5b509050613e6c9190613ed2565b5090565b6040518060600160405280600390602082028036833780820191505090505090565b8260038101928215613ec1579160200282015b82811115613ec0578251825591602001919060010190613ea5565b5b509050613ece9190613ed2565b5090565b5b80821115613eeb576000816000905550600101613ed3565b5090565b6000604051905090565b600080fd5b600080fd5b60007fffffffff0000000000000000000000000000000000000000000000000000000082169050919050565b613f3881613f03565b8114613f4357600080fd5b50565b600081359050613f5581613f2f565b92915050565b600060208284031215613f7157613f70613ef9565b5b6000613f7f84828501613f46565b91505092915050565b60008115159050919050565b613f9d81613f88565b82525050565b6000602082019050613fb86000830184613f94565b92915050565b600081519050919050565b600082825260208201905092915050565b60005b83811015613ff8578082015181840152602081019050613fdd565b60008484015250505050565b6000601f19601f8301169050919050565b600061402082613fbe565b61402a8185613fc9565b935061403a818560208601613fda565b61404381614004565b840191505092915050565b600060208201905081810360008301526140688184614015565b905092915050565b6000819050919050565b61408381614070565b811461408e57600080fd5b50565b6000813590506140a08161407a565b92915050565b6000602082840312156140bc576140bb613ef9565b5b60006140ca84828501614091565b91505092915050565b600073ffffffffffffffffffffffffffffffffffffffff82169050919050565b60006140fe826140d3565b9050919050565b61410e816140f3565b82525050565b60006020820190506141296000830184614105565b92915050565b614138816140f3565b811461414357600080fd5b50565b6000813590506141558161412f565b92915050565b6000806040838503121561417257614171613ef9565b5b600061418085828601614146565b925050602061419185828601614091565b9150509250929050565b6141a481614070565b82525050565b60006020820190506141bf600083018461419b565b92915050565b6000806000606084860312156141de576141dd613ef9565b5b60006141ec86828701614146565b93505060206141fd86828701614146565b925050604061420e86828701614091565b9150509250925092565b600080fd5b600080fd5b7f4e487b7100000000000000000000000000000000000000000000000000000000600052604160045260246000fd5b61425a82614004565b810181811067ffffffffffffffff8211171561427957614278614222565b5b80604052505050565b600061428c613eef565b90506142988282614251565b919050565b600067ffffffffffffffff8211156142b8576142b7614222565b5b6142c182614004565b9050602081019050919050565b82818337600083830152505050565b60006142f06142eb8461429d565b614282565b90508281526020810184848401111561430c5761430b61421d565b5b6143178482856142ce565b509392505050565b600082601f83011261433457614333614218565b5b81356143448482602086016142dd565b91505092915050565b60008060006060848603121561436657614365613ef9565b5b600061437486828701614091565b935050602061438586828701614091565b925050604084013567ffffffffffffffff8111156143a6576143a5613efe565b5b6143b28682870161431f565b9150509250925092565b6000602082840312156143d2576143d1613ef9565b5b60006143e084828501614146565b91505092915050565b6143f281613f88565b81146143fd57600080fd5b50565b60008135905061440f816143e9565b92915050565b6000806040838503121561442c5761442b613ef9565b5b600061443a85828601614146565b925050602061444b85828601614400565b9150509250929050565b600081519050919050565b600082825260208201905092915050565b6000819050602082019050919050565b61448a816140f3565b82525050565b600061449c8383614481565b60208301905092915050565b6000602082019050919050565b60006144c082614455565b6144ca8185614460565b93506144d583614471565b8060005b838110156145065781516144ed8882614490565b97506144f8836144a8565b9250506001810190506144d9565b5085935050505092915050565b600060c082019050614528600083018961419b565b818103602083015261453a81886144b5565b9050818103604083015261454e8187614015565b905061455d606083018661419b565b61456a608083018561419b565b61457760a0830184613f94565b979650505050505050565b600067ffffffffffffffff82111561459d5761459c614222565b5b6145a682614004565b9050602081019050919050565b60006145c66145c184614582565b614282565b9050828152602081018484840111156145e2576145e161421d565b5b6145ed8482856142ce565b509392505050565b600082601f83011261460a57614609614218565b5b813561461a8482602086016145b3565b91505092915050565b6000806000806080858703121561463d5761463c613ef9565b5b600061464b87828801614146565b945050602061465c87828801614146565b935050604061466d87828801614091565b925050606085013567ffffffffffffffff81111561468e5761468d613efe565b5b61469a878288016145f5565b91505092959194509250565b600060208201905081810360008301526146c081846144b5565b905092915050565b600080604083850312156146df576146de613ef9565b5b60006146ed85828601614146565b92505060206146fe85828601614146565b9150509250929050565b6000819050919050565b61471b81614708565b82525050565b600060039050919050565b600081905092915050565b6000819050919050565b61474a81614070565b82525050565b600061475c8383614741565b60208301905092915050565b6000602082019050919050565b61477e81614721565b614788818461472c565b925061479382614737565b8060005b838110156147c45781516147ab8782614750565b96506147b683614768565b925050600181019050614797565b505050505050565b600060e0820190506147e16000830188614105565b6147ee6020830187614712565b6147fb6040830186614775565b61480860a083018561419b565b61481560c083018461419b565b9695505050505050565b60006020828403121561483557614834613ef9565b5b600082013567ffffffffffffffff81111561485357614852613efe565b5b61485f8482850161431f565b91505092915050565b7f4e487b7100000000000000000000000000000000000000000000000000000000600052602260045260246000fd5b600060028204905060018216806148af57607f821691505b6020821081036148c2576148c1614868565b5b50919050565b7f4552433732313a20617070726f76616c20746f2063757272656e74206f776e6560008201527f7200000000000000000000000000000000000000000000000000000000000000602082015250565b6000614924602183613fc9565b915061492f826148c8565b604082019050919050565b6000602082019050818103600083015261495381614917565b9050919050565b7f4552433732313a20617070726f76652063616c6c6572206973206e6f7420746f60008201527f6b656e206f776e6572206f7220617070726f76656420666f7220616c6c000000602082015250565b60006149b6603d83613fc9565b91506149c18261495a565b604082019050919050565b600060208201905081810360008301526149e5816149a9565b9050919050565b7f4e6f74206f776e65722c206e6f7420616c6c6f7765642e000000000000000000600082015250565b6000614a22601783613fc9565b9150614a2d826149ec565b602082019050919050565b60006020820190508181036000830152614a5181614a15565b9050919050565b7f4552433732313a2063616c6c6572206973206e6f7420746f6b656e206f776e6560008201527f72206f7220617070726f76656400000000000000000000000000000000000000602082015250565b6000614ab4602d83613fc9565b9150614abf82614a58565b604082019050919050565b60006020820190508181036000830152614ae381614aa7565b9050919050565b7f4e6f742041646d696e206f72204f776e65722e205468657265666f72652c206e60008201527f6f7420616c6c6f7765642e000000000000000000000000000000000000000000602082015250565b6000614b46602b83613fc9565b9150614b5182614aea565b604082019050919050565b60006020820190508181036000830152614b7581614b39565b9050919050565b60008190508160005260206000209050919050565b60006020601f8301049050919050565b600082821b905092915050565b600060088302614bde7fffffffffffffffffffffffffffffffffffffffffffffffffffffffffffffffff82614ba1565b614be88683614ba1565b95508019841693508086168417925050509392505050565b6000819050919050565b6000614c25614c20614c1b84614070565b614c00565b614070565b9050919050565b6000819050919050565b614c3f83614c0a565b614c53614c4b82614c2c565b848454614bae565b825550505050565b600090565b614c68614c5b565b614c73818484614c36565b505050565b5b81811015614c9757614c8c600082614c60565b600181019050614c79565b5050565b601f821115614cdc57614cad81614b7c565b614cb684614b91565b81016020851015614cc5578190505b614cd9614cd185614b91565b830182614c78565b50505b505050565b600082821c905092915050565b6000614cff60001984600802614ce1565b1980831691505092915050565b6000614d188383614cee565b9150826002028217905092915050565b614d3182613fbe565b67ffffffffffffffff811115614d4a57614d49614222565b5b614d548254614897565b614d5f828285614c9b565b600060209050601f831160018114614d925760008415614d80578287015190505b614d8a8582614d0c565b865550614df2565b601f198416614da086614b7c565b60005b82811015614dc857848901518255600182019150602085019450602081019050614da3565b86831015614de55784890151614de1601f891682614cee565b8355505b6001600288020188555050505b505050505050565b7f436f6d7065746974696f6e200000000000000000000000000000000000000000815250565b600081905092915050565b6000614e3682613fbe565b614e408185614e20565b9350614e50818560208601613fda565b80840191505092915050565b7f68617320737461727465642e0000000000000000000000000000000000000000815250565b6000614e8d82614dfa565b600c82019150614e9d8284614e2b565b9150614ea882614e5c565b600c8201915081905092915050565b6000608082019050614ecc600083018761419b565b614ed9602083018661419b565b8181036040830152614eeb8185614015565b90508181036060830152614eff8184614015565b905095945050505050565b7f4552433732313a20696e76616c696420746f6b656e2049440000000000000000600082015250565b6000614f40601883613fc9565b9150614f4b82614f0a565b602082019050919050565b60006020820190508181036000830152614f6f81614f33565b9050919050565b7f557365722068617320616c72656164792070757263686173656420612074696360008201527f6b65742e00000000000000000000000000000000000000000000000000000000602082015250565b6000614fd2602483613fc9565b9150614fdd82614f76565b604082019050919050565b6000602082019050818103600083015261500181614fc5565b9050919050565b7f4e6f2073706f7473206c65667420696e20636f6d7065746974696f6e2e000000600082015250565b600061503e601d83613fc9565b915061504982615008565b602082019050919050565b6000602082019050818103600083015261506d81615031565b9050919050565b7f496e636f7272656374207061796d656e7420616d6f756e742e00000000000000600082015250565b60006150aa601983613fc9565b91506150b582615074565b602082019050919050565b600060208201905081810360008301526150d98161509d565b9050919050565b7f4e487b7100000000000000000000000000000000000000000000000000000000600052601160045260246000fd5b600061511a82614070565b915061512583614070565b925082820390508181111561513d5761513c6150e0565b5b92915050565b600061514e82614070565b915061515983614070565b9250828201905080821115615171576151706150e0565b5b92915050565b7f55736572206973206e6f7420612070617274206f66207468652063757272656e60008201527f7420636f6d7065746974696f6e20616e64207468657265666f72652063616e6e60208201527f6f74206d696e742e000000000000000000000000000000000000000000000000604082015250565b60006151f9604883613fc9565b915061520482615177565b606082019050919050565b60006020820190508181036000830152615228816151ec565b9050919050565b7f557365722068617320616c726561647920766f7465642e202043616e206f6e6c60008201527f7920766f7465206f6e63652070657220636f6d7065746974696f6e2e00000000602082015250565b600061528b603c83613fc9565b91506152968261522f565b604082019050919050565b600060208201905081810360008301526152ba8161527e565b9050919050565b7f4e6f7420616c6c6f77656420746f20766f746520666f7220796f757273656c6660008201527f20746f2077696e2e000000000000000000000000000000000000000000000000602082015250565b600061531d602883613fc9565b9150615328826152c1565b604082019050919050565b6000602082019050818103600083015261534c81615310565b9050919050565b600061535e82614708565b915061536983614708565b925082820190508281121560008312168382126000841215161715615391576153906150e0565b5b92915050565b7f4552433732313a2061646472657373207a65726f206973206e6f74206120766160008201527f6c6964206f776e65720000000000000000000000000000000000000000000000602082015250565b60006153f3602983613fc9565b91506153fe82615397565b604082019050919050565b60006020820190508181036000830152615422816153e6565b9050919050565b60006154358285614e2b565b91506154418284614e2b565b91508190509392505050565b7f54686520666972737420636f6d7065746974696f6e206861736e277420656e6460008201527f65642e0000000000000000000000000000000000000000000000000000000000602082015250565b60006154a9602383613fc9565b91506154b48261544d565b604082019050919050565b600060208201905081810360008301526154d88161549c565b9050919050565b7f4e487b7100000000000000000000000000000000000000000000000000000000600052603260045260246000fd5b600061551982614070565b91507fffffffffffffffffffffffffffffffffffffffffffffffffffffffffffffffff820361554b5761554a6150e0565b5b600182019050919050565b600061556182614070565b915061556c83614070565b925082820261557a81614070565b91508282048414831517615591576155906150e0565b5b5092915050565b7f4e487b7100000000000000000000000000000000000000000000000000000000600052601260045260246000fd5b60006155d282614070565b91506155dd83614070565b9250826155ed576155ec615598565b5b828204905092915050565b600060608201905061560d6000830186614105565b61561a602083018561419b565b615627604083018461419b565b949350505050565b600081549050919050565b60008190508160005260206000209050919050565b60008160001c9050919050565b600073ffffffffffffffffffffffffffffffffffffffff82169050919050565b600061568f61568a8361564f565b61565c565b9050919050565b60006156a2825461567c565b9050919050565b6000600182019050919050565b60006156c18261562f565b6156cb8185614460565b93506156d68361563a565b8060005b8381101561570e576156eb82615696565b6156f58882614490565b9750615700836156a9565b9250506001810190506156da565b5085935050505092915050565b7f436f6d7065746974696f6e20456e6465642e0000000000000000000000000000600082015250565b6000615751601283613fc9565b915061575c8261571b565b602082019050919050565b6000604082019050818103600083015261578181846156b6565b9050818103602083015261579481615744565b905092915050565b7f557365722068617320616c7265616479206d696e7465642e20204f6e6c79206f60008201527f6e65206d696e7420706572207573657220616c6c6f7765642070657220636f6d60208201527f7065746974696f6e2e0000000000000000000000000000000000000000000000604082015250565b600061581e604983613fc9565b91506158298261579c565b606082019050919050565b6000602082019050818103600083015261584d81615811565b9050919050565b7f4552433732313a207472616e736665722066726f6d20696e636f72726563742060008201527f6f776e6572000000000000000000000000000000000000000000000000000000602082015250565b60006158b0602583613fc9565b91506158bb82615854565b604082019050919050565b600060208201905081810360008301526158df816158a3565b9050919050565b7f4552433732313a207472616e7366657220746f20746865207a65726f2061646460008201527f7265737300000000000000000000000000000000000000000000000000000000602082015250565b6000615942602483613fc9565b915061594d826158e6565b604082019050919050565b6000602082019050818103600083015261597181615935565b9050919050565b7f4552433732313a20617070726f766520746f2063616c6c657200000000000000600082015250565b60006159ae601983613fc9565b91506159b982615978565b602082019050919050565b600060208201905081810360008301526159dd816159a1565b9050919050565b7f4552433732313a207472616e7366657220746f206e6f6e20455243373231526560008201527f63656976657220696d706c656d656e7465720000000000000000000000000000602082015250565b6000615a40603283613fc9565b9150615a4b826159e4565b604082019050919050565b60006020820190508181036000830152615a6f81615a33565b9050919050565b7f4552433732313a206d696e7420746f20746865207a65726f2061646472657373600082015250565b6000615aac602083613fc9565b9150615ab782615a76565b602082019050919050565b60006020820190508181036000830152615adb81615a9f565b9050919050565b7f4552433732313a20746f6b656e20616c7265616479206d696e74656400000000600082015250565b6000615b18601c83613fc9565b9150615b2382615ae2565b602082019050919050565b60006020820190508181036000830152615b4781615b0b565b9050919050565b7f45524337323155524953746f726167653a2055524920736574206f66206e6f6e60008201527f6578697374656e7420746f6b656e000000000000000000000000000000000000602082015250565b6000615baa602e83613fc9565b9150615bb582615b4e565b604082019050919050565b60006020820190508181036000830152615bd981615b9d565b9050919050565b600081519050919050565b600082825260208201905092915050565b6000615c0782615be0565b615c118185615beb565b9350615c21818560208601613fda565b615c2a81614004565b840191505092915050565b6000608082019050615c4a6000830187614105565b615c576020830186614105565b615c64604083018561419b565b8181036060830152615c768184615bfc565b905095945050505050565b600081519050615c9081613f2f565b92915050565b600060208284031215615cac57615cab613ef9565b5b6000615cba84828501615c81565b9150509291505056fea2646970667358221220e4d3be99b4ee9165dbaf4e82a0d87bc600802bcdc53d312c495cf949ebe70c8564736f6c63430008110033",
  "linkReferences": {},
  "deployedLinkReferences": {}
}