{
  "_format": "hh-sol-artifact-1",
  "contractName": "Competition",
  "sourceName": "contracts/Competition.sol",
  "abi": [
    {
      "inputs": [],
      "stateMutability": "nonpayable",
      "type": "constructor"
    },
    {
      "inputs": [],
      "name": "AlreadyMinted",
      "type": "error"
    },
    {
      "inputs": [],
      "name": "AlreadyPurchasedTicket",
      "type": "error"
    },
    {
      "inputs": [],
      "name": "AlreadyVoted",
      "type": "error"
    },
    {
      "inputs": [],
      "name": "CannotVoteForSelf",
      "type": "error"
    },
    {
      "inputs": [],
      "name": "FirstCompetitionNotEnded",
      "type": "error"
    },
    {
      "inputs": [],
      "name": "IncorrectPaymentAmount",
      "type": "error"
    },
    {
      "inputs": [],
      "name": "NoSpotsLeft",
      "type": "error"
    },
    {
      "inputs": [],
      "name": "NotAdminOrOwner",
      "type": "error"
    },
    {
      "inputs": [],
      "name": "NotInCompetition",
      "type": "error"
    },
    {
      "inputs": [],
      "name": "NotOwner",
      "type": "error"
    },
    {
      "anonymous": false,
      "inputs": [
        {
          "indexed": true,
          "internalType": "address",
          "name": "owner",
          "type": "address"
        },
        {
          "indexed": true,
          "internalType": "address",
          "name": "approved",
          "type": "address"
        },
        {
          "indexed": true,
          "internalType": "uint256",
          "name": "tokenId",
          "type": "uint256"
        }
      ],
      "name": "Approval",
      "type": "event"
    },
    {
      "anonymous": false,
      "inputs": [
        {
          "indexed": true,
          "internalType": "address",
          "name": "owner",
          "type": "address"
        },
        {
          "indexed": true,
          "internalType": "address",
          "name": "operator",
          "type": "address"
        },
        {
          "indexed": false,
          "internalType": "bool",
          "name": "approved",
          "type": "bool"
        }
      ],
      "name": "ApprovalForAll",
      "type": "event"
    },
    {
      "anonymous": false,
      "inputs": [
        {
          "indexed": true,
          "internalType": "address",
          "name": "from",
          "type": "address"
        },
        {
          "indexed": true,
          "internalType": "address",
          "name": "to",
          "type": "address"
        },
        {
          "indexed": true,
          "internalType": "uint256",
          "name": "tokenId",
          "type": "uint256"
        }
      ],
      "name": "Transfer",
      "type": "event"
    },
    {
      "inputs": [
        {
          "internalType": "address",
          "name": "admin",
          "type": "address"
        }
      ],
      "name": "addAdmin",
      "outputs": [],
      "stateMutability": "nonpayable",
      "type": "function"
    },
    {
      "inputs": [
        {
          "internalType": "address",
          "name": "to",
          "type": "address"
        },
        {
          "internalType": "uint256",
          "name": "tokenId",
          "type": "uint256"
        }
      ],
      "name": "approve",
      "outputs": [],
      "stateMutability": "nonpayable",
      "type": "function"
    },
    {
      "inputs": [
        {
          "internalType": "address",
          "name": "owner",
          "type": "address"
        }
      ],
      "name": "balanceOf",
      "outputs": [
        {
          "internalType": "uint256",
          "name": "",
          "type": "uint256"
        }
      ],
      "stateMutability": "view",
      "type": "function"
    },
    {
      "inputs": [],
      "name": "buyin",
      "outputs": [],
      "stateMutability": "payable",
      "type": "function"
    },
    {
      "inputs": [],
      "name": "cancelCompetition",
      "outputs": [],
      "stateMutability": "nonpayable",
      "type": "function"
    },
    {
      "inputs": [],
      "name": "checkIfAdmin",
      "outputs": [
        {
          "internalType": "bool",
          "name": "",
          "type": "bool"
        }
      ],
      "stateMutability": "view",
      "type": "function"
    },
    {
      "inputs": [],
      "name": "checkIfOwner",
      "outputs": [
        {
          "internalType": "bool",
          "name": "",
          "type": "bool"
        }
      ],
      "stateMutability": "view",
      "type": "function"
    },
    {
      "inputs": [
        {
          "internalType": "address",
          "name": "admin",
          "type": "address"
        }
      ],
      "name": "delAdmin",
      "outputs": [],
      "stateMutability": "nonpayable",
      "type": "function"
    },
    {
      "inputs": [],
      "name": "endCompetition",
      "outputs": [],
      "stateMutability": "nonpayable",
      "type": "function"
    },
    {
      "inputs": [],
      "name": "getAllIds",
      "outputs": [
        {
          "internalType": "uint256[]",
          "name": "",
          "type": "uint256[]"
        }
      ],
      "stateMutability": "view",
      "type": "function"
    },
    {
      "inputs": [],
      "name": "getAllUsers",
      "outputs": [
        {
          "internalType": "address[]",
          "name": "",
          "type": "address[]"
        }
      ],
      "stateMutability": "view",
      "type": "function"
    },
    {
      "inputs": [
        {
          "internalType": "uint256",
          "name": "tokenId",
          "type": "uint256"
        }
      ],
      "name": "getApproved",
      "outputs": [
        {
          "internalType": "address",
          "name": "",
          "type": "address"
        }
      ],
      "stateMutability": "view",
      "type": "function"
    },
    {
      "inputs": [],
      "name": "getBalanceOfContract",
      "outputs": [
        {
          "internalType": "uint256",
          "name": "",
          "type": "uint256"
        }
      ],
      "stateMutability": "view",
      "type": "function"
    },
    {
      "inputs": [],
      "name": "getCompetitionStats",
      "outputs": [
        {
          "internalType": "uint256",
          "name": "",
          "type": "uint256"
        },
        {
          "internalType": "address[]",
          "name": "",
          "type": "address[]"
        },
        {
          "internalType": "uint256[]",
          "name": "",
          "type": "uint256[]"
        },
        {
          "internalType": "string",
          "name": "",
          "type": "string"
        },
        {
          "internalType": "uint256",
          "name": "",
          "type": "uint256"
        },
        {
          "internalType": "uint256",
          "name": "",
          "type": "uint256"
        },
        {
          "internalType": "bool",
          "name": "",
          "type": "bool"
        },
        {
          "internalType": "bool",
          "name": "",
          "type": "bool"
        }
      ],
      "stateMutability": "view",
      "type": "function"
    },
    {
      "inputs": [
        {
          "internalType": "address",
          "name": "competitors",
          "type": "address"
        }
      ],
      "name": "getCompetitorStats",
      "outputs": [
        {
          "internalType": "address",
          "name": "",
          "type": "address"
        },
        {
          "internalType": "int256",
          "name": "",
          "type": "int256"
        },
        {
          "internalType": "uint256[3]",
          "name": "",
          "type": "uint256[3]"
        },
        {
          "internalType": "uint256",
          "name": "",
          "type": "uint256"
        },
        {
          "internalType": "uint256",
          "name": "",
          "type": "uint256"
        }
      ],
      "stateMutability": "view",
      "type": "function"
    },
    {
      "inputs": [],
      "name": "getIfUserInComp",
      "outputs": [
        {
          "internalType": "bool",
          "name": "",
          "type": "bool"
        }
      ],
      "stateMutability": "view",
      "type": "function"
    },
    {
      "inputs": [],
      "name": "getWinners",
      "outputs": [
        {
          "internalType": "address[]",
          "name": "",
          "type": "address[]"
        }
      ],
      "stateMutability": "view",
      "type": "function"
    },
    {
      "inputs": [
        {
          "internalType": "address",
          "name": "owner",
          "type": "address"
        },
        {
          "internalType": "address",
          "name": "operator",
          "type": "address"
        }
      ],
      "name": "isApprovedForAll",
      "outputs": [
        {
          "internalType": "bool",
          "name": "",
          "type": "bool"
        }
      ],
      "stateMutability": "view",
      "type": "function"
    },
    {
      "inputs": [
        {
          "internalType": "string",
          "name": "tokenURI",
          "type": "string"
        }
      ],
      "name": "mintNFTLogic",
      "outputs": [
        {
          "internalType": "uint256",
          "name": "",
          "type": "uint256"
        }
      ],
      "stateMutability": "payable",
      "type": "function"
    },
    {
      "inputs": [],
      "name": "name",
      "outputs": [
        {
          "internalType": "string",
          "name": "",
          "type": "string"
        }
      ],
      "stateMutability": "view",
      "type": "function"
    },
    {
      "inputs": [
        {
          "internalType": "uint256",
          "name": "tokenId",
          "type": "uint256"
        }
      ],
      "name": "ownerOf",
      "outputs": [
        {
          "internalType": "address",
          "name": "",
          "type": "address"
        }
      ],
      "stateMutability": "view",
      "type": "function"
    },
    {
      "inputs": [
        {
          "internalType": "address",
          "name": "from",
          "type": "address"
        },
        {
          "internalType": "address",
          "name": "to",
          "type": "address"
        },
        {
          "internalType": "uint256",
          "name": "tokenId",
          "type": "uint256"
        }
      ],
      "name": "safeTransferFrom",
      "outputs": [],
      "stateMutability": "nonpayable",
      "type": "function"
    },
    {
      "inputs": [
        {
          "internalType": "address",
          "name": "from",
          "type": "address"
        },
        {
          "internalType": "address",
          "name": "to",
          "type": "address"
        },
        {
          "internalType": "uint256",
          "name": "tokenId",
          "type": "uint256"
        },
        {
          "internalType": "bytes",
          "name": "data",
          "type": "bytes"
        }
      ],
      "name": "safeTransferFrom",
      "outputs": [],
      "stateMutability": "nonpayable",
      "type": "function"
    },
    {
      "inputs": [
        {
          "internalType": "address",
          "name": "operator",
          "type": "address"
        },
        {
          "internalType": "bool",
          "name": "approved",
          "type": "bool"
        }
      ],
      "name": "setApprovalForAll",
      "outputs": [],
      "stateMutability": "nonpayable",
      "type": "function"
    },
    {
      "inputs": [
        {
          "internalType": "uint256",
          "name": "spots",
          "type": "uint256"
        },
        {
          "internalType": "uint256",
          "name": "cost",
          "type": "uint256"
        },
        {
          "internalType": "string",
          "name": "typeComp",
          "type": "string"
        }
      ],
      "name": "startCompetition",
      "outputs": [],
      "stateMutability": "nonpayable",
      "type": "function"
    },
    {
      "inputs": [
        {
          "internalType": "bytes4",
          "name": "interfaceId",
          "type": "bytes4"
        }
      ],
      "name": "supportsInterface",
      "outputs": [
        {
          "internalType": "bool",
          "name": "",
          "type": "bool"
        }
      ],
      "stateMutability": "view",
      "type": "function"
    },
    {
      "inputs": [],
      "name": "symbol",
      "outputs": [
        {
          "internalType": "string",
          "name": "",
          "type": "string"
        }
      ],
      "stateMutability": "view",
      "type": "function"
    },
    {
      "inputs": [
        {
          "internalType": "uint256",
          "name": "tokenId",
          "type": "uint256"
        }
      ],
      "name": "tokenURI",
      "outputs": [
        {
          "internalType": "string",
          "name": "",
          "type": "string"
        }
      ],
      "stateMutability": "view",
      "type": "function"
    },
    {
      "inputs": [
        {
          "internalType": "address",
          "name": "from",
          "type": "address"
        },
        {
          "internalType": "address",
          "name": "to",
          "type": "address"
        },
        {
          "internalType": "uint256",
          "name": "tokenId",
          "type": "uint256"
        }
      ],
      "name": "transferFrom",
      "outputs": [],
      "stateMutability": "nonpayable",
      "type": "function"
    },
    {
      "inputs": [
        {
          "internalType": "address",
          "name": "voteFor",
          "type": "address"
        }
      ],
      "name": "vote",
      "outputs": [],
      "stateMutability": "nonpayable",
      "type": "function"
    },
    {
      "inputs": [],
      "name": "withdrawMoney",
      "outputs": [],
      "stateMutability": "nonpayable",
      "type": "function"
    }
  ],
  "bytecode": "0x6080604052662386f26fc10000600f553480156200001c57600080fd5b506040518060400160405280600b81526020017f776176706f6f6c204e46540000000000000000000000000000000000000000008152506040518060400160405280600481526020017f574156500000000000000000000000000000000000000000000000000000000081525081600090816200009a9190620003a1565b508060019081620000ac9190620003a1565b5050506000600a6000600b54815260200190815260200160002060060160006101000a81548160ff02191690831515021790555033600c60006101000a81548173ffffffffffffffffffffffffffffffffffffffff021916908373ffffffffffffffffffffffffffffffffffffffff16021790555062000488565b600081519050919050565b7f4e487b7100000000000000000000000000000000000000000000000000000000600052604160045260246000fd5b7f4e487b7100000000000000000000000000000000000000000000000000000000600052602260045260246000fd5b60006002820490506001821680620001a957607f821691505b602082108103620001bf57620001be62000161565b5b50919050565b60008190508160005260206000209050919050565b60006020601f8301049050919050565b600082821b905092915050565b600060088302620002297fffffffffffffffffffffffffffffffffffffffffffffffffffffffffffffffff82620001ea565b620002358683620001ea565b95508019841693508086168417925050509392505050565b6000819050919050565b6000819050919050565b6000620002826200027c62000276846200024d565b62000257565b6200024d565b9050919050565b6000819050919050565b6200029e8362000261565b620002b6620002ad8262000289565b848454620001f7565b825550505050565b600090565b620002cd620002be565b620002da81848462000293565b505050565b5b818110156200030257620002f6600082620002c3565b600181019050620002e0565b5050565b601f82111562000351576200031b81620001c5565b6200032684620001da565b8101602085101562000336578190505b6200034e6200034585620001da565b830182620002df565b50505b505050565b600082821c905092915050565b6000620003766000198460080262000356565b1980831691505092915050565b600062000391838362000363565b9150826002028217905092915050565b620003ac8262000127565b67ffffffffffffffff811115620003c857620003c762000132565b5b620003d4825462000190565b620003e182828562000306565b600060209050601f83116001811462000419576000841562000404578287015190505b62000410858262000383565b86555062000480565b601f1984166200042986620001c5565b60005b8281101562000453578489015182556001820191506020850194506020810190506200042c565b868310156200047357848901516200046f601f89168262000363565b8355505b6001600288020188555050505b505050505050565b615da280620004986000396000f3fe6080604052600436106101d85760003560e01c806370a0823111610102578063b88d4fde11610095578063e985e9c511610064578063e985e9c514610671578063ed00e653146106ae578063f5092521146106d9578063f80eca221461071a576101d8565b8063b88d4fde146105b5578063c87b56dd146105de578063df15c37e1461061b578063e2842d7914610646576101d8565b8063a22cb465116100d1578063a22cb46514610518578063a789ab3a14610541578063aaa44e5c14610573578063ac4460021461059e576101d8565b806370a082311461045a578063898de7731461049757806395d89b41146104c2578063a1048e5d146104ed576101d8565b8063295adbb11161017a5780636352211e116101495780636352211e146103c157806369766079146103fe5780636dd7d8ea146104085780637048027514610431576101d8565b8063295adbb11461032f57806342842e0e1461034657806355f1d1721461036f57806362d9185514610398576101d8565b8063095ea7b3116101b6578063095ea7b31461028257806317350629146102ab57806322968885146102db57806323b872dd14610306576101d8565b806301ffc9a7146101dd57806306fdde031461021a578063081812fc14610245575b600080fd5b3480156101e957600080fd5b5061020460048036038101906101ff919061464d565b610731565b6040516102119190614695565b60405180910390f35b34801561022657600080fd5b5061022f610813565b60405161023c9190614740565b60405180910390f35b34801561025157600080fd5b5061026c60048036038101906102679190614798565b6108a5565b6040516102799190614806565b60405180910390f35b34801561028e57600080fd5b506102a960048036038101906102a4919061484d565b6108eb565b005b6102c560048036038101906102c091906149c2565b610a02565b6040516102d29190614a1a565b60405180910390f35b3480156102e757600080fd5b506102f0610dde565b6040516102fd9190614a1a565b60405180910390f35b34801561031257600080fd5b5061032d60048036038101906103289190614a35565b610e72565b005b34801561033b57600080fd5b50610344610ed2565b005b34801561035257600080fd5b5061036d60048036038101906103689190614a35565b6110d0565b005b34801561037b57600080fd5b5061039660048036038101906103919190614a88565b6110f0565b005b3480156103a457600080fd5b506103bf60048036038101906103ba9190614af7565b6113e6565b005b3480156103cd57600080fd5b506103e860048036038101906103e39190614798565b6114de565b6040516103f59190614806565b60405180910390f35b610406611564565b005b34801561041457600080fd5b5061042f600480360381019061042a9190614af7565b611b04565b005b34801561043d57600080fd5b5061045860048036038101906104539190614af7565b611d3a565b005b34801561046657600080fd5b50610481600480360381019061047c9190614af7565b611e77565b60405161048e9190614a1a565b60405180910390f35b3480156104a357600080fd5b506104ac611f2e565b6040516104b99190614695565b60405180910390f35b3480156104ce57600080fd5b506104d7611f96565b6040516104e49190614740565b60405180910390f35b3480156104f957600080fd5b50610502612028565b60405161050f9190614695565b60405180910390f35b34801561052457600080fd5b5061053f600480360381019061053a9190614b50565b61203c565b005b34801561054d57600080fd5b50610556612052565b60405161056a989796959493929190614d0c565b60405180910390f35b34801561057f57600080fd5b506105886122be565b6040516105959190614d9f565b60405180910390f35b3480156105aa57600080fd5b506105b3612316565b005b3480156105c157600080fd5b506105dc60048036038101906105d79190614e62565b6123f8565b005b3480156105ea57600080fd5b5061060560048036038101906106009190614798565b61245a565b6040516106129190614740565b60405180910390f35b34801561062757600080fd5b5061063061256c565b60405161063d9190614ee5565b60405180910390f35b34801561065257600080fd5b5061065b61265d565b6040516106689190614ee5565b60405180910390f35b34801561067d57600080fd5b5061069860048036038101906106939190614f07565b6126eb565b6040516106a59190614695565b60405180910390f35b3480156106ba57600080fd5b506106c361277f565b6040516106d09190614695565b60405180910390f35b3480156106e557600080fd5b5061070060048036038101906106fb9190614af7565b612827565b604051610711959493929190614fe4565b60405180910390f35b34801561072657600080fd5b5061072f6129f5565b005b60007f80ac58cd000000000000000000000000000000000000000000000000000000007bffffffffffffffffffffffffffffffffffffffffffffffffffffffff1916827bffffffffffffffffffffffffffffffffffffffffffffffffffffffff191614806107fc57507f5b5e139f000000000000000000000000000000000000000000000000000000007bffffffffffffffffffffffffffffffffffffffffffffffffffffffff1916827bffffffffffffffffffffffffffffffffffffffffffffffffffffffff1916145b8061080c575061080b8261329a565b5b9050919050565b60606000805461082290615066565b80601f016020809104026020016040519081016040528092919081815260200182805461084e90615066565b801561089b5780601f106108705761010080835404028352916020019161089b565b820191906000526020600020905b81548152906001019060200180831161087e57829003601f168201915b5050505050905090565b60006108b082613304565b6004600083815260200190815260200160002060009054906101000a900473ffffffffffffffffffffffffffffffffffffffff169050919050565b60006108f6826114de565b90508073ffffffffffffffffffffffffffffffffffffffff168373ffffffffffffffffffffffffffffffffffffffff1603610966576040517f08c379a000000000000000000000000000000000000000000000000000000000815260040161095d90615109565b60405180910390fd5b8073ffffffffffffffffffffffffffffffffffffffff1661098561334f565b73ffffffffffffffffffffffffffffffffffffffff1614806109b457506109b3816109ae61334f565b6126eb565b5b6109f3576040517f08c379a00000000000000000000000000000000000000000000000000000000081526004016109ea9061519b565b60405180910390fd5b6109fd8383613357565b505050565b600080610a0d613410565b8015610a7157506001600860003373ffffffffffffffffffffffffffffffffffffffff1673ffffffffffffffffffffffffffffffffffffffff16815260200190815260200160002060000160149054906101000a900463ffffffff1663ffffffff16105b15610b4957610a7f836134e8565b90506001600860003373ffffffffffffffffffffffffffffffffffffffff1673ffffffffffffffffffffffffffffffffffffffff16815260200190815260200160002060000160148282829054906101000a900463ffffffff16610ae391906151fa565b92506101000a81548163ffffffff021916908363ffffffff160217905550600a6000600b54815260200190815260200160002060020181908060018154018082558091505060019003906000526020600020016000909190919091505580915050610dd9565b600f543414610b84576040517f6992e1ff00000000000000000000000000000000000000000000000000000000815260040160405180910390fd5b3373ffffffffffffffffffffffffffffffffffffffff16600860003373ffffffffffffffffffffffffffffffffffffffff1673ffffffffffffffffffffffffffffffffffffffff16815260200190815260200160002060000160009054906101000a900473ffffffffffffffffffffffffffffffffffffffff1673ffffffffffffffffffffffffffffffffffffffff1614610dc957610c21614409565b6040518061010001604052803373ffffffffffffffffffffffffffffffffffffffff168152602001600063ffffffff16815260200160008152602001600060ff168152602001600060030b8152602001600081526020018281526020016000815250600860003373ffffffffffffffffffffffffffffffffffffffff1673ffffffffffffffffffffffffffffffffffffffff16815260200190815260200160002060008201518160000160006101000a81548173ffffffffffffffffffffffffffffffffffffffff021916908373ffffffffffffffffffffffffffffffffffffffff16021790555060208201518160000160146101000a81548163ffffffff021916908363ffffffff1602179055506040820151816001015560608201518160020160006101000a81548160ff021916908360ff16021790555060808201518160020160016101000a81548163ffffffff021916908360030b63ffffffff16021790555060a0820151816003015560c082015181600401906003610da692919061442b565b5060e08201518160070155905050610dbd846134e8565b91508192505050610dd9565b610dd2836134e8565b9050809150505b919050565b6000600c60009054906101000a900473ffffffffffffffffffffffffffffffffffffffff1673ffffffffffffffffffffffffffffffffffffffff163373ffffffffffffffffffffffffffffffffffffffff1603610e3d57479050610e6f565b6040517f30cd747100000000000000000000000000000000000000000000000000000000815260040160405180910390fd5b90565b610e83610e7d61334f565b826135a2565b610ec2576040517f08c379a0000000000000000000000000000000000000000000000000000000008152600401610eb9906152a4565b60405180910390fd5b610ecd838383613637565b505050565b600960003373ffffffffffffffffffffffffffffffffffffffff1673ffffffffffffffffffffffffffffffffffffffff16815260200190815260200160002060000160009054906101000a900473ffffffffffffffffffffffffffffffffffffffff1673ffffffffffffffffffffffffffffffffffffffff163373ffffffffffffffffffffffffffffffffffffffff161480610fbb5750600c60009054906101000a900473ffffffffffffffffffffffffffffffffffffffff1673ffffffffffffffffffffffffffffffffffffffff163373ffffffffffffffffffffffffffffffffffffffff16145b1561109c57600a6000600b54815260200190815260200160002060008082016000610fe6919061446b565b600182016000610ff6919061446b565b600282016000611006919061448c565b6003820160009055600482016000905560058201600090556006820160006101000a81549060ff02191690556006820160016101000a81549060ff021916905560078201600061105691906144ad565b6008820160006101000a81549073ffffffffffffffffffffffffffffffffffffffff02191690556009820160009055600a820160009055600b82016000905550506110ce565b6040517f7bb62a2100000000000000000000000000000000000000000000000000000000815260040160405180910390fd5b565b6110eb838383604051806020016040528060008152506123f8565b505050565b600960003373ffffffffffffffffffffffffffffffffffffffff1673ffffffffffffffffffffffffffffffffffffffff16815260200190815260200160002060000160009054906101000a900473ffffffffffffffffffffffffffffffffffffffff1673ffffffffffffffffffffffffffffffffffffffff163373ffffffffffffffffffffffffffffffffffffffff1614806111d95750600c60009054906101000a900473ffffffffffffffffffffffffffffffffffffffff1673ffffffffffffffffffffffffffffffffffffffff163373ffffffffffffffffffffffffffffffffffffffff16145b156113af57606080604051806101a00160405280838152602001838152602001828152602001858152602001868152602001600b548152602001600115158152602001600015158152602001848152602001600073ffffffffffffffffffffffffffffffffffffffff16815260200160008152602001600081526020016000815250600a6000600b548152602001908152602001600020600082015181600001908051906020019061128c9291906144ed565b5060208201518160010190805190602001906112a99291906144ed565b5060408201518160020190805190602001906112c6929190614577565b50606082015181600301556080820151816004015560a0820151816005015560c08201518160060160006101000a81548160ff02191690831515021790555060e08201518160060160016101000a81548160ff02191690831515021790555061010082015181600701908161133b9190615470565b506101208201518160080160006101000a81548173ffffffffffffffffffffffffffffffffffffffff021916908373ffffffffffffffffffffffffffffffffffffffff160217905550610140820151816009015561016082015181600a015561018082015181600b015590505050506113e1565b6040517f7bb62a2100000000000000000000000000000000000000000000000000000000815260040160405180910390fd5b505050565b600c60009054906101000a900473ffffffffffffffffffffffffffffffffffffffff1673ffffffffffffffffffffffffffffffffffffffff163373ffffffffffffffffffffffffffffffffffffffff16036114a957600960008273ffffffffffffffffffffffffffffffffffffffff1673ffffffffffffffffffffffffffffffffffffffff168152602001908152602001600020600080820160006101000a81549073ffffffffffffffffffffffffffffffffffffffff021916905550506114db565b6040517f30cd747100000000000000000000000000000000000000000000000000000000815260040160405180910390fd5b50565b6000806114ea83613930565b9050600073ffffffffffffffffffffffffffffffffffffffff168173ffffffffffffffffffffffffffffffffffffffff160361155b576040517f08c379a00000000000000000000000000000000000000000000000000000000081526004016115529061558e565b60405180910390fd5b80915050919050565b61156c613410565b156115a3576040517f4748f43600000000000000000000000000000000000000000000000000000000815260040160405180910390fd5b6000600a6000600b54815260200190815260200160002060040154036115f5576040517fb2363d2500000000000000000000000000000000000000000000000000000000815260040160405180910390fd5b600a6000600b548152602001908152602001600020600301543414611646576040517f6992e1ff00000000000000000000000000000000000000000000000000000000815260040160405180910390fd5b3373ffffffffffffffffffffffffffffffffffffffff16600860003373ffffffffffffffffffffffffffffffffffffffff1673ffffffffffffffffffffffffffffffffffffffff16815260200190815260200160002060000160009054906101000a900473ffffffffffffffffffffffffffffffffffffffff1673ffffffffffffffffffffffffffffffffffffffff16146118df576116e3614409565b6040518061010001604052803373ffffffffffffffffffffffffffffffffffffffff168152602001600063ffffffff16815260200160008152602001600160ff168152602001600060030b8152602001600081526020018281526020016000815250600860003373ffffffffffffffffffffffffffffffffffffffff1673ffffffffffffffffffffffffffffffffffffffff16815260200190815260200160002060008201518160000160006101000a81548173ffffffffffffffffffffffffffffffffffffffff021916908373ffffffffffffffffffffffffffffffffffffffff16021790555060208201518160000160146101000a81548163ffffffff021916908363ffffffff1602179055506040820151816001015560608201518160020160006101000a81548160ff021916908360ff16021790555060808201518160020160016101000a81548163ffffffff021916908360030b63ffffffff16021790555060a0820151816003015560c08201518160040190600361186892919061442b565b5060e08201518160070155905050600d339080600181540180825580915050600190039060005260206000200160009091909190916101000a81548173ffffffffffffffffffffffffffffffffffffffff021916908373ffffffffffffffffffffffffffffffffffffffff16021790555050611a03565b6001600860003373ffffffffffffffffffffffffffffffffffffffff1673ffffffffffffffffffffffffffffffffffffffff16815260200190815260200160002060020160006101000a81548160ff021916908360ff1602179055506000600860003373ffffffffffffffffffffffffffffffffffffffff1673ffffffffffffffffffffffffffffffffffffffff16815260200190815260200160002060020160016101000a81548163ffffffff021916908360030b63ffffffff1602179055506000600860003373ffffffffffffffffffffffffffffffffffffffff1673ffffffffffffffffffffffffffffffffffffffff16815260200190815260200160002060000160146101000a81548163ffffffff021916908363ffffffff1602179055505b600a6000600b548152602001908152602001600020600001339080600181540180825580915050600190039060005260206000200160009091909190916101000a81548173ffffffffffffffffffffffffffffffffffffffff021916908373ffffffffffffffffffffffffffffffffffffffff160217905550600a6000600b5481526020019081526020016000206004016000815480929190611aa5906155ae565b9190505550600860003373ffffffffffffffffffffffffffffffffffffffff1673ffffffffffffffffffffffffffffffffffffffff1681526020019081526020016000206007016000815480929190611afd906155d7565b9190505550565b611b0c613410565b15611d05576001600860003373ffffffffffffffffffffffffffffffffffffffff1673ffffffffffffffffffffffffffffffffffffffff16815260200190815260200160002060020160009054906101000a900460ff1660ff1603611cce578073ffffffffffffffffffffffffffffffffffffffff163373ffffffffffffffffffffffffffffffffffffffff1603611bd0576040517fa091116800000000000000000000000000000000000000000000000000000000815260040160405180910390fd5b600860003373ffffffffffffffffffffffffffffffffffffffff1673ffffffffffffffffffffffffffffffffffffffff168152602001908152602001600020600201600081819054906101000a900460ff1680929190611c2f9061562c565b91906101000a81548160ff021916908360ff16021790555050600860008273ffffffffffffffffffffffffffffffffffffffff1673ffffffffffffffffffffffffffffffffffffffff168152602001908152602001600020600201600181819054906101000a900460030b80929190611ca790615662565b91906101000a81548163ffffffff021916908360030b63ffffffff16021790555050611d00565b6040517f7c9a1cf900000000000000000000000000000000000000000000000000000000815260040160405180910390fd5b611d37565b6040517fb0b7521d00000000000000000000000000000000000000000000000000000000815260040160405180910390fd5b50565b600c60009054906101000a900473ffffffffffffffffffffffffffffffffffffffff1673ffffffffffffffffffffffffffffffffffffffff163373ffffffffffffffffffffffffffffffffffffffff1603611e425760405180602001604052808273ffffffffffffffffffffffffffffffffffffffff16815250600960008373ffffffffffffffffffffffffffffffffffffffff1673ffffffffffffffffffffffffffffffffffffffff16815260200190815260200160002060008201518160000160006101000a81548173ffffffffffffffffffffffffffffffffffffffff021916908373ffffffffffffffffffffffffffffffffffffffff160217905550905050611e74565b6040517f30cd747100000000000000000000000000000000000000000000000000000000815260040160405180910390fd5b50565b60008073ffffffffffffffffffffffffffffffffffffffff168273ffffffffffffffffffffffffffffffffffffffff1603611ee7576040517f08c379a0000000000000000000000000000000000000000000000000000000008152600401611ede90615700565b60405180910390fd5b600360008373ffffffffffffffffffffffffffffffffffffffff1673ffffffffffffffffffffffffffffffffffffffff168152602001908152602001600020549050919050565b60003373ffffffffffffffffffffffffffffffffffffffff16600c60009054906101000a900473ffffffffffffffffffffffffffffffffffffffff1673ffffffffffffffffffffffffffffffffffffffff1603611f8e5760019050611f93565b600090505b90565b606060018054611fa590615066565b80601f0160208091040260200160405190810160405280929190818152602001828054611fd190615066565b801561201e5780601f10611ff35761010080835404028352916020019161201e565b820191906000526020600020905b81548152906001019060200180831161200157829003601f168201915b5050505050905090565b600080612033613410565b90508091505090565b61204e61204761334f565b838361396d565b5050565b60006060806060600080600080600a6000600b54815260200190815260200160002060050154600a6000600b548152602001908152602001600020600001600a6000600b548152602001908152602001600020600201600a6000600b548152602001908152602001600020600701600a6000600b54815260200190815260200160002060040154600a6000600b54815260200190815260200160002060030154600a6000600b54815260200190815260200160002060060160009054906101000a900460ff16600a6000600b54815260200190815260200160002060060160019054906101000a900460ff16868054806020026020016040519081016040528092919081815260200182805480156121bf57602002820191906000526020600020905b8160009054906101000a900473ffffffffffffffffffffffffffffffffffffffff1673ffffffffffffffffffffffffffffffffffffffff1681526020019060010190808311612175575b505050505096508580548060200260200160405190810160405280929190818152602001828054801561221157602002820191906000526020600020905b8154815260200190600101908083116121fd575b5050505050955084805461222490615066565b80601f016020809104026020016040519081016040528092919081815260200182805461225090615066565b801561229d5780601f106122725761010080835404028352916020019161229d565b820191906000526020600020905b81548152906001019060200180831161228057829003601f168201915b50505050509450975097509750975097509750975097509091929394959697565b6060600e80548060200260200160405190810160405280929190818152602001828054801561230c57602002820191906000526020600020905b8154815260200190600101908083116122f8575b5050505050905090565b600c60009054906101000a900473ffffffffffffffffffffffffffffffffffffffff1673ffffffffffffffffffffffffffffffffffffffff163373ffffffffffffffffffffffffffffffffffffffff16036123c45760003390508073ffffffffffffffffffffffffffffffffffffffff166108fc612392610dde565b9081150290604051600060405180830381858888f193505050501580156123bd573d6000803e3d6000fd5b50506123f6565b6040517f30cd747100000000000000000000000000000000000000000000000000000000815260040160405180910390fd5b565b61240961240361334f565b836135a2565b612448576040517f08c379a000000000000000000000000000000000000000000000000000000000815260040161243f906152a4565b60405180910390fd5b61245484848484613ad9565b50505050565b606061246582613304565b600060066000848152602001908152602001600020805461248590615066565b80601f01602080910402602001604051908101604052809291908181526020018280546124b190615066565b80156124fe5780601f106124d3576101008083540402835291602001916124fe565b820191906000526020600020905b8154815290600101906020018083116124e157829003601f168201915b50505050509050600061250f613b35565b90506000815103612524578192505050612567565b60008251111561255957808260405160200161254192919061575c565b60405160208183030381529060405292505050612567565b61256284613b4c565b925050505b919050565b60606001600b541061262857600a60006001600b5461258b9190615780565b815260200190815260200160002060010180548060200260200160405190810160405280929190818152602001828054801561261c57602002820191906000526020600020905b8160009054906101000a900473ffffffffffffffffffffffffffffffffffffffff1673ffffffffffffffffffffffffffffffffffffffff16815260200190600101908083116125d2575b5050505050905061265a565b6040517ffb81554100000000000000000000000000000000000000000000000000000000815260040160405180910390fd5b90565b6060600d8054806020026020016040519081016040528092919081815260200182805480156126e157602002820191906000526020600020905b8160009054906101000a900473ffffffffffffffffffffffffffffffffffffffff1673ffffffffffffffffffffffffffffffffffffffff1681526020019060010190808311612697575b5050505050905090565b6000600560008473ffffffffffffffffffffffffffffffffffffffff1673ffffffffffffffffffffffffffffffffffffffff16815260200190815260200160002060008373ffffffffffffffffffffffffffffffffffffffff1673ffffffffffffffffffffffffffffffffffffffff16815260200190815260200160002060009054906101000a900460ff16905092915050565b6000600960003373ffffffffffffffffffffffffffffffffffffffff1673ffffffffffffffffffffffffffffffffffffffff16815260200190815260200160002060000160009054906101000a900473ffffffffffffffffffffffffffffffffffffffff1673ffffffffffffffffffffffffffffffffffffffff163373ffffffffffffffffffffffffffffffffffffffff160361281f5760019050612824565b600090505b90565b600080612832614409565b600080600860008773ffffffffffffffffffffffffffffffffffffffff1673ffffffffffffffffffffffffffffffffffffffff16815260200190815260200160002060000160009054906101000a900473ffffffffffffffffffffffffffffffffffffffff16600860008873ffffffffffffffffffffffffffffffffffffffff1673ffffffffffffffffffffffffffffffffffffffff16815260200190815260200160002060030154600860008973ffffffffffffffffffffffffffffffffffffffff1673ffffffffffffffffffffffffffffffffffffffff168152602001908152602001600020600401600860008a73ffffffffffffffffffffffffffffffffffffffff1673ffffffffffffffffffffffffffffffffffffffff16815260200190815260200160002060070154600860008b73ffffffffffffffffffffffffffffffffffffffff1673ffffffffffffffffffffffffffffffffffffffff16815260200190815260200160002060010154826003806020026040519081016040528092919082600380156129db576020028201915b8154815260200190600101908083116129c7575b505050505092509450945094509450945091939590929450565b600960003373ffffffffffffffffffffffffffffffffffffffff1673ffffffffffffffffffffffffffffffffffffffff16815260200190815260200160002060000160009054906101000a900473ffffffffffffffffffffffffffffffffffffffff1673ffffffffffffffffffffffffffffffffffffffff163373ffffffffffffffffffffffffffffffffffffffff161480612ade5750600c60009054906101000a900473ffffffffffffffffffffffffffffffffffffffff1673ffffffffffffffffffffffffffffffffffffffff163373ffffffffffffffffffffffffffffffffffffffff16145b15613266576002600a6000600b548152602001908152602001600020600b0154116130165760005b600a6000600b54815260200190815260200160002060000180549050811015612e7d57600a6000600b5481526020019081526020016000206009015460086000600a6000600b5481526020019081526020016000206000018481548110612b7057612b6f6157b4565b5b9060005260206000200160009054906101000a900473ffffffffffffffffffffffffffffffffffffffff1673ffffffffffffffffffffffffffffffffffffffff1673ffffffffffffffffffffffffffffffffffffffff16815260200190815260200160002060020160019054906101000a900460030b60030b138015612c775750600073ffffffffffffffffffffffffffffffffffffffff16600a6000600b5481526020019081526020016000206000018281548110612c3357612c326157b4565b5b9060005260206000200160009054906101000a900473ffffffffffffffffffffffffffffffffffffffff1673ffffffffffffffffffffffffffffffffffffffff1614155b15612e6a5760086000600a6000600b5481526020019081526020016000206000018381548110612caa57612ca96157b4565b5b9060005260206000200160009054906101000a900473ffffffffffffffffffffffffffffffffffffffff1673ffffffffffffffffffffffffffffffffffffffff1673ffffffffffffffffffffffffffffffffffffffff16815260200190815260200160002060000160009054906101000a900473ffffffffffffffffffffffffffffffffffffffff16600a6000600b54815260200190815260200160002060080160006101000a81548173ffffffffffffffffffffffffffffffffffffffff021916908373ffffffffffffffffffffffffffffffffffffffff16021790555060086000600a6000600b5481526020019081526020016000206000018381548110612db757612db66157b4565b5b9060005260206000200160009054906101000a900473ffffffffffffffffffffffffffffffffffffffff1673ffffffffffffffffffffffffffffffffffffffff1673ffffffffffffffffffffffffffffffffffffffff16815260200190815260200160002060020160019054906101000a900460030b60030b600a6000600b5481526020019081526020016000206009018190555080600a6000600b548152602001908152602001600020600a01819055505b8080612e75906155d7565b915050612b06565b50600a6000600b548152602001908152602001600020600101600a6000600b54815260200190815260200160002060080160009054906101000a900473ffffffffffffffffffffffffffffffffffffffff169080600181540180825580915050600190039060005260206000200160009091909190916101000a81548173ffffffffffffffffffffffffffffffffffffffff021916908373ffffffffffffffffffffffffffffffffffffffff160217905550600a6000600b548152602001908152602001600020600001600a6000600b548152602001908152602001600020600a015481548110612f7157612f706157b4565b5b9060005260206000200160006101000a81549073ffffffffffffffffffffffffffffffffffffffff02191690557fffffffffffffffffffffffffffffffffffffffffffffffffffffffffffffffff600a6000600b54815260200190815260200160002060090181905550600a6000600b548152602001908152602001600020600b016000815480929190613004906155d7565b91905055506130116129f5565b613261565b60006002600a6000600b54815260200190815260200160002060000180549050600a6000600b5481526020019081526020016000206003015461305991906157e3565b6130639190615854565b905060005b600a6000600b5481526020019081526020016000206001018054905081101561320d576002826130989190615854565b91506000600a6000600b54815260200190815260200160002060010182815481106130c6576130c56157b4565b5b9060005260206000200160009054906101000a900473ffffffffffffffffffffffffffffffffffffffff1690508073ffffffffffffffffffffffffffffffffffffffff166108fc849081150290604051600060405180830381858888f19350505050158015613139573d6000803e3d6000fd5b5060086000600a6000600b5481526020019081526020016000206001018481548110613168576131676157b4565b5b9060005260206000200160009054906101000a900473ffffffffffffffffffffffffffffffffffffffff1673ffffffffffffffffffffffffffffffffffffffff1673ffffffffffffffffffffffffffffffffffffffff16815260200190815260200160002060040182600381106131e2576131e16157b4565b5b0160008154809291906131f4906155d7565b9190505550508080613205906155d7565b915050613068565b50613216613bb4565b600b6000815480929190613229906155d7565b91905055506001600a6000600b54815260200190815260200160002060060160016101000a81548160ff021916908315150217905550505b613298565b6040517f7bb62a2100000000000000000000000000000000000000000000000000000000815260040160405180910390fd5b565b60007f01ffc9a7000000000000000000000000000000000000000000000000000000007bffffffffffffffffffffffffffffffffffffffffffffffffffffffff1916827bffffffffffffffffffffffffffffffffffffffffffffffffffffffff1916149050919050565b61330d81613d43565b61334c576040517f08c379a00000000000000000000000000000000000000000000000000000000081526004016133439061558e565b60405180910390fd5b50565b600033905090565b816004600083815260200190815260200160002060006101000a81548173ffffffffffffffffffffffffffffffffffffffff021916908373ffffffffffffffffffffffffffffffffffffffff160217905550808273ffffffffffffffffffffffffffffffffffffffff166133ca836114de565b73ffffffffffffffffffffffffffffffffffffffff167f8c5be1e5ebec7d5bd14f71427d1e84f3dd0314c0f7b2291e5b200ac8c7c3b92560405160405180910390a45050565b600080600090505b600a6000600b548152602001908152602001600020600001805490508110156134df57600a6000600b5481526020019081526020016000206000018181548110613465576134646157b4565b5b9060005260206000200160009054906101000a900473ffffffffffffffffffffffffffffffffffffffff1673ffffffffffffffffffffffffffffffffffffffff163373ffffffffffffffffffffffffffffffffffffffff16036134cc5760019150506134e5565b80806134d7906155d7565b915050613418565b50600090505b90565b60006134f46007613d84565b60006135006007613d9a565b905061350c3382613da8565b6135168184613fc5565b6001600860003373ffffffffffffffffffffffffffffffffffffffff1673ffffffffffffffffffffffffffffffffffffffff16815260200190815260200160002060010160008282546135699190615885565b92505081905550600e81908060018154018082558091505060019003906000526020600020016000909190919091505580915050919050565b6000806135ae836114de565b90508073ffffffffffffffffffffffffffffffffffffffff168473ffffffffffffffffffffffffffffffffffffffff1614806135f057506135ef81856126eb565b5b8061362e57508373ffffffffffffffffffffffffffffffffffffffff16613616846108a5565b73ffffffffffffffffffffffffffffffffffffffff16145b91505092915050565b8273ffffffffffffffffffffffffffffffffffffffff16613657826114de565b73ffffffffffffffffffffffffffffffffffffffff16146136ad576040517f08c379a00000000000000000000000000000000000000000000000000000000081526004016136a49061592b565b60405180910390fd5b600073ffffffffffffffffffffffffffffffffffffffff168273ffffffffffffffffffffffffffffffffffffffff160361371c576040517f08c379a0000000000000000000000000000000000000000000000000000000008152600401613713906159bd565b60405180910390fd5b6137298383836001614032565b8273ffffffffffffffffffffffffffffffffffffffff16613749826114de565b73ffffffffffffffffffffffffffffffffffffffff161461379f576040517f08c379a00000000000000000000000000000000000000000000000000000000081526004016137969061592b565b60405180910390fd5b6004600082815260200190815260200160002060006101000a81549073ffffffffffffffffffffffffffffffffffffffff02191690556001600360008573ffffffffffffffffffffffffffffffffffffffff1673ffffffffffffffffffffffffffffffffffffffff168152602001908152602001600020600082825403925050819055506001600360008473ffffffffffffffffffffffffffffffffffffffff1673ffffffffffffffffffffffffffffffffffffffff16815260200190815260200160002060008282540192505081905550816002600083815260200190815260200160002060006101000a81548173ffffffffffffffffffffffffffffffffffffffff021916908373ffffffffffffffffffffffffffffffffffffffff160217905550808273ffffffffffffffffffffffffffffffffffffffff168473ffffffffffffffffffffffffffffffffffffffff167fddf252ad1be2c89b69c2b068fc378daa952ba7f163c4a11628f55a4df523b3ef60405160405180910390a461392b8383836001614038565b505050565b60006002600083815260200190815260200160002060009054906101000a900473ffffffffffffffffffffffffffffffffffffffff169050919050565b8173ffffffffffffffffffffffffffffffffffffffff168373ffffffffffffffffffffffffffffffffffffffff16036139db576040517f08c379a00000000000000000000000000000000000000000000000000000000081526004016139d290615a29565b60405180910390fd5b80600560008573ffffffffffffffffffffffffffffffffffffffff1673ffffffffffffffffffffffffffffffffffffffff16815260200190815260200160002060008473ffffffffffffffffffffffffffffffffffffffff1673ffffffffffffffffffffffffffffffffffffffff16815260200190815260200160002060006101000a81548160ff0219169083151502179055508173ffffffffffffffffffffffffffffffffffffffff168373ffffffffffffffffffffffffffffffffffffffff167f17307eab39ab6107e8899845ad3d59bd9653f200f220920489ca2b5937696c3183604051613acc9190614695565b60405180910390a3505050565b613ae4848484613637565b613af08484848461403e565b613b2f576040517f08c379a0000000000000000000000000000000000000000000000000000000008152600401613b2690615abb565b60405180910390fd5b50505050565b606060405180602001604052806000815250905090565b6060613b5782613304565b6000613b61613b35565b90506000815111613b815760405180602001604052806000815250613bac565b80613b8b846141c5565b604051602001613b9c92919061575c565b6040516020818303038152906040525b915050919050565b60005b600a6000600b54815260200190815260200160002060000180549050811015613d405760086000600a6000600b5481526020019081526020016000206000018381548110613c0857613c076157b4565b5b9060005260206000200160009054906101000a900473ffffffffffffffffffffffffffffffffffffffff1673ffffffffffffffffffffffffffffffffffffffff1673ffffffffffffffffffffffffffffffffffffffff16815260200190815260200160002060020160019054906101000a900460030b60030b60086000600a6000600b5481526020019081526020016000206000018481548110613caf57613cae6157b4565b5b9060005260206000200160009054906101000a900473ffffffffffffffffffffffffffffffffffffffff1673ffffffffffffffffffffffffffffffffffffffff1673ffffffffffffffffffffffffffffffffffffffff1681526020019081526020016000206003016000828254613d269190615adb565b925050819055508080613d38906155d7565b915050613bb7565b50565b60008073ffffffffffffffffffffffffffffffffffffffff16613d6583613930565b73ffffffffffffffffffffffffffffffffffffffff1614159050919050565b6001816000016000828254019250508190555050565b600081600001549050919050565b600073ffffffffffffffffffffffffffffffffffffffff168273ffffffffffffffffffffffffffffffffffffffff1603613e17576040517f08c379a0000000000000000000000000000000000000000000000000000000008152600401613e0e90615b6b565b60405180910390fd5b613e2081613d43565b15613e60576040517f08c379a0000000000000000000000000000000000000000000000000000000008152600401613e5790615bd7565b60405180910390fd5b613e6e600083836001614032565b613e7781613d43565b15613eb7576040517f08c379a0000000000000000000000000000000000000000000000000000000008152600401613eae90615bd7565b60405180910390fd5b6001600360008473ffffffffffffffffffffffffffffffffffffffff1673ffffffffffffffffffffffffffffffffffffffff16815260200190815260200160002060008282540192505081905550816002600083815260200190815260200160002060006101000a81548173ffffffffffffffffffffffffffffffffffffffff021916908373ffffffffffffffffffffffffffffffffffffffff160217905550808273ffffffffffffffffffffffffffffffffffffffff16600073ffffffffffffffffffffffffffffffffffffffff167fddf252ad1be2c89b69c2b068fc378daa952ba7f163c4a11628f55a4df523b3ef60405160405180910390a4613fc1600083836001614038565b5050565b613fce82613d43565b61400d576040517f08c379a000000000000000000000000000000000000000000000000000000000815260040161400490615c69565b60405180910390fd5b8060066000848152602001908152602001600020908161402d9190615470565b505050565b50505050565b50505050565b600061405f8473ffffffffffffffffffffffffffffffffffffffff16614293565b156141b8578373ffffffffffffffffffffffffffffffffffffffff1663150b7a0261408861334f565b8786866040518563ffffffff1660e01b81526004016140aa9493929190615cde565b6020604051808303816000875af19250505080156140e657506040513d601f19601f820116820180604052508101906140e39190615d3f565b60015b614168573d8060008114614116576040519150601f19603f3d011682016040523d82523d6000602084013e61411b565b606091505b506000815103614160576040517f08c379a000000000000000000000000000000000000000000000000000000000815260040161415790615abb565b60405180910390fd5b805181602001fd5b63150b7a0260e01b7bffffffffffffffffffffffffffffffffffffffffffffffffffffffff1916817bffffffffffffffffffffffffffffffffffffffffffffffffffffffff1916149150506141bd565b600190505b949350505050565b6060600060016141d4846142b6565b01905060008167ffffffffffffffff8111156141f3576141f2614897565b5b6040519080825280601f01601f1916602001820160405280156142255781602001600182028036833780820191505090505b509050600082602001820190505b600115614288578080600190039150507f3031323334353637383961626364656600000000000000000000000000000000600a86061a8153600a858161427c5761427b615825565b5b04945060008503614233575b819350505050919050565b6000808273ffffffffffffffffffffffffffffffffffffffff163b119050919050565b600080600090507a184f03e93ff9f4daa797ed6e38ed64bf6a1f0100000000000000008310614314577a184f03e93ff9f4daa797ed6e38ed64bf6a1f010000000000000000838161430a57614309615825565b5b0492506040810190505b6d04ee2d6d415b85acef81000000008310614351576d04ee2d6d415b85acef8100000000838161434757614346615825565b5b0492506020810190505b662386f26fc10000831061438057662386f26fc10000838161437657614375615825565b5b0492506010810190505b6305f5e10083106143a9576305f5e100838161439f5761439e615825565b5b0492506008810190505b61271083106143ce5761271083816143c4576143c3615825565b5b0492506004810190505b606483106143f157606483816143e7576143e6615825565b5b0492506002810190505b600a8310614400576001810190505b80915050919050565b6040518060600160405280600390602082028036833780820191505090505090565b826003810192821561445a579160200282015b8281111561445957825182559160200191906001019061443e565b5b50905061446791906145c4565b5090565b508054600082559060005260206000209081019061448991906145c4565b50565b50805460008255906000526020600020908101906144aa91906145c4565b50565b5080546144b990615066565b6000825580601f106144cb57506144ea565b601f0160209004906000526020600020908101906144e991906145c4565b5b50565b828054828255906000526020600020908101928215614566579160200282015b828111156145655782518260006101000a81548173ffffffffffffffffffffffffffffffffffffffff021916908373ffffffffffffffffffffffffffffffffffffffff1602179055509160200191906001019061450d565b5b50905061457391906145c4565b5090565b8280548282559060005260206000209081019282156145b3579160200282015b828111156145b2578251825591602001919060010190614597565b5b5090506145c091906145c4565b5090565b5b808211156145dd5760008160009055506001016145c5565b5090565b6000604051905090565b600080fd5b600080fd5b60007fffffffff0000000000000000000000000000000000000000000000000000000082169050919050565b61462a816145f5565b811461463557600080fd5b50565b60008135905061464781614621565b92915050565b600060208284031215614663576146626145eb565b5b600061467184828501614638565b91505092915050565b60008115159050919050565b61468f8161467a565b82525050565b60006020820190506146aa6000830184614686565b92915050565b600081519050919050565b600082825260208201905092915050565b60005b838110156146ea5780820151818401526020810190506146cf565b60008484015250505050565b6000601f19601f8301169050919050565b6000614712826146b0565b61471c81856146bb565b935061472c8185602086016146cc565b614735816146f6565b840191505092915050565b6000602082019050818103600083015261475a8184614707565b905092915050565b6000819050919050565b61477581614762565b811461478057600080fd5b50565b6000813590506147928161476c565b92915050565b6000602082840312156147ae576147ad6145eb565b5b60006147bc84828501614783565b91505092915050565b600073ffffffffffffffffffffffffffffffffffffffff82169050919050565b60006147f0826147c5565b9050919050565b614800816147e5565b82525050565b600060208201905061481b60008301846147f7565b92915050565b61482a816147e5565b811461483557600080fd5b50565b60008135905061484781614821565b92915050565b60008060408385031215614864576148636145eb565b5b600061487285828601614838565b925050602061488385828601614783565b9150509250929050565b600080fd5b600080fd5b7f4e487b7100000000000000000000000000000000000000000000000000000000600052604160045260246000fd5b6148cf826146f6565b810181811067ffffffffffffffff821117156148ee576148ed614897565b5b80604052505050565b60006149016145e1565b905061490d82826148c6565b919050565b600067ffffffffffffffff82111561492d5761492c614897565b5b614936826146f6565b9050602081019050919050565b82818337600083830152505050565b600061496561496084614912565b6148f7565b90508281526020810184848401111561498157614980614892565b5b61498c848285614943565b509392505050565b600082601f8301126149a9576149a861488d565b5b81356149b9848260208601614952565b91505092915050565b6000602082840312156149d8576149d76145eb565b5b600082013567ffffffffffffffff8111156149f6576149f56145f0565b5b614a0284828501614994565b91505092915050565b614a1481614762565b82525050565b6000602082019050614a2f6000830184614a0b565b92915050565b600080600060608486031215614a4e57614a4d6145eb565b5b6000614a5c86828701614838565b9350506020614a6d86828701614838565b9250506040614a7e86828701614783565b9150509250925092565b600080600060608486031215614aa157614aa06145eb565b5b6000614aaf86828701614783565b9350506020614ac086828701614783565b925050604084013567ffffffffffffffff811115614ae157614ae06145f0565b5b614aed86828701614994565b9150509250925092565b600060208284031215614b0d57614b0c6145eb565b5b6000614b1b84828501614838565b91505092915050565b614b2d8161467a565b8114614b3857600080fd5b50565b600081359050614b4a81614b24565b92915050565b60008060408385031215614b6757614b666145eb565b5b6000614b7585828601614838565b9250506020614b8685828601614b3b565b9150509250929050565b600081519050919050565b600082825260208201905092915050565b6000819050602082019050919050565b614bc5816147e5565b82525050565b6000614bd78383614bbc565b60208301905092915050565b6000602082019050919050565b6000614bfb82614b90565b614c058185614b9b565b9350614c1083614bac565b8060005b83811015614c41578151614c288882614bcb565b9750614c3383614be3565b925050600181019050614c14565b5085935050505092915050565b600081519050919050565b600082825260208201905092915050565b6000819050602082019050919050565b614c8381614762565b82525050565b6000614c958383614c7a565b60208301905092915050565b6000602082019050919050565b6000614cb982614c4e565b614cc38185614c59565b9350614cce83614c6a565b8060005b83811015614cff578151614ce68882614c89565b9750614cf183614ca1565b925050600181019050614cd2565b5085935050505092915050565b600061010082019050614d22600083018b614a0b565b8181036020830152614d34818a614bf0565b90508181036040830152614d488189614cae565b90508181036060830152614d5c8188614707565b9050614d6b6080830187614a0b565b614d7860a0830186614a0b565b614d8560c0830185614686565b614d9260e0830184614686565b9998505050505050505050565b60006020820190508181036000830152614db98184614cae565b905092915050565b600067ffffffffffffffff821115614ddc57614ddb614897565b5b614de5826146f6565b9050602081019050919050565b6000614e05614e0084614dc1565b6148f7565b905082815260208101848484011115614e2157614e20614892565b5b614e2c848285614943565b509392505050565b600082601f830112614e4957614e4861488d565b5b8135614e59848260208601614df2565b91505092915050565b60008060008060808587031215614e7c57614e7b6145eb565b5b6000614e8a87828801614838565b9450506020614e9b87828801614838565b9350506040614eac87828801614783565b925050606085013567ffffffffffffffff811115614ecd57614ecc6145f0565b5b614ed987828801614e34565b91505092959194509250565b60006020820190508181036000830152614eff8184614bf0565b905092915050565b60008060408385031215614f1e57614f1d6145eb565b5b6000614f2c85828601614838565b9250506020614f3d85828601614838565b9150509250929050565b6000819050919050565b614f5a81614f47565b82525050565b600060039050919050565b600081905092915050565b6000819050919050565b6000602082019050919050565b614f9681614f60565b614fa08184614f6b565b9250614fab82614f76565b8060005b83811015614fdc578151614fc38782614c89565b9650614fce83614f80565b925050600181019050614faf565b505050505050565b600060e082019050614ff960008301886147f7565b6150066020830187614f51565b6150136040830186614f8d565b61502060a0830185614a0b565b61502d60c0830184614a0b565b9695505050505050565b7f4e487b7100000000000000000000000000000000000000000000000000000000600052602260045260246000fd5b6000600282049050600182168061507e57607f821691505b60208210810361509157615090615037565b5b50919050565b7f4552433732313a20617070726f76616c20746f2063757272656e74206f776e6560008201527f7200000000000000000000000000000000000000000000000000000000000000602082015250565b60006150f36021836146bb565b91506150fe82615097565b604082019050919050565b60006020820190508181036000830152615122816150e6565b9050919050565b7f4552433732313a20617070726f76652063616c6c6572206973206e6f7420746f60008201527f6b656e206f776e6572206f7220617070726f76656420666f7220616c6c000000602082015250565b6000615185603d836146bb565b915061519082615129565b604082019050919050565b600060208201905081810360008301526151b481615178565b9050919050565b600063ffffffff82169050919050565b7f4e487b7100000000000000000000000000000000000000000000000000000000600052601160045260246000fd5b6000615205826151bb565b9150615210836151bb565b9250828201905063ffffffff81111561522c5761522b6151cb565b5b92915050565b7f4552433732313a2063616c6c6572206973206e6f7420746f6b656e206f776e6560008201527f72206f7220617070726f76656400000000000000000000000000000000000000602082015250565b600061528e602d836146bb565b915061529982615232565b604082019050919050565b600060208201905081810360008301526152bd81615281565b9050919050565b60008190508160005260206000209050919050565b60006020601f8301049050919050565b600082821b905092915050565b6000600883026153267fffffffffffffffffffffffffffffffffffffffffffffffffffffffffffffffff826152e9565b61533086836152e9565b95508019841693508086168417925050509392505050565b6000819050919050565b600061536d61536861536384614762565b615348565b614762565b9050919050565b6000819050919050565b61538783615352565b61539b61539382615374565b8484546152f6565b825550505050565b600090565b6153b06153a3565b6153bb81848461537e565b505050565b5b818110156153df576153d46000826153a8565b6001810190506153c1565b5050565b601f821115615424576153f5816152c4565b6153fe846152d9565b8101602085101561540d578190505b615421615419856152d9565b8301826153c0565b50505b505050565b600082821c905092915050565b600061544760001984600802615429565b1980831691505092915050565b60006154608383615436565b9150826002028217905092915050565b615479826146b0565b67ffffffffffffffff81111561549257615491614897565b5b61549c8254615066565b6154a78282856153e3565b600060209050601f8311600181146154da57600084156154c8578287015190505b6154d28582615454565b86555061553a565b601f1984166154e8866152c4565b60005b82811015615510578489015182556001820191506020850194506020810190506154eb565b8683101561552d5784890151615529601f891682615436565b8355505b6001600288020188555050505b505050505050565b7f4552433732313a20696e76616c696420746f6b656e2049440000000000000000600082015250565b60006155786018836146bb565b915061558382615542565b602082019050919050565b600060208201905081810360008301526155a78161556b565b9050919050565b60006155b982614762565b9150600082036155cc576155cb6151cb565b5b600182039050919050565b60006155e282614762565b91507fffffffffffffffffffffffffffffffffffffffffffffffffffffffffffffffff8203615614576156136151cb565b5b600182019050919050565b600060ff82169050919050565b60006156378261561f565b91506000820361564a576156496151cb565b5b600182039050919050565b60008160030b9050919050565b600061566d82615655565b9150637fffffff8203615683576156826151cb565b5b600182019050919050565b7f4552433732313a2061646472657373207a65726f206973206e6f74206120766160008201527f6c6964206f776e65720000000000000000000000000000000000000000000000602082015250565b60006156ea6029836146bb565b91506156f58261568e565b604082019050919050565b60006020820190508181036000830152615719816156dd565b9050919050565b600081905092915050565b6000615736826146b0565b6157408185615720565b93506157508185602086016146cc565b80840191505092915050565b6000615768828561572b565b9150615774828461572b565b91508190509392505050565b600061578b82614762565b915061579683614762565b92508282039050818111156157ae576157ad6151cb565b5b92915050565b7f4e487b7100000000000000000000000000000000000000000000000000000000600052603260045260246000fd5b60006157ee82614762565b91506157f983614762565b925082820261580781614762565b9150828204841483151761581e5761581d6151cb565b5b5092915050565b7f4e487b7100000000000000000000000000000000000000000000000000000000600052601260045260246000fd5b600061585f82614762565b915061586a83614762565b92508261587a57615879615825565b5b828204905092915050565b600061589082614762565b915061589b83614762565b92508282019050808211156158b3576158b26151cb565b5b92915050565b7f4552433732313a207472616e736665722066726f6d20696e636f72726563742060008201527f6f776e6572000000000000000000000000000000000000000000000000000000602082015250565b60006159156025836146bb565b9150615920826158b9565b604082019050919050565b6000602082019050818103600083015261594481615908565b9050919050565b7f4552433732313a207472616e7366657220746f20746865207a65726f2061646460008201527f7265737300000000000000000000000000000000000000000000000000000000602082015250565b60006159a76024836146bb565b91506159b28261594b565b604082019050919050565b600060208201905081810360008301526159d68161599a565b9050919050565b7f4552433732313a20617070726f766520746f2063616c6c657200000000000000600082015250565b6000615a136019836146bb565b9150615a1e826159dd565b602082019050919050565b60006020820190508181036000830152615a4281615a06565b9050919050565b7f4552433732313a207472616e7366657220746f206e6f6e20455243373231526560008201527f63656976657220696d706c656d656e7465720000000000000000000000000000602082015250565b6000615aa56032836146bb565b9150615ab082615a49565b604082019050919050565b60006020820190508181036000830152615ad481615a98565b9050919050565b6000615ae682614f47565b9150615af183614f47565b925082820190508281121560008312168382126000841215161715615b1957615b186151cb565b5b92915050565b7f4552433732313a206d696e7420746f20746865207a65726f2061646472657373600082015250565b6000615b556020836146bb565b9150615b6082615b1f565b602082019050919050565b60006020820190508181036000830152615b8481615b48565b9050919050565b7f4552433732313a20746f6b656e20616c7265616479206d696e74656400000000600082015250565b6000615bc1601c836146bb565b9150615bcc82615b8b565b602082019050919050565b60006020820190508181036000830152615bf081615bb4565b9050919050565b7f45524337323155524953746f726167653a2055524920736574206f66206e6f6e60008201527f6578697374656e7420746f6b656e000000000000000000000000000000000000602082015250565b6000615c53602e836146bb565b9150615c5e82615bf7565b604082019050919050565b60006020820190508181036000830152615c8281615c46565b9050919050565b600081519050919050565b600082825260208201905092915050565b6000615cb082615c89565b615cba8185615c94565b9350615cca8185602086016146cc565b615cd3816146f6565b840191505092915050565b6000608082019050615cf360008301876147f7565b615d0060208301866147f7565b615d0d6040830185614a0b565b8181036060830152615d1f8184615ca5565b905095945050505050565b600081519050615d3981614621565b92915050565b600060208284031215615d5557615d546145eb565b5b6000615d6384828501615d2a565b9150509291505056fea26469706673582212200a9be2ab64516f4404a9355195417ca579e61376e65cde91bf1d18d56db1e79364736f6c63430008110033",
  "linkReferences": {},
  "deployedLinkReferences": {}
}