{
  "_format": "hh-sol-artifact-1",
  "contractName": "Competition",
  "sourceName": "contracts/Competition.sol",
  "abi": [
    {
      "inputs": [],
      "stateMutability": "nonpayable",
      "type": "constructor"
    },
    {
      "inputs": [],
      "name": "AlreadyMinted",
      "type": "error"
    },
    {
      "inputs": [],
      "name": "AlreadyPurchasedTicket",
      "type": "error"
    },
    {
      "inputs": [],
      "name": "AlreadyVoted",
      "type": "error"
    },
    {
      "inputs": [],
      "name": "CannotVoteForSelf",
      "type": "error"
    },
    {
      "inputs": [],
      "name": "FirstCompetitionNotEnded",
      "type": "error"
    },
    {
      "inputs": [],
      "name": "IncorrectPaymentAmount",
      "type": "error"
    },
    {
      "inputs": [],
      "name": "NoSpotsLeft",
      "type": "error"
    },
    {
      "inputs": [],
      "name": "NotAdminOrOwner",
      "type": "error"
    },
    {
      "inputs": [],
      "name": "NotInCompetition",
      "type": "error"
    },
    {
      "inputs": [],
      "name": "NotOwner",
      "type": "error"
    },
    {
      "anonymous": false,
      "inputs": [
        {
          "indexed": true,
          "internalType": "address",
          "name": "owner",
          "type": "address"
        },
        {
          "indexed": true,
          "internalType": "address",
          "name": "approved",
          "type": "address"
        },
        {
          "indexed": true,
          "internalType": "uint256",
          "name": "tokenId",
          "type": "uint256"
        }
      ],
      "name": "Approval",
      "type": "event"
    },
    {
      "anonymous": false,
      "inputs": [
        {
          "indexed": true,
          "internalType": "address",
          "name": "owner",
          "type": "address"
        },
        {
          "indexed": true,
          "internalType": "address",
          "name": "operator",
          "type": "address"
        },
        {
          "indexed": false,
          "internalType": "bool",
          "name": "approved",
          "type": "bool"
        }
      ],
      "name": "ApprovalForAll",
      "type": "event"
    },
    {
      "anonymous": false,
      "inputs": [
        {
          "indexed": true,
          "internalType": "address",
          "name": "from",
          "type": "address"
        },
        {
          "indexed": true,
          "internalType": "address",
          "name": "to",
          "type": "address"
        },
        {
          "indexed": true,
          "internalType": "uint256",
          "name": "tokenId",
          "type": "uint256"
        }
      ],
      "name": "Transfer",
      "type": "event"
    },
    {
      "inputs": [
        {
          "internalType": "address",
          "name": "admin",
          "type": "address"
        }
      ],
      "name": "addAdmin",
      "outputs": [],
      "stateMutability": "nonpayable",
      "type": "function"
    },
    {
      "inputs": [
        {
          "internalType": "address",
          "name": "to",
          "type": "address"
        },
        {
          "internalType": "uint256",
          "name": "tokenId",
          "type": "uint256"
        }
      ],
      "name": "approve",
      "outputs": [],
      "stateMutability": "nonpayable",
      "type": "function"
    },
    {
      "inputs": [
        {
          "internalType": "address",
          "name": "owner",
          "type": "address"
        }
      ],
      "name": "balanceOf",
      "outputs": [
        {
          "internalType": "uint256",
          "name": "",
          "type": "uint256"
        }
      ],
      "stateMutability": "view",
      "type": "function"
    },
    {
      "inputs": [],
      "name": "buyin",
      "outputs": [],
      "stateMutability": "payable",
      "type": "function"
    },
    {
      "inputs": [],
      "name": "cancelCompetition",
      "outputs": [],
      "stateMutability": "nonpayable",
      "type": "function"
    },
    {
      "inputs": [],
      "name": "checkIfAdmin",
      "outputs": [
        {
          "internalType": "bool",
          "name": "",
          "type": "bool"
        }
      ],
      "stateMutability": "view",
      "type": "function"
    },
    {
      "inputs": [],
      "name": "checkIfOwner",
      "outputs": [
        {
          "internalType": "bool",
          "name": "",
          "type": "bool"
        }
      ],
      "stateMutability": "view",
      "type": "function"
    },
    {
      "inputs": [
        {
          "internalType": "address",
          "name": "admin",
          "type": "address"
        }
      ],
      "name": "delAdmin",
      "outputs": [],
      "stateMutability": "nonpayable",
      "type": "function"
    },
    {
      "inputs": [],
      "name": "endCompetition",
      "outputs": [],
      "stateMutability": "nonpayable",
      "type": "function"
    },
    {
      "inputs": [],
      "name": "getAllIds",
      "outputs": [
        {
          "internalType": "uint256[]",
          "name": "",
          "type": "uint256[]"
        }
      ],
      "stateMutability": "view",
      "type": "function"
    },
    {
      "inputs": [],
      "name": "getAllUsers",
      "outputs": [
        {
          "internalType": "address[]",
          "name": "",
          "type": "address[]"
        }
      ],
      "stateMutability": "view",
      "type": "function"
    },
    {
      "inputs": [
        {
          "internalType": "uint256",
          "name": "tokenId",
          "type": "uint256"
        }
      ],
      "name": "getApproved",
      "outputs": [
        {
          "internalType": "address",
          "name": "",
          "type": "address"
        }
      ],
      "stateMutability": "view",
      "type": "function"
    },
    {
      "inputs": [],
      "name": "getBalanceOfContract",
      "outputs": [
        {
          "internalType": "uint256",
          "name": "",
          "type": "uint256"
        }
      ],
      "stateMutability": "view",
      "type": "function"
    },
    {
      "inputs": [],
      "name": "getCompetitionStats",
      "outputs": [
        {
          "internalType": "uint256",
          "name": "",
          "type": "uint256"
        },
        {
          "internalType": "address[]",
          "name": "",
          "type": "address[]"
        },
        {
          "internalType": "uint256[]",
          "name": "",
          "type": "uint256[]"
        },
        {
          "internalType": "string",
          "name": "",
          "type": "string"
        },
        {
          "internalType": "uint256",
          "name": "",
          "type": "uint256"
        },
        {
          "internalType": "uint256",
          "name": "",
          "type": "uint256"
        },
        {
          "internalType": "bool",
          "name": "",
          "type": "bool"
        },
        {
          "internalType": "bool",
          "name": "",
          "type": "bool"
        }
      ],
      "stateMutability": "view",
      "type": "function"
    },
    {
      "inputs": [
        {
          "internalType": "address",
          "name": "competitors",
          "type": "address"
        }
      ],
      "name": "getCompetitorStats",
      "outputs": [
        {
          "internalType": "address",
          "name": "",
          "type": "address"
        },
        {
          "internalType": "int256",
          "name": "",
          "type": "int256"
        },
        {
          "internalType": "uint256[3]",
          "name": "",
          "type": "uint256[3]"
        },
        {
          "internalType": "uint256",
          "name": "",
          "type": "uint256"
        },
        {
          "internalType": "uint256",
          "name": "",
          "type": "uint256"
        }
      ],
      "stateMutability": "view",
      "type": "function"
    },
    {
      "inputs": [],
      "name": "getWinners",
      "outputs": [
        {
          "internalType": "address[]",
          "name": "",
          "type": "address[]"
        }
      ],
      "stateMutability": "view",
      "type": "function"
    },
    {
      "inputs": [
        {
          "internalType": "address",
          "name": "owner",
          "type": "address"
        },
        {
          "internalType": "address",
          "name": "operator",
          "type": "address"
        }
      ],
      "name": "isApprovedForAll",
      "outputs": [
        {
          "internalType": "bool",
          "name": "",
          "type": "bool"
        }
      ],
      "stateMutability": "view",
      "type": "function"
    },
    {
      "inputs": [
        {
          "internalType": "string",
          "name": "tokenURI",
          "type": "string"
        }
      ],
      "name": "mintNFTLogic",
      "outputs": [
        {
          "internalType": "uint256",
          "name": "",
          "type": "uint256"
        }
      ],
      "stateMutability": "payable",
      "type": "function"
    },
    {
      "inputs": [],
      "name": "name",
      "outputs": [
        {
          "internalType": "string",
          "name": "",
          "type": "string"
        }
      ],
      "stateMutability": "view",
      "type": "function"
    },
    {
      "inputs": [
        {
          "internalType": "uint256",
          "name": "tokenId",
          "type": "uint256"
        }
      ],
      "name": "ownerOf",
      "outputs": [
        {
          "internalType": "address",
          "name": "",
          "type": "address"
        }
      ],
      "stateMutability": "view",
      "type": "function"
    },
    {
      "inputs": [
        {
          "internalType": "address",
          "name": "from",
          "type": "address"
        },
        {
          "internalType": "address",
          "name": "to",
          "type": "address"
        },
        {
          "internalType": "uint256",
          "name": "tokenId",
          "type": "uint256"
        }
      ],
      "name": "safeTransferFrom",
      "outputs": [],
      "stateMutability": "nonpayable",
      "type": "function"
    },
    {
      "inputs": [
        {
          "internalType": "address",
          "name": "from",
          "type": "address"
        },
        {
          "internalType": "address",
          "name": "to",
          "type": "address"
        },
        {
          "internalType": "uint256",
          "name": "tokenId",
          "type": "uint256"
        },
        {
          "internalType": "bytes",
          "name": "data",
          "type": "bytes"
        }
      ],
      "name": "safeTransferFrom",
      "outputs": [],
      "stateMutability": "nonpayable",
      "type": "function"
    },
    {
      "inputs": [
        {
          "internalType": "address",
          "name": "operator",
          "type": "address"
        },
        {
          "internalType": "bool",
          "name": "approved",
          "type": "bool"
        }
      ],
      "name": "setApprovalForAll",
      "outputs": [],
      "stateMutability": "nonpayable",
      "type": "function"
    },
    {
      "inputs": [
        {
          "internalType": "uint256",
          "name": "spots",
          "type": "uint256"
        },
        {
          "internalType": "uint256",
          "name": "cost",
          "type": "uint256"
        },
        {
          "internalType": "string",
          "name": "typeComp",
          "type": "string"
        }
      ],
      "name": "startCompetition",
      "outputs": [],
      "stateMutability": "nonpayable",
      "type": "function"
    },
    {
      "inputs": [
        {
          "internalType": "bytes4",
          "name": "interfaceId",
          "type": "bytes4"
        }
      ],
      "name": "supportsInterface",
      "outputs": [
        {
          "internalType": "bool",
          "name": "",
          "type": "bool"
        }
      ],
      "stateMutability": "view",
      "type": "function"
    },
    {
      "inputs": [],
      "name": "symbol",
      "outputs": [
        {
          "internalType": "string",
          "name": "",
          "type": "string"
        }
      ],
      "stateMutability": "view",
      "type": "function"
    },
    {
      "inputs": [
        {
          "internalType": "uint256",
          "name": "tokenId",
          "type": "uint256"
        }
      ],
      "name": "tokenURI",
      "outputs": [
        {
          "internalType": "string",
          "name": "",
          "type": "string"
        }
      ],
      "stateMutability": "view",
      "type": "function"
    },
    {
      "inputs": [
        {
          "internalType": "address",
          "name": "from",
          "type": "address"
        },
        {
          "internalType": "address",
          "name": "to",
          "type": "address"
        },
        {
          "internalType": "uint256",
          "name": "tokenId",
          "type": "uint256"
        }
      ],
      "name": "transferFrom",
      "outputs": [],
      "stateMutability": "nonpayable",
      "type": "function"
    },
    {
      "inputs": [
        {
          "internalType": "address",
          "name": "voteFor",
          "type": "address"
        }
      ],
      "name": "vote",
      "outputs": [],
      "stateMutability": "nonpayable",
      "type": "function"
    },
    {
      "inputs": [],
      "name": "withdrawMoney",
      "outputs": [],
      "stateMutability": "nonpayable",
      "type": "function"
    }
  ],
  "bytecode": "0x6080604052662386f26fc10000600f553480156200001c57600080fd5b506040518060400160405280600b81526020017f776176706f6f6c204e46540000000000000000000000000000000000000000008152506040518060400160405280600481526020017f574156500000000000000000000000000000000000000000000000000000000081525081600090816200009a9190620003a1565b508060019081620000ac9190620003a1565b5050506000600a6000600b54815260200190815260200160002060060160006101000a81548160ff02191690831515021790555033600c60006101000a81548173ffffffffffffffffffffffffffffffffffffffff021916908373ffffffffffffffffffffffffffffffffffffffff16021790555062000488565b600081519050919050565b7f4e487b7100000000000000000000000000000000000000000000000000000000600052604160045260246000fd5b7f4e487b7100000000000000000000000000000000000000000000000000000000600052602260045260246000fd5b60006002820490506001821680620001a957607f821691505b602082108103620001bf57620001be62000161565b5b50919050565b60008190508160005260206000209050919050565b60006020601f8301049050919050565b600082821b905092915050565b600060088302620002297fffffffffffffffffffffffffffffffffffffffffffffffffffffffffffffffff82620001ea565b620002358683620001ea565b95508019841693508086168417925050509392505050565b6000819050919050565b6000819050919050565b6000620002826200027c62000276846200024d565b62000257565b6200024d565b9050919050565b6000819050919050565b6200029e8362000261565b620002b6620002ad8262000289565b848454620001f7565b825550505050565b600090565b620002cd620002be565b620002da81848462000293565b505050565b5b818110156200030257620002f6600082620002c3565b600181019050620002e0565b5050565b601f82111562000351576200031b81620001c5565b6200032684620001da565b8101602085101562000336578190505b6200034e6200034585620001da565b830182620002df565b50505b505050565b600082821c905092915050565b6000620003766000198460080262000356565b1980831691505092915050565b600062000391838362000363565b9150826002028217905092915050565b620003ac8262000127565b67ffffffffffffffff811115620003c857620003c762000132565b5b620003d4825462000190565b620003e182828562000306565b600060209050601f83116001811462000419576000841562000404578287015190505b62000410858262000383565b86555062000480565b601f1984166200042986620001c5565b60005b8281101562000453578489015182556001820191506020850194506020810190506200042c565b868310156200047357848901516200046f601f89168262000363565b8355505b6001600288020188555050505b505050505050565b615d5880620004986000396000f3fe6080604052600436106101cd5760003560e01c806370a08231116100f7578063b88d4fde11610095578063e985e9c511610064578063e985e9c51461063b578063ed00e65314610678578063f5092521146106a3578063f80eca22146106e4576101cd565b8063b88d4fde1461057f578063c87b56dd146105a8578063df15c37e146105e5578063e2842d7914610610576101cd565b8063a22cb465116100d1578063a22cb465146104e2578063a789ab3a1461050b578063aaa44e5c1461053d578063ac44600214610568576101cd565b806370a082311461044f578063898de7731461048c57806395d89b41146104b7576101cd565b8063295adbb11161016f5780636352211e1161013e5780636352211e146103b657806369766079146103f35780636dd7d8ea146103fd5780637048027514610426576101cd565b8063295adbb11461032457806342842e0e1461033b57806355f1d1721461036457806362d918551461038d576101cd565b8063095ea7b3116101ab578063095ea7b31461027757806317350629146102a057806322968885146102d057806323b872dd146102fb576101cd565b806301ffc9a7146101d257806306fdde031461020f578063081812fc1461023a575b600080fd5b3480156101de57600080fd5b506101f960048036038101906101f49190614603565b6106fb565b604051610206919061464b565b60405180910390f35b34801561021b57600080fd5b506102246107dd565b60405161023191906146f6565b60405180910390f35b34801561024657600080fd5b50610261600480360381019061025c919061474e565b61086f565b60405161026e91906147bc565b60405180910390f35b34801561028357600080fd5b5061029e60048036038101906102999190614803565b6108b5565b005b6102ba60048036038101906102b59190614978565b6109cc565b6040516102c791906149d0565b60405180910390f35b3480156102dc57600080fd5b506102e5610da8565b6040516102f291906149d0565b60405180910390f35b34801561030757600080fd5b50610322600480360381019061031d91906149eb565b610e3c565b005b34801561033057600080fd5b50610339610e9c565b005b34801561034757600080fd5b50610362600480360381019061035d91906149eb565b61109a565b005b34801561037057600080fd5b5061038b60048036038101906103869190614a3e565b6110ba565b005b34801561039957600080fd5b506103b460048036038101906103af9190614aad565b6113b0565b005b3480156103c257600080fd5b506103dd60048036038101906103d8919061474e565b6114a8565b6040516103ea91906147bc565b60405180910390f35b6103fb61152e565b005b34801561040957600080fd5b50610424600480360381019061041f9190614aad565b611ace565b005b34801561043257600080fd5b5061044d60048036038101906104489190614aad565b611d04565b005b34801561045b57600080fd5b5061047660048036038101906104719190614aad565b611e41565b60405161048391906149d0565b60405180910390f35b34801561049857600080fd5b506104a1611ef8565b6040516104ae919061464b565b60405180910390f35b3480156104c357600080fd5b506104cc611f60565b6040516104d991906146f6565b60405180910390f35b3480156104ee57600080fd5b5061050960048036038101906105049190614b06565b611ff2565b005b34801561051757600080fd5b50610520612008565b604051610534989796959493929190614cc2565b60405180910390f35b34801561054957600080fd5b50610552612274565b60405161055f9190614d55565b60405180910390f35b34801561057457600080fd5b5061057d6122cc565b005b34801561058b57600080fd5b506105a660048036038101906105a19190614e18565b6123ae565b005b3480156105b457600080fd5b506105cf60048036038101906105ca919061474e565b612410565b6040516105dc91906146f6565b60405180910390f35b3480156105f157600080fd5b506105fa612522565b6040516106079190614e9b565b60405180910390f35b34801561061c57600080fd5b50610625612613565b6040516106329190614e9b565b60405180910390f35b34801561064757600080fd5b50610662600480360381019061065d9190614ebd565b6126a1565b60405161066f919061464b565b60405180910390f35b34801561068457600080fd5b5061068d612735565b60405161069a919061464b565b60405180910390f35b3480156106af57600080fd5b506106ca60048036038101906106c59190614aad565b6127dd565b6040516106db959493929190614f9a565b60405180910390f35b3480156106f057600080fd5b506106f96129ab565b005b60007f80ac58cd000000000000000000000000000000000000000000000000000000007bffffffffffffffffffffffffffffffffffffffffffffffffffffffff1916827bffffffffffffffffffffffffffffffffffffffffffffffffffffffff191614806107c657507f5b5e139f000000000000000000000000000000000000000000000000000000007bffffffffffffffffffffffffffffffffffffffffffffffffffffffff1916827bffffffffffffffffffffffffffffffffffffffffffffffffffffffff1916145b806107d657506107d582613250565b5b9050919050565b6060600080546107ec9061501c565b80601f01602080910402602001604051908101604052809291908181526020018280546108189061501c565b80156108655780601f1061083a57610100808354040283529160200191610865565b820191906000526020600020905b81548152906001019060200180831161084857829003601f168201915b5050505050905090565b600061087a826132ba565b6004600083815260200190815260200160002060009054906101000a900473ffffffffffffffffffffffffffffffffffffffff169050919050565b60006108c0826114a8565b90508073ffffffffffffffffffffffffffffffffffffffff168373ffffffffffffffffffffffffffffffffffffffff1603610930576040517f08c379a0000000000000000000000000000000000000000000000000000000008152600401610927906150bf565b60405180910390fd5b8073ffffffffffffffffffffffffffffffffffffffff1661094f613305565b73ffffffffffffffffffffffffffffffffffffffff16148061097e575061097d81610978613305565b6126a1565b5b6109bd576040517f08c379a00000000000000000000000000000000000000000000000000000000081526004016109b490615151565b60405180910390fd5b6109c7838361330d565b505050565b6000806109d76133c6565b8015610a3b57506001600860003373ffffffffffffffffffffffffffffffffffffffff1673ffffffffffffffffffffffffffffffffffffffff16815260200190815260200160002060000160149054906101000a900463ffffffff1663ffffffff16105b15610b1357610a498361349e565b90506001600860003373ffffffffffffffffffffffffffffffffffffffff1673ffffffffffffffffffffffffffffffffffffffff16815260200190815260200160002060000160148282829054906101000a900463ffffffff16610aad91906151b0565b92506101000a81548163ffffffff021916908363ffffffff160217905550600a6000600b54815260200190815260200160002060020181908060018154018082558091505060019003906000526020600020016000909190919091505580915050610da3565b600f543414610b4e576040517f6992e1ff00000000000000000000000000000000000000000000000000000000815260040160405180910390fd5b3373ffffffffffffffffffffffffffffffffffffffff16600860003373ffffffffffffffffffffffffffffffffffffffff1673ffffffffffffffffffffffffffffffffffffffff16815260200190815260200160002060000160009054906101000a900473ffffffffffffffffffffffffffffffffffffffff1673ffffffffffffffffffffffffffffffffffffffff1614610d9357610beb6143bf565b6040518061010001604052803373ffffffffffffffffffffffffffffffffffffffff168152602001600063ffffffff16815260200160008152602001600060ff168152602001600060030b8152602001600081526020018281526020016000815250600860003373ffffffffffffffffffffffffffffffffffffffff1673ffffffffffffffffffffffffffffffffffffffff16815260200190815260200160002060008201518160000160006101000a81548173ffffffffffffffffffffffffffffffffffffffff021916908373ffffffffffffffffffffffffffffffffffffffff16021790555060208201518160000160146101000a81548163ffffffff021916908363ffffffff1602179055506040820151816001015560608201518160020160006101000a81548160ff021916908360ff16021790555060808201518160020160016101000a81548163ffffffff021916908360030b63ffffffff16021790555060a0820151816003015560c082015181600401906003610d709291906143e1565b5060e08201518160070155905050610d878461349e565b91508192505050610da3565b610d9c8361349e565b9050809150505b919050565b6000600c60009054906101000a900473ffffffffffffffffffffffffffffffffffffffff1673ffffffffffffffffffffffffffffffffffffffff163373ffffffffffffffffffffffffffffffffffffffff1603610e0757479050610e39565b6040517f30cd747100000000000000000000000000000000000000000000000000000000815260040160405180910390fd5b90565b610e4d610e47613305565b82613558565b610e8c576040517f08c379a0000000000000000000000000000000000000000000000000000000008152600401610e839061525a565b60405180910390fd5b610e978383836135ed565b505050565b600960003373ffffffffffffffffffffffffffffffffffffffff1673ffffffffffffffffffffffffffffffffffffffff16815260200190815260200160002060000160009054906101000a900473ffffffffffffffffffffffffffffffffffffffff1673ffffffffffffffffffffffffffffffffffffffff163373ffffffffffffffffffffffffffffffffffffffff161480610f855750600c60009054906101000a900473ffffffffffffffffffffffffffffffffffffffff1673ffffffffffffffffffffffffffffffffffffffff163373ffffffffffffffffffffffffffffffffffffffff16145b1561106657600a6000600b54815260200190815260200160002060008082016000610fb09190614421565b600182016000610fc09190614421565b600282016000610fd09190614442565b6003820160009055600482016000905560058201600090556006820160006101000a81549060ff02191690556006820160016101000a81549060ff02191690556007820160006110209190614463565b6008820160006101000a81549073ffffffffffffffffffffffffffffffffffffffff02191690556009820160009055600a820160009055600b8201600090555050611098565b6040517f7bb62a2100000000000000000000000000000000000000000000000000000000815260040160405180910390fd5b565b6110b5838383604051806020016040528060008152506123ae565b505050565b600960003373ffffffffffffffffffffffffffffffffffffffff1673ffffffffffffffffffffffffffffffffffffffff16815260200190815260200160002060000160009054906101000a900473ffffffffffffffffffffffffffffffffffffffff1673ffffffffffffffffffffffffffffffffffffffff163373ffffffffffffffffffffffffffffffffffffffff1614806111a35750600c60009054906101000a900473ffffffffffffffffffffffffffffffffffffffff1673ffffffffffffffffffffffffffffffffffffffff163373ffffffffffffffffffffffffffffffffffffffff16145b1561137957606080604051806101a00160405280838152602001838152602001828152602001858152602001868152602001600b548152602001600115158152602001600015158152602001848152602001600073ffffffffffffffffffffffffffffffffffffffff16815260200160008152602001600081526020016000815250600a6000600b54815260200190815260200160002060008201518160000190805190602001906112569291906144a3565b5060208201518160010190805190602001906112739291906144a3565b50604082015181600201908051906020019061129092919061452d565b50606082015181600301556080820151816004015560a0820151816005015560c08201518160060160006101000a81548160ff02191690831515021790555060e08201518160060160016101000a81548160ff0219169083151502179055506101008201518160070190816113059190615426565b506101208201518160080160006101000a81548173ffffffffffffffffffffffffffffffffffffffff021916908373ffffffffffffffffffffffffffffffffffffffff160217905550610140820151816009015561016082015181600a015561018082015181600b015590505050506113ab565b6040517f7bb62a2100000000000000000000000000000000000000000000000000000000815260040160405180910390fd5b505050565b600c60009054906101000a900473ffffffffffffffffffffffffffffffffffffffff1673ffffffffffffffffffffffffffffffffffffffff163373ffffffffffffffffffffffffffffffffffffffff160361147357600960008273ffffffffffffffffffffffffffffffffffffffff1673ffffffffffffffffffffffffffffffffffffffff168152602001908152602001600020600080820160006101000a81549073ffffffffffffffffffffffffffffffffffffffff021916905550506114a5565b6040517f30cd747100000000000000000000000000000000000000000000000000000000815260040160405180910390fd5b50565b6000806114b4836138e6565b9050600073ffffffffffffffffffffffffffffffffffffffff168173ffffffffffffffffffffffffffffffffffffffff1603611525576040517f08c379a000000000000000000000000000000000000000000000000000000000815260040161151c90615544565b60405180910390fd5b80915050919050565b6115366133c6565b1561156d576040517f4748f43600000000000000000000000000000000000000000000000000000000815260040160405180910390fd5b6000600a6000600b54815260200190815260200160002060040154036115bf576040517fb2363d2500000000000000000000000000000000000000000000000000000000815260040160405180910390fd5b600a6000600b548152602001908152602001600020600301543414611610576040517f6992e1ff00000000000000000000000000000000000000000000000000000000815260040160405180910390fd5b3373ffffffffffffffffffffffffffffffffffffffff16600860003373ffffffffffffffffffffffffffffffffffffffff1673ffffffffffffffffffffffffffffffffffffffff16815260200190815260200160002060000160009054906101000a900473ffffffffffffffffffffffffffffffffffffffff1673ffffffffffffffffffffffffffffffffffffffff16146118a9576116ad6143bf565b6040518061010001604052803373ffffffffffffffffffffffffffffffffffffffff168152602001600063ffffffff16815260200160008152602001600160ff168152602001600060030b8152602001600081526020018281526020016000815250600860003373ffffffffffffffffffffffffffffffffffffffff1673ffffffffffffffffffffffffffffffffffffffff16815260200190815260200160002060008201518160000160006101000a81548173ffffffffffffffffffffffffffffffffffffffff021916908373ffffffffffffffffffffffffffffffffffffffff16021790555060208201518160000160146101000a81548163ffffffff021916908363ffffffff1602179055506040820151816001015560608201518160020160006101000a81548160ff021916908360ff16021790555060808201518160020160016101000a81548163ffffffff021916908360030b63ffffffff16021790555060a0820151816003015560c0820151816004019060036118329291906143e1565b5060e08201518160070155905050600d339080600181540180825580915050600190039060005260206000200160009091909190916101000a81548173ffffffffffffffffffffffffffffffffffffffff021916908373ffffffffffffffffffffffffffffffffffffffff160217905550506119cd565b6001600860003373ffffffffffffffffffffffffffffffffffffffff1673ffffffffffffffffffffffffffffffffffffffff16815260200190815260200160002060020160006101000a81548160ff021916908360ff1602179055506000600860003373ffffffffffffffffffffffffffffffffffffffff1673ffffffffffffffffffffffffffffffffffffffff16815260200190815260200160002060020160016101000a81548163ffffffff021916908360030b63ffffffff1602179055506000600860003373ffffffffffffffffffffffffffffffffffffffff1673ffffffffffffffffffffffffffffffffffffffff16815260200190815260200160002060000160146101000a81548163ffffffff021916908363ffffffff1602179055505b600a6000600b548152602001908152602001600020600001339080600181540180825580915050600190039060005260206000200160009091909190916101000a81548173ffffffffffffffffffffffffffffffffffffffff021916908373ffffffffffffffffffffffffffffffffffffffff160217905550600a6000600b5481526020019081526020016000206004016000815480929190611a6f90615564565b9190505550600860003373ffffffffffffffffffffffffffffffffffffffff1673ffffffffffffffffffffffffffffffffffffffff1681526020019081526020016000206007016000815480929190611ac79061558d565b9190505550565b611ad66133c6565b15611ccf576001600860003373ffffffffffffffffffffffffffffffffffffffff1673ffffffffffffffffffffffffffffffffffffffff16815260200190815260200160002060020160009054906101000a900460ff1660ff1603611c98578073ffffffffffffffffffffffffffffffffffffffff163373ffffffffffffffffffffffffffffffffffffffff1603611b9a576040517fa091116800000000000000000000000000000000000000000000000000000000815260040160405180910390fd5b600860003373ffffffffffffffffffffffffffffffffffffffff1673ffffffffffffffffffffffffffffffffffffffff168152602001908152602001600020600201600081819054906101000a900460ff1680929190611bf9906155e2565b91906101000a81548160ff021916908360ff16021790555050600860008273ffffffffffffffffffffffffffffffffffffffff1673ffffffffffffffffffffffffffffffffffffffff168152602001908152602001600020600201600181819054906101000a900460030b80929190611c7190615618565b91906101000a81548163ffffffff021916908360030b63ffffffff16021790555050611cca565b6040517f7c9a1cf900000000000000000000000000000000000000000000000000000000815260040160405180910390fd5b611d01565b6040517fb0b7521d00000000000000000000000000000000000000000000000000000000815260040160405180910390fd5b50565b600c60009054906101000a900473ffffffffffffffffffffffffffffffffffffffff1673ffffffffffffffffffffffffffffffffffffffff163373ffffffffffffffffffffffffffffffffffffffff1603611e0c5760405180602001604052808273ffffffffffffffffffffffffffffffffffffffff16815250600960008373ffffffffffffffffffffffffffffffffffffffff1673ffffffffffffffffffffffffffffffffffffffff16815260200190815260200160002060008201518160000160006101000a81548173ffffffffffffffffffffffffffffffffffffffff021916908373ffffffffffffffffffffffffffffffffffffffff160217905550905050611e3e565b6040517f30cd747100000000000000000000000000000000000000000000000000000000815260040160405180910390fd5b50565b60008073ffffffffffffffffffffffffffffffffffffffff168273ffffffffffffffffffffffffffffffffffffffff1603611eb1576040517f08c379a0000000000000000000000000000000000000000000000000000000008152600401611ea8906156b6565b60405180910390fd5b600360008373ffffffffffffffffffffffffffffffffffffffff1673ffffffffffffffffffffffffffffffffffffffff168152602001908152602001600020549050919050565b60003373ffffffffffffffffffffffffffffffffffffffff16600c60009054906101000a900473ffffffffffffffffffffffffffffffffffffffff1673ffffffffffffffffffffffffffffffffffffffff1603611f585760019050611f5d565b600090505b90565b606060018054611f6f9061501c565b80601f0160208091040260200160405190810160405280929190818152602001828054611f9b9061501c565b8015611fe85780601f10611fbd57610100808354040283529160200191611fe8565b820191906000526020600020905b815481529060010190602001808311611fcb57829003601f168201915b5050505050905090565b612004611ffd613305565b8383613923565b5050565b60006060806060600080600080600a6000600b54815260200190815260200160002060050154600a6000600b548152602001908152602001600020600001600a6000600b548152602001908152602001600020600201600a6000600b548152602001908152602001600020600701600a6000600b54815260200190815260200160002060040154600a6000600b54815260200190815260200160002060030154600a6000600b54815260200190815260200160002060060160009054906101000a900460ff16600a6000600b54815260200190815260200160002060060160019054906101000a900460ff168680548060200260200160405190810160405280929190818152602001828054801561217557602002820191906000526020600020905b8160009054906101000a900473ffffffffffffffffffffffffffffffffffffffff1673ffffffffffffffffffffffffffffffffffffffff168152602001906001019080831161212b575b50505050509650858054806020026020016040519081016040528092919081815260200182805480156121c757602002820191906000526020600020905b8154815260200190600101908083116121b3575b505050505095508480546121da9061501c565b80601f01602080910402602001604051908101604052809291908181526020018280546122069061501c565b80156122535780601f1061222857610100808354040283529160200191612253565b820191906000526020600020905b81548152906001019060200180831161223657829003601f168201915b50505050509450975097509750975097509750975097509091929394959697565b6060600e8054806020026020016040519081016040528092919081815260200182805480156122c257602002820191906000526020600020905b8154815260200190600101908083116122ae575b5050505050905090565b600c60009054906101000a900473ffffffffffffffffffffffffffffffffffffffff1673ffffffffffffffffffffffffffffffffffffffff163373ffffffffffffffffffffffffffffffffffffffff160361237a5760003390508073ffffffffffffffffffffffffffffffffffffffff166108fc612348610da8565b9081150290604051600060405180830381858888f19350505050158015612373573d6000803e3d6000fd5b50506123ac565b6040517f30cd747100000000000000000000000000000000000000000000000000000000815260040160405180910390fd5b565b6123bf6123b9613305565b83613558565b6123fe576040517f08c379a00000000000000000000000000000000000000000000000000000000081526004016123f59061525a565b60405180910390fd5b61240a84848484613a8f565b50505050565b606061241b826132ba565b600060066000848152602001908152602001600020805461243b9061501c565b80601f01602080910402602001604051908101604052809291908181526020018280546124679061501c565b80156124b45780601f10612489576101008083540402835291602001916124b4565b820191906000526020600020905b81548152906001019060200180831161249757829003601f168201915b5050505050905060006124c5613aeb565b905060008151036124da57819250505061251d565b60008251111561250f5780826040516020016124f7929190615712565b6040516020818303038152906040529250505061251d565b61251884613b02565b925050505b919050565b60606001600b54106125de57600a60006001600b546125419190615736565b81526020019081526020016000206001018054806020026020016040519081016040528092919081815260200182805480156125d257602002820191906000526020600020905b8160009054906101000a900473ffffffffffffffffffffffffffffffffffffffff1673ffffffffffffffffffffffffffffffffffffffff1681526020019060010190808311612588575b50505050509050612610565b6040517ffb81554100000000000000000000000000000000000000000000000000000000815260040160405180910390fd5b90565b6060600d80548060200260200160405190810160405280929190818152602001828054801561269757602002820191906000526020600020905b8160009054906101000a900473ffffffffffffffffffffffffffffffffffffffff1673ffffffffffffffffffffffffffffffffffffffff168152602001906001019080831161264d575b5050505050905090565b6000600560008473ffffffffffffffffffffffffffffffffffffffff1673ffffffffffffffffffffffffffffffffffffffff16815260200190815260200160002060008373ffffffffffffffffffffffffffffffffffffffff1673ffffffffffffffffffffffffffffffffffffffff16815260200190815260200160002060009054906101000a900460ff16905092915050565b6000600960003373ffffffffffffffffffffffffffffffffffffffff1673ffffffffffffffffffffffffffffffffffffffff16815260200190815260200160002060000160009054906101000a900473ffffffffffffffffffffffffffffffffffffffff1673ffffffffffffffffffffffffffffffffffffffff163373ffffffffffffffffffffffffffffffffffffffff16036127d557600190506127da565b600090505b90565b6000806127e86143bf565b600080600860008773ffffffffffffffffffffffffffffffffffffffff1673ffffffffffffffffffffffffffffffffffffffff16815260200190815260200160002060000160009054906101000a900473ffffffffffffffffffffffffffffffffffffffff16600860008873ffffffffffffffffffffffffffffffffffffffff1673ffffffffffffffffffffffffffffffffffffffff16815260200190815260200160002060030154600860008973ffffffffffffffffffffffffffffffffffffffff1673ffffffffffffffffffffffffffffffffffffffff168152602001908152602001600020600401600860008a73ffffffffffffffffffffffffffffffffffffffff1673ffffffffffffffffffffffffffffffffffffffff16815260200190815260200160002060070154600860008b73ffffffffffffffffffffffffffffffffffffffff1673ffffffffffffffffffffffffffffffffffffffff1681526020019081526020016000206001015482600380602002604051908101604052809291908260038015612991576020028201915b81548152602001906001019080831161297d575b505050505092509450945094509450945091939590929450565b600960003373ffffffffffffffffffffffffffffffffffffffff1673ffffffffffffffffffffffffffffffffffffffff16815260200190815260200160002060000160009054906101000a900473ffffffffffffffffffffffffffffffffffffffff1673ffffffffffffffffffffffffffffffffffffffff163373ffffffffffffffffffffffffffffffffffffffff161480612a945750600c60009054906101000a900473ffffffffffffffffffffffffffffffffffffffff1673ffffffffffffffffffffffffffffffffffffffff163373ffffffffffffffffffffffffffffffffffffffff16145b1561321c576002600a6000600b548152602001908152602001600020600b015411612fcc5760005b600a6000600b54815260200190815260200160002060000180549050811015612e3357600a6000600b5481526020019081526020016000206009015460086000600a6000600b5481526020019081526020016000206000018481548110612b2657612b2561576a565b5b9060005260206000200160009054906101000a900473ffffffffffffffffffffffffffffffffffffffff1673ffffffffffffffffffffffffffffffffffffffff1673ffffffffffffffffffffffffffffffffffffffff16815260200190815260200160002060020160019054906101000a900460030b60030b138015612c2d5750600073ffffffffffffffffffffffffffffffffffffffff16600a6000600b5481526020019081526020016000206000018281548110612be957612be861576a565b5b9060005260206000200160009054906101000a900473ffffffffffffffffffffffffffffffffffffffff1673ffffffffffffffffffffffffffffffffffffffff1614155b15612e205760086000600a6000600b5481526020019081526020016000206000018381548110612c6057612c5f61576a565b5b9060005260206000200160009054906101000a900473ffffffffffffffffffffffffffffffffffffffff1673ffffffffffffffffffffffffffffffffffffffff1673ffffffffffffffffffffffffffffffffffffffff16815260200190815260200160002060000160009054906101000a900473ffffffffffffffffffffffffffffffffffffffff16600a6000600b54815260200190815260200160002060080160006101000a81548173ffffffffffffffffffffffffffffffffffffffff021916908373ffffffffffffffffffffffffffffffffffffffff16021790555060086000600a6000600b5481526020019081526020016000206000018381548110612d6d57612d6c61576a565b5b9060005260206000200160009054906101000a900473ffffffffffffffffffffffffffffffffffffffff1673ffffffffffffffffffffffffffffffffffffffff1673ffffffffffffffffffffffffffffffffffffffff16815260200190815260200160002060020160019054906101000a900460030b60030b600a6000600b5481526020019081526020016000206009018190555080600a6000600b548152602001908152602001600020600a01819055505b8080612e2b9061558d565b915050612abc565b50600a6000600b548152602001908152602001600020600101600a6000600b54815260200190815260200160002060080160009054906101000a900473ffffffffffffffffffffffffffffffffffffffff169080600181540180825580915050600190039060005260206000200160009091909190916101000a81548173ffffffffffffffffffffffffffffffffffffffff021916908373ffffffffffffffffffffffffffffffffffffffff160217905550600a6000600b548152602001908152602001600020600001600a6000600b548152602001908152602001600020600a015481548110612f2757612f2661576a565b5b9060005260206000200160006101000a81549073ffffffffffffffffffffffffffffffffffffffff02191690557fffffffffffffffffffffffffffffffffffffffffffffffffffffffffffffffff600a6000600b54815260200190815260200160002060090181905550600a6000600b548152602001908152602001600020600b016000815480929190612fba9061558d565b9190505550612fc76129ab565b613217565b60006002600a6000600b54815260200190815260200160002060000180549050600a6000600b5481526020019081526020016000206003015461300f9190615799565b613019919061580a565b905060005b600a6000600b548152602001908152602001600020600101805490508110156131c35760028261304e919061580a565b91506000600a6000600b548152602001908152602001600020600101828154811061307c5761307b61576a565b5b9060005260206000200160009054906101000a900473ffffffffffffffffffffffffffffffffffffffff1690508073ffffffffffffffffffffffffffffffffffffffff166108fc849081150290604051600060405180830381858888f193505050501580156130ef573d6000803e3d6000fd5b5060086000600a6000600b548152602001908152602001600020600101848154811061311e5761311d61576a565b5b9060005260206000200160009054906101000a900473ffffffffffffffffffffffffffffffffffffffff1673ffffffffffffffffffffffffffffffffffffffff1673ffffffffffffffffffffffffffffffffffffffff16815260200190815260200160002060040182600381106131985761319761576a565b5b0160008154809291906131aa9061558d565b91905055505080806131bb9061558d565b91505061301e565b506131cc613b6a565b600b60008154809291906131df9061558d565b91905055506001600a6000600b54815260200190815260200160002060060160016101000a81548160ff021916908315150217905550505b61324e565b6040517f7bb62a2100000000000000000000000000000000000000000000000000000000815260040160405180910390fd5b565b60007f01ffc9a7000000000000000000000000000000000000000000000000000000007bffffffffffffffffffffffffffffffffffffffffffffffffffffffff1916827bffffffffffffffffffffffffffffffffffffffffffffffffffffffff1916149050919050565b6132c381613cf9565b613302576040517f08c379a00000000000000000000000000000000000000000000000000000000081526004016132f990615544565b60405180910390fd5b50565b600033905090565b816004600083815260200190815260200160002060006101000a81548173ffffffffffffffffffffffffffffffffffffffff021916908373ffffffffffffffffffffffffffffffffffffffff160217905550808273ffffffffffffffffffffffffffffffffffffffff16613380836114a8565b73ffffffffffffffffffffffffffffffffffffffff167f8c5be1e5ebec7d5bd14f71427d1e84f3dd0314c0f7b2291e5b200ac8c7c3b92560405160405180910390a45050565b600080600090505b600a6000600b5481526020019081526020016000206000018054905081101561349557600a6000600b548152602001908152602001600020600001818154811061341b5761341a61576a565b5b9060005260206000200160009054906101000a900473ffffffffffffffffffffffffffffffffffffffff1673ffffffffffffffffffffffffffffffffffffffff163373ffffffffffffffffffffffffffffffffffffffff160361348257600191505061349b565b808061348d9061558d565b9150506133ce565b50600090505b90565b60006134aa6007613d3a565b60006134b66007613d50565b90506134c23382613d5e565b6134cc8184613f7b565b6001600860003373ffffffffffffffffffffffffffffffffffffffff1673ffffffffffffffffffffffffffffffffffffffff168152602001908152602001600020600101600082825461351f919061583b565b92505081905550600e81908060018154018082558091505060019003906000526020600020016000909190919091505580915050919050565b600080613564836114a8565b90508073ffffffffffffffffffffffffffffffffffffffff168473ffffffffffffffffffffffffffffffffffffffff1614806135a657506135a581856126a1565b5b806135e457508373ffffffffffffffffffffffffffffffffffffffff166135cc8461086f565b73ffffffffffffffffffffffffffffffffffffffff16145b91505092915050565b8273ffffffffffffffffffffffffffffffffffffffff1661360d826114a8565b73ffffffffffffffffffffffffffffffffffffffff1614613663576040517f08c379a000000000000000000000000000000000000000000000000000000000815260040161365a906158e1565b60405180910390fd5b600073ffffffffffffffffffffffffffffffffffffffff168273ffffffffffffffffffffffffffffffffffffffff16036136d2576040517f08c379a00000000000000000000000000000000000000000000000000000000081526004016136c990615973565b60405180910390fd5b6136df8383836001613fe8565b8273ffffffffffffffffffffffffffffffffffffffff166136ff826114a8565b73ffffffffffffffffffffffffffffffffffffffff1614613755576040517f08c379a000000000000000000000000000000000000000000000000000000000815260040161374c906158e1565b60405180910390fd5b6004600082815260200190815260200160002060006101000a81549073ffffffffffffffffffffffffffffffffffffffff02191690556001600360008573ffffffffffffffffffffffffffffffffffffffff1673ffffffffffffffffffffffffffffffffffffffff168152602001908152602001600020600082825403925050819055506001600360008473ffffffffffffffffffffffffffffffffffffffff1673ffffffffffffffffffffffffffffffffffffffff16815260200190815260200160002060008282540192505081905550816002600083815260200190815260200160002060006101000a81548173ffffffffffffffffffffffffffffffffffffffff021916908373ffffffffffffffffffffffffffffffffffffffff160217905550808273ffffffffffffffffffffffffffffffffffffffff168473ffffffffffffffffffffffffffffffffffffffff167fddf252ad1be2c89b69c2b068fc378daa952ba7f163c4a11628f55a4df523b3ef60405160405180910390a46138e18383836001613fee565b505050565b60006002600083815260200190815260200160002060009054906101000a900473ffffffffffffffffffffffffffffffffffffffff169050919050565b8173ffffffffffffffffffffffffffffffffffffffff168373ffffffffffffffffffffffffffffffffffffffff1603613991576040517f08c379a0000000000000000000000000000000000000000000000000000000008152600401613988906159df565b60405180910390fd5b80600560008573ffffffffffffffffffffffffffffffffffffffff1673ffffffffffffffffffffffffffffffffffffffff16815260200190815260200160002060008473ffffffffffffffffffffffffffffffffffffffff1673ffffffffffffffffffffffffffffffffffffffff16815260200190815260200160002060006101000a81548160ff0219169083151502179055508173ffffffffffffffffffffffffffffffffffffffff168373ffffffffffffffffffffffffffffffffffffffff167f17307eab39ab6107e8899845ad3d59bd9653f200f220920489ca2b5937696c3183604051613a82919061464b565b60405180910390a3505050565b613a9a8484846135ed565b613aa684848484613ff4565b613ae5576040517f08c379a0000000000000000000000000000000000000000000000000000000008152600401613adc90615a71565b60405180910390fd5b50505050565b606060405180602001604052806000815250905090565b6060613b0d826132ba565b6000613b17613aeb565b90506000815111613b375760405180602001604052806000815250613b62565b80613b418461417b565b604051602001613b52929190615712565b6040516020818303038152906040525b915050919050565b60005b600a6000600b54815260200190815260200160002060000180549050811015613cf65760086000600a6000600b5481526020019081526020016000206000018381548110613bbe57613bbd61576a565b5b9060005260206000200160009054906101000a900473ffffffffffffffffffffffffffffffffffffffff1673ffffffffffffffffffffffffffffffffffffffff1673ffffffffffffffffffffffffffffffffffffffff16815260200190815260200160002060020160019054906101000a900460030b60030b60086000600a6000600b5481526020019081526020016000206000018481548110613c6557613c6461576a565b5b9060005260206000200160009054906101000a900473ffffffffffffffffffffffffffffffffffffffff1673ffffffffffffffffffffffffffffffffffffffff1673ffffffffffffffffffffffffffffffffffffffff1681526020019081526020016000206003016000828254613cdc9190615a91565b925050819055508080613cee9061558d565b915050613b6d565b50565b60008073ffffffffffffffffffffffffffffffffffffffff16613d1b836138e6565b73ffffffffffffffffffffffffffffffffffffffff1614159050919050565b6001816000016000828254019250508190555050565b600081600001549050919050565b600073ffffffffffffffffffffffffffffffffffffffff168273ffffffffffffffffffffffffffffffffffffffff1603613dcd576040517f08c379a0000000000000000000000000000000000000000000000000000000008152600401613dc490615b21565b60405180910390fd5b613dd681613cf9565b15613e16576040517f08c379a0000000000000000000000000000000000000000000000000000000008152600401613e0d90615b8d565b60405180910390fd5b613e24600083836001613fe8565b613e2d81613cf9565b15613e6d576040517f08c379a0000000000000000000000000000000000000000000000000000000008152600401613e6490615b8d565b60405180910390fd5b6001600360008473ffffffffffffffffffffffffffffffffffffffff1673ffffffffffffffffffffffffffffffffffffffff16815260200190815260200160002060008282540192505081905550816002600083815260200190815260200160002060006101000a81548173ffffffffffffffffffffffffffffffffffffffff021916908373ffffffffffffffffffffffffffffffffffffffff160217905550808273ffffffffffffffffffffffffffffffffffffffff16600073ffffffffffffffffffffffffffffffffffffffff167fddf252ad1be2c89b69c2b068fc378daa952ba7f163c4a11628f55a4df523b3ef60405160405180910390a4613f77600083836001613fee565b5050565b613f8482613cf9565b613fc3576040517f08c379a0000000000000000000000000000000000000000000000000000000008152600401613fba90615c1f565b60405180910390fd5b80600660008481526020019081526020016000209081613fe39190615426565b505050565b50505050565b50505050565b60006140158473ffffffffffffffffffffffffffffffffffffffff16614249565b1561416e578373ffffffffffffffffffffffffffffffffffffffff1663150b7a0261403e613305565b8786866040518563ffffffff1660e01b81526004016140609493929190615c94565b6020604051808303816000875af192505050801561409c57506040513d601f19601f820116820180604052508101906140999190615cf5565b60015b61411e573d80600081146140cc576040519150601f19603f3d011682016040523d82523d6000602084013e6140d1565b606091505b506000815103614116576040517f08c379a000000000000000000000000000000000000000000000000000000000815260040161410d90615a71565b60405180910390fd5b805181602001fd5b63150b7a0260e01b7bffffffffffffffffffffffffffffffffffffffffffffffffffffffff1916817bffffffffffffffffffffffffffffffffffffffffffffffffffffffff191614915050614173565b600190505b949350505050565b60606000600161418a8461426c565b01905060008167ffffffffffffffff8111156141a9576141a861484d565b5b6040519080825280601f01601f1916602001820160405280156141db5781602001600182028036833780820191505090505b509050600082602001820190505b60011561423e578080600190039150507f3031323334353637383961626364656600000000000000000000000000000000600a86061a8153600a8581614232576142316157db565b5b049450600085036141e9575b819350505050919050565b6000808273ffffffffffffffffffffffffffffffffffffffff163b119050919050565b600080600090507a184f03e93ff9f4daa797ed6e38ed64bf6a1f01000000000000000083106142ca577a184f03e93ff9f4daa797ed6e38ed64bf6a1f01000000000000000083816142c0576142bf6157db565b5b0492506040810190505b6d04ee2d6d415b85acef81000000008310614307576d04ee2d6d415b85acef810000000083816142fd576142fc6157db565b5b0492506020810190505b662386f26fc10000831061433657662386f26fc10000838161432c5761432b6157db565b5b0492506010810190505b6305f5e100831061435f576305f5e1008381614355576143546157db565b5b0492506008810190505b612710831061438457612710838161437a576143796157db565b5b0492506004810190505b606483106143a7576064838161439d5761439c6157db565b5b0492506002810190505b600a83106143b6576001810190505b80915050919050565b6040518060600160405280600390602082028036833780820191505090505090565b8260038101928215614410579160200282015b8281111561440f5782518255916020019190600101906143f4565b5b50905061441d919061457a565b5090565b508054600082559060005260206000209081019061443f919061457a565b50565b5080546000825590600052602060002090810190614460919061457a565b50565b50805461446f9061501c565b6000825580601f1061448157506144a0565b601f01602090049060005260206000209081019061449f919061457a565b5b50565b82805482825590600052602060002090810192821561451c579160200282015b8281111561451b5782518260006101000a81548173ffffffffffffffffffffffffffffffffffffffff021916908373ffffffffffffffffffffffffffffffffffffffff160217905550916020019190600101906144c3565b5b509050614529919061457a565b5090565b828054828255906000526020600020908101928215614569579160200282015b8281111561456857825182559160200191906001019061454d565b5b509050614576919061457a565b5090565b5b8082111561459357600081600090555060010161457b565b5090565b6000604051905090565b600080fd5b600080fd5b60007fffffffff0000000000000000000000000000000000000000000000000000000082169050919050565b6145e0816145ab565b81146145eb57600080fd5b50565b6000813590506145fd816145d7565b92915050565b600060208284031215614619576146186145a1565b5b6000614627848285016145ee565b91505092915050565b60008115159050919050565b61464581614630565b82525050565b6000602082019050614660600083018461463c565b92915050565b600081519050919050565b600082825260208201905092915050565b60005b838110156146a0578082015181840152602081019050614685565b60008484015250505050565b6000601f19601f8301169050919050565b60006146c882614666565b6146d28185614671565b93506146e2818560208601614682565b6146eb816146ac565b840191505092915050565b6000602082019050818103600083015261471081846146bd565b905092915050565b6000819050919050565b61472b81614718565b811461473657600080fd5b50565b60008135905061474881614722565b92915050565b600060208284031215614764576147636145a1565b5b600061477284828501614739565b91505092915050565b600073ffffffffffffffffffffffffffffffffffffffff82169050919050565b60006147a68261477b565b9050919050565b6147b68161479b565b82525050565b60006020820190506147d160008301846147ad565b92915050565b6147e08161479b565b81146147eb57600080fd5b50565b6000813590506147fd816147d7565b92915050565b6000806040838503121561481a576148196145a1565b5b6000614828858286016147ee565b925050602061483985828601614739565b9150509250929050565b600080fd5b600080fd5b7f4e487b7100000000000000000000000000000000000000000000000000000000600052604160045260246000fd5b614885826146ac565b810181811067ffffffffffffffff821117156148a4576148a361484d565b5b80604052505050565b60006148b7614597565b90506148c3828261487c565b919050565b600067ffffffffffffffff8211156148e3576148e261484d565b5b6148ec826146ac565b9050602081019050919050565b82818337600083830152505050565b600061491b614916846148c8565b6148ad565b90508281526020810184848401111561493757614936614848565b5b6149428482856148f9565b509392505050565b600082601f83011261495f5761495e614843565b5b813561496f848260208601614908565b91505092915050565b60006020828403121561498e5761498d6145a1565b5b600082013567ffffffffffffffff8111156149ac576149ab6145a6565b5b6149b88482850161494a565b91505092915050565b6149ca81614718565b82525050565b60006020820190506149e560008301846149c1565b92915050565b600080600060608486031215614a0457614a036145a1565b5b6000614a12868287016147ee565b9350506020614a23868287016147ee565b9250506040614a3486828701614739565b9150509250925092565b600080600060608486031215614a5757614a566145a1565b5b6000614a6586828701614739565b9350506020614a7686828701614739565b925050604084013567ffffffffffffffff811115614a9757614a966145a6565b5b614aa38682870161494a565b9150509250925092565b600060208284031215614ac357614ac26145a1565b5b6000614ad1848285016147ee565b91505092915050565b614ae381614630565b8114614aee57600080fd5b50565b600081359050614b0081614ada565b92915050565b60008060408385031215614b1d57614b1c6145a1565b5b6000614b2b858286016147ee565b9250506020614b3c85828601614af1565b9150509250929050565b600081519050919050565b600082825260208201905092915050565b6000819050602082019050919050565b614b7b8161479b565b82525050565b6000614b8d8383614b72565b60208301905092915050565b6000602082019050919050565b6000614bb182614b46565b614bbb8185614b51565b9350614bc683614b62565b8060005b83811015614bf7578151614bde8882614b81565b9750614be983614b99565b925050600181019050614bca565b5085935050505092915050565b600081519050919050565b600082825260208201905092915050565b6000819050602082019050919050565b614c3981614718565b82525050565b6000614c4b8383614c30565b60208301905092915050565b6000602082019050919050565b6000614c6f82614c04565b614c798185614c0f565b9350614c8483614c20565b8060005b83811015614cb5578151614c9c8882614c3f565b9750614ca783614c57565b925050600181019050614c88565b5085935050505092915050565b600061010082019050614cd8600083018b6149c1565b8181036020830152614cea818a614ba6565b90508181036040830152614cfe8189614c64565b90508181036060830152614d1281886146bd565b9050614d2160808301876149c1565b614d2e60a08301866149c1565b614d3b60c083018561463c565b614d4860e083018461463c565b9998505050505050505050565b60006020820190508181036000830152614d6f8184614c64565b905092915050565b600067ffffffffffffffff821115614d9257614d9161484d565b5b614d9b826146ac565b9050602081019050919050565b6000614dbb614db684614d77565b6148ad565b905082815260208101848484011115614dd757614dd6614848565b5b614de28482856148f9565b509392505050565b600082601f830112614dff57614dfe614843565b5b8135614e0f848260208601614da8565b91505092915050565b60008060008060808587031215614e3257614e316145a1565b5b6000614e40878288016147ee565b9450506020614e51878288016147ee565b9350506040614e6287828801614739565b925050606085013567ffffffffffffffff811115614e8357614e826145a6565b5b614e8f87828801614dea565b91505092959194509250565b60006020820190508181036000830152614eb58184614ba6565b905092915050565b60008060408385031215614ed457614ed36145a1565b5b6000614ee2858286016147ee565b9250506020614ef3858286016147ee565b9150509250929050565b6000819050919050565b614f1081614efd565b82525050565b600060039050919050565b600081905092915050565b6000819050919050565b6000602082019050919050565b614f4c81614f16565b614f568184614f21565b9250614f6182614f2c565b8060005b83811015614f92578151614f798782614c3f565b9650614f8483614f36565b925050600181019050614f65565b505050505050565b600060e082019050614faf60008301886147ad565b614fbc6020830187614f07565b614fc96040830186614f43565b614fd660a08301856149c1565b614fe360c08301846149c1565b9695505050505050565b7f4e487b7100000000000000000000000000000000000000000000000000000000600052602260045260246000fd5b6000600282049050600182168061503457607f821691505b60208210810361504757615046614fed565b5b50919050565b7f4552433732313a20617070726f76616c20746f2063757272656e74206f776e6560008201527f7200000000000000000000000000000000000000000000000000000000000000602082015250565b60006150a9602183614671565b91506150b48261504d565b604082019050919050565b600060208201905081810360008301526150d88161509c565b9050919050565b7f4552433732313a20617070726f76652063616c6c6572206973206e6f7420746f60008201527f6b656e206f776e6572206f7220617070726f76656420666f7220616c6c000000602082015250565b600061513b603d83614671565b9150615146826150df565b604082019050919050565b6000602082019050818103600083015261516a8161512e565b9050919050565b600063ffffffff82169050919050565b7f4e487b7100000000000000000000000000000000000000000000000000000000600052601160045260246000fd5b60006151bb82615171565b91506151c683615171565b9250828201905063ffffffff8111156151e2576151e1615181565b5b92915050565b7f4552433732313a2063616c6c6572206973206e6f7420746f6b656e206f776e6560008201527f72206f7220617070726f76656400000000000000000000000000000000000000602082015250565b6000615244602d83614671565b915061524f826151e8565b604082019050919050565b6000602082019050818103600083015261527381615237565b9050919050565b60008190508160005260206000209050919050565b60006020601f8301049050919050565b600082821b905092915050565b6000600883026152dc7fffffffffffffffffffffffffffffffffffffffffffffffffffffffffffffffff8261529f565b6152e6868361529f565b95508019841693508086168417925050509392505050565b6000819050919050565b600061532361531e61531984614718565b6152fe565b614718565b9050919050565b6000819050919050565b61533d83615308565b6153516153498261532a565b8484546152ac565b825550505050565b600090565b615366615359565b615371818484615334565b505050565b5b818110156153955761538a60008261535e565b600181019050615377565b5050565b601f8211156153da576153ab8161527a565b6153b48461528f565b810160208510156153c3578190505b6153d76153cf8561528f565b830182615376565b50505b505050565b600082821c905092915050565b60006153fd600019846008026153df565b1980831691505092915050565b600061541683836153ec565b9150826002028217905092915050565b61542f82614666565b67ffffffffffffffff8111156154485761544761484d565b5b615452825461501c565b61545d828285615399565b600060209050601f831160018114615490576000841561547e578287015190505b615488858261540a565b8655506154f0565b601f19841661549e8661527a565b60005b828110156154c6578489015182556001820191506020850194506020810190506154a1565b868310156154e357848901516154df601f8916826153ec565b8355505b6001600288020188555050505b505050505050565b7f4552433732313a20696e76616c696420746f6b656e2049440000000000000000600082015250565b600061552e601883614671565b9150615539826154f8565b602082019050919050565b6000602082019050818103600083015261555d81615521565b9050919050565b600061556f82614718565b91506000820361558257615581615181565b5b600182039050919050565b600061559882614718565b91507fffffffffffffffffffffffffffffffffffffffffffffffffffffffffffffffff82036155ca576155c9615181565b5b600182019050919050565b600060ff82169050919050565b60006155ed826155d5565b915060008203615600576155ff615181565b5b600182039050919050565b60008160030b9050919050565b60006156238261560b565b9150637fffffff820361563957615638615181565b5b600182019050919050565b7f4552433732313a2061646472657373207a65726f206973206e6f74206120766160008201527f6c6964206f776e65720000000000000000000000000000000000000000000000602082015250565b60006156a0602983614671565b91506156ab82615644565b604082019050919050565b600060208201905081810360008301526156cf81615693565b9050919050565b600081905092915050565b60006156ec82614666565b6156f681856156d6565b9350615706818560208601614682565b80840191505092915050565b600061571e82856156e1565b915061572a82846156e1565b91508190509392505050565b600061574182614718565b915061574c83614718565b925082820390508181111561576457615763615181565b5b92915050565b7f4e487b7100000000000000000000000000000000000000000000000000000000600052603260045260246000fd5b60006157a482614718565b91506157af83614718565b92508282026157bd81614718565b915082820484148315176157d4576157d3615181565b5b5092915050565b7f4e487b7100000000000000000000000000000000000000000000000000000000600052601260045260246000fd5b600061581582614718565b915061582083614718565b9250826158305761582f6157db565b5b828204905092915050565b600061584682614718565b915061585183614718565b925082820190508082111561586957615868615181565b5b92915050565b7f4552433732313a207472616e736665722066726f6d20696e636f72726563742060008201527f6f776e6572000000000000000000000000000000000000000000000000000000602082015250565b60006158cb602583614671565b91506158d68261586f565b604082019050919050565b600060208201905081810360008301526158fa816158be565b9050919050565b7f4552433732313a207472616e7366657220746f20746865207a65726f2061646460008201527f7265737300000000000000000000000000000000000000000000000000000000602082015250565b600061595d602483614671565b915061596882615901565b604082019050919050565b6000602082019050818103600083015261598c81615950565b9050919050565b7f4552433732313a20617070726f766520746f2063616c6c657200000000000000600082015250565b60006159c9601983614671565b91506159d482615993565b602082019050919050565b600060208201905081810360008301526159f8816159bc565b9050919050565b7f4552433732313a207472616e7366657220746f206e6f6e20455243373231526560008201527f63656976657220696d706c656d656e7465720000000000000000000000000000602082015250565b6000615a5b603283614671565b9150615a66826159ff565b604082019050919050565b60006020820190508181036000830152615a8a81615a4e565b9050919050565b6000615a9c82614efd565b9150615aa783614efd565b925082820190508281121560008312168382126000841215161715615acf57615ace615181565b5b92915050565b7f4552433732313a206d696e7420746f20746865207a65726f2061646472657373600082015250565b6000615b0b602083614671565b9150615b1682615ad5565b602082019050919050565b60006020820190508181036000830152615b3a81615afe565b9050919050565b7f4552433732313a20746f6b656e20616c7265616479206d696e74656400000000600082015250565b6000615b77601c83614671565b9150615b8282615b41565b602082019050919050565b60006020820190508181036000830152615ba681615b6a565b9050919050565b7f45524337323155524953746f726167653a2055524920736574206f66206e6f6e60008201527f6578697374656e7420746f6b656e000000000000000000000000000000000000602082015250565b6000615c09602e83614671565b9150615c1482615bad565b604082019050919050565b60006020820190508181036000830152615c3881615bfc565b9050919050565b600081519050919050565b600082825260208201905092915050565b6000615c6682615c3f565b615c708185615c4a565b9350615c80818560208601614682565b615c89816146ac565b840191505092915050565b6000608082019050615ca960008301876147ad565b615cb660208301866147ad565b615cc360408301856149c1565b8181036060830152615cd58184615c5b565b905095945050505050565b600081519050615cef816145d7565b92915050565b600060208284031215615d0b57615d0a6145a1565b5b6000615d1984828501615ce0565b9150509291505056fea264697066735822122023ec4c13e4bd2e011caef01d12d31a2f0d0c0d67c1dc60739ab04771e59cb64e64736f6c63430008110033",
  "linkReferences": {},
  "deployedLinkReferences": {}
}