{
  "_format": "hh-sol-artifact-1",
  "contractName": "Competition",
  "sourceName": "contracts/Competition.sol",
  "abi": [
    {
      "inputs": [],
      "stateMutability": "nonpayable",
      "type": "constructor"
    },
    {
      "anonymous": false,
      "inputs": [
        {
          "indexed": true,
          "internalType": "address",
          "name": "owner",
          "type": "address"
        },
        {
          "indexed": true,
          "internalType": "address",
          "name": "approved",
          "type": "address"
        },
        {
          "indexed": true,
          "internalType": "uint256",
          "name": "tokenId",
          "type": "uint256"
        }
      ],
      "name": "Approval",
      "type": "event"
    },
    {
      "anonymous": false,
      "inputs": [
        {
          "indexed": true,
          "internalType": "address",
          "name": "owner",
          "type": "address"
        },
        {
          "indexed": true,
          "internalType": "address",
          "name": "operator",
          "type": "address"
        },
        {
          "indexed": false,
          "internalType": "bool",
          "name": "approved",
          "type": "bool"
        }
      ],
      "name": "ApprovalForAll",
      "type": "event"
    },
    {
      "anonymous": false,
      "inputs": [
        {
          "indexed": true,
          "internalType": "address",
          "name": "previousOwner",
          "type": "address"
        },
        {
          "indexed": true,
          "internalType": "address",
          "name": "newOwner",
          "type": "address"
        }
      ],
      "name": "OwnershipTransferred",
      "type": "event"
    },
    {
      "anonymous": false,
      "inputs": [
        {
          "indexed": true,
          "internalType": "address",
          "name": "from",
          "type": "address"
        },
        {
          "indexed": true,
          "internalType": "address",
          "name": "to",
          "type": "address"
        },
        {
          "indexed": true,
          "internalType": "uint256",
          "name": "tokenId",
          "type": "uint256"
        }
      ],
      "name": "Transfer",
      "type": "event"
    },
    {
      "inputs": [
        {
          "internalType": "address",
          "name": "to",
          "type": "address"
        },
        {
          "internalType": "uint256",
          "name": "tokenId",
          "type": "uint256"
        }
      ],
      "name": "approve",
      "outputs": [],
      "stateMutability": "nonpayable",
      "type": "function"
    },
    {
      "inputs": [
        {
          "internalType": "address",
          "name": "owner",
          "type": "address"
        }
      ],
      "name": "balanceOf",
      "outputs": [
        {
          "internalType": "uint256",
          "name": "",
          "type": "uint256"
        }
      ],
      "stateMutability": "view",
      "type": "function"
    },
    {
      "inputs": [],
      "name": "buyin",
      "outputs": [],
      "stateMutability": "payable",
      "type": "function"
    },
    {
      "inputs": [],
      "name": "endCompetition",
      "outputs": [],
      "stateMutability": "nonpayable",
      "type": "function"
    },
    {
      "inputs": [
        {
          "internalType": "uint256",
          "name": "tokenId",
          "type": "uint256"
        }
      ],
      "name": "getApproved",
      "outputs": [
        {
          "internalType": "address",
          "name": "",
          "type": "address"
        }
      ],
      "stateMutability": "view",
      "type": "function"
    },
    {
      "inputs": [],
      "name": "getBalanceOfContract",
      "outputs": [
        {
          "internalType": "uint256",
          "name": "",
          "type": "uint256"
        }
      ],
      "stateMutability": "view",
      "type": "function"
    },
    {
      "inputs": [],
      "name": "getCompetitionStats",
      "outputs": [
        {
          "internalType": "uint256",
          "name": "",
          "type": "uint256"
        },
        {
          "internalType": "address[]",
          "name": "",
          "type": "address[]"
        },
        {
          "internalType": "string",
          "name": "",
          "type": "string"
        },
        {
          "internalType": "uint256",
          "name": "",
          "type": "uint256"
        },
        {
          "internalType": "uint256",
          "name": "",
          "type": "uint256"
        },
        {
          "internalType": "bool",
          "name": "",
          "type": "bool"
        }
      ],
      "stateMutability": "view",
      "type": "function"
    },
    {
      "inputs": [
        {
          "internalType": "address",
          "name": "competitors",
          "type": "address"
        }
      ],
      "name": "getCompetitorStats",
      "outputs": [
        {
          "internalType": "address",
          "name": "",
          "type": "address"
        },
        {
          "internalType": "int256",
          "name": "",
          "type": "int256"
        },
        {
          "internalType": "int256",
          "name": "",
          "type": "int256"
        },
        {
          "internalType": "uint256[3]",
          "name": "",
          "type": "uint256[3]"
        },
        {
          "internalType": "uint256",
          "name": "",
          "type": "uint256"
        },
        {
          "internalType": "uint256",
          "name": "",
          "type": "uint256"
        }
      ],
      "stateMutability": "view",
      "type": "function"
    },
    {
      "inputs": [],
      "name": "getWinners",
      "outputs": [
        {
          "internalType": "address[]",
          "name": "",
          "type": "address[]"
        }
      ],
      "stateMutability": "view",
      "type": "function"
    },
    {
      "inputs": [
        {
          "internalType": "address",
          "name": "owner",
          "type": "address"
        },
        {
          "internalType": "address",
          "name": "operator",
          "type": "address"
        }
      ],
      "name": "isApprovedForAll",
      "outputs": [
        {
          "internalType": "bool",
          "name": "",
          "type": "bool"
        }
      ],
      "stateMutability": "view",
      "type": "function"
    },
    {
      "inputs": [
        {
          "internalType": "string",
          "name": "tokenURI",
          "type": "string"
        }
      ],
      "name": "mintNFT",
      "outputs": [
        {
          "internalType": "uint256",
          "name": "",
          "type": "uint256"
        }
      ],
      "stateMutability": "nonpayable",
      "type": "function"
    },
    {
      "inputs": [],
      "name": "name",
      "outputs": [
        {
          "internalType": "string",
          "name": "",
          "type": "string"
        }
      ],
      "stateMutability": "view",
      "type": "function"
    },
    {
      "inputs": [],
      "name": "owner",
      "outputs": [
        {
          "internalType": "address",
          "name": "",
          "type": "address"
        }
      ],
      "stateMutability": "view",
      "type": "function"
    },
    {
      "inputs": [
        {
          "internalType": "uint256",
          "name": "tokenId",
          "type": "uint256"
        }
      ],
      "name": "ownerOf",
      "outputs": [
        {
          "internalType": "address",
          "name": "",
          "type": "address"
        }
      ],
      "stateMutability": "view",
      "type": "function"
    },
    {
      "inputs": [],
      "name": "renounceOwnership",
      "outputs": [],
      "stateMutability": "nonpayable",
      "type": "function"
    },
    {
      "inputs": [
        {
          "internalType": "address",
          "name": "from",
          "type": "address"
        },
        {
          "internalType": "address",
          "name": "to",
          "type": "address"
        },
        {
          "internalType": "uint256",
          "name": "tokenId",
          "type": "uint256"
        }
      ],
      "name": "safeTransferFrom",
      "outputs": [],
      "stateMutability": "nonpayable",
      "type": "function"
    },
    {
      "inputs": [
        {
          "internalType": "address",
          "name": "from",
          "type": "address"
        },
        {
          "internalType": "address",
          "name": "to",
          "type": "address"
        },
        {
          "internalType": "uint256",
          "name": "tokenId",
          "type": "uint256"
        },
        {
          "internalType": "bytes",
          "name": "data",
          "type": "bytes"
        }
      ],
      "name": "safeTransferFrom",
      "outputs": [],
      "stateMutability": "nonpayable",
      "type": "function"
    },
    {
      "inputs": [
        {
          "internalType": "address",
          "name": "operator",
          "type": "address"
        },
        {
          "internalType": "bool",
          "name": "approved",
          "type": "bool"
        }
      ],
      "name": "setApprovalForAll",
      "outputs": [],
      "stateMutability": "nonpayable",
      "type": "function"
    },
    {
      "inputs": [
        {
          "internalType": "uint256",
          "name": "spots",
          "type": "uint256"
        },
        {
          "internalType": "uint256",
          "name": "cost",
          "type": "uint256"
        },
        {
          "internalType": "string",
          "name": "typeComp",
          "type": "string"
        }
      ],
      "name": "startCompetition",
      "outputs": [],
      "stateMutability": "nonpayable",
      "type": "function"
    },
    {
      "inputs": [
        {
          "internalType": "bytes4",
          "name": "interfaceId",
          "type": "bytes4"
        }
      ],
      "name": "supportsInterface",
      "outputs": [
        {
          "internalType": "bool",
          "name": "",
          "type": "bool"
        }
      ],
      "stateMutability": "view",
      "type": "function"
    },
    {
      "inputs": [],
      "name": "symbol",
      "outputs": [
        {
          "internalType": "string",
          "name": "",
          "type": "string"
        }
      ],
      "stateMutability": "view",
      "type": "function"
    },
    {
      "inputs": [
        {
          "internalType": "uint256",
          "name": "tokenId",
          "type": "uint256"
        }
      ],
      "name": "tokenURI",
      "outputs": [
        {
          "internalType": "string",
          "name": "",
          "type": "string"
        }
      ],
      "stateMutability": "view",
      "type": "function"
    },
    {
      "inputs": [
        {
          "internalType": "address",
          "name": "from",
          "type": "address"
        },
        {
          "internalType": "address",
          "name": "to",
          "type": "address"
        },
        {
          "internalType": "uint256",
          "name": "tokenId",
          "type": "uint256"
        }
      ],
      "name": "transferFrom",
      "outputs": [],
      "stateMutability": "nonpayable",
      "type": "function"
    },
    {
      "inputs": [
        {
          "internalType": "address",
          "name": "newOwner",
          "type": "address"
        }
      ],
      "name": "transferOwnership",
      "outputs": [],
      "stateMutability": "nonpayable",
      "type": "function"
    },
    {
      "inputs": [
        {
          "internalType": "address",
          "name": "voteFor",
          "type": "address"
        }
      ],
      "name": "vote",
      "outputs": [],
      "stateMutability": "nonpayable",
      "type": "function"
    },
    {
      "inputs": [],
      "name": "withdrawMoney",
      "outputs": [],
      "stateMutability": "nonpayable",
      "type": "function"
    }
  ],
  "bytecode": "0x60806040523480156200001157600080fd5b506040518060400160405280600b81526020017f776176706f6f6c204e46540000000000000000000000000000000000000000008152506040518060400160405280600481526020017f574156500000000000000000000000000000000000000000000000000000000081525081600090816200008f919062000443565b508060019081620000a1919062000443565b505050620000c4620000b8620000fb60201b60201c565b6200010360201b60201c565b6000600a6000600b54815260200190815260200160002060050160006101000a81548160ff0219169083151502179055506200052a565b600033905090565b6000600760009054906101000a900473ffffffffffffffffffffffffffffffffffffffff16905081600760006101000a81548173ffffffffffffffffffffffffffffffffffffffff021916908373ffffffffffffffffffffffffffffffffffffffff1602179055508173ffffffffffffffffffffffffffffffffffffffff168173ffffffffffffffffffffffffffffffffffffffff167f8be0079c531659141344cd1fd0a4f28419497f9722a3daafe3b4186f6b6457e060405160405180910390a35050565b600081519050919050565b7f4e487b7100000000000000000000000000000000000000000000000000000000600052604160045260246000fd5b7f4e487b7100000000000000000000000000000000000000000000000000000000600052602260045260246000fd5b600060028204905060018216806200024b57607f821691505b60208210810362000261576200026062000203565b5b50919050565b60008190508160005260206000209050919050565b60006020601f8301049050919050565b600082821b905092915050565b600060088302620002cb7fffffffffffffffffffffffffffffffffffffffffffffffffffffffffffffffff826200028c565b620002d786836200028c565b95508019841693508086168417925050509392505050565b6000819050919050565b6000819050919050565b6000620003246200031e6200031884620002ef565b620002f9565b620002ef565b9050919050565b6000819050919050565b620003408362000303565b620003586200034f826200032b565b84845462000299565b825550505050565b600090565b6200036f62000360565b6200037c81848462000335565b505050565b5b81811015620003a4576200039860008262000365565b60018101905062000382565b5050565b601f821115620003f357620003bd8162000267565b620003c8846200027c565b81016020851015620003d8578190505b620003f0620003e7856200027c565b83018262000381565b50505b505050565b600082821c905092915050565b60006200041860001984600802620003f8565b1980831691505092915050565b600062000433838362000405565b9150826002028217905092915050565b6200044e82620001c9565b67ffffffffffffffff8111156200046a5762000469620001d4565b5b62000476825462000232565b62000483828285620003a8565b600060209050601f831160018114620004bb5760008415620004a6578287015190505b620004b2858262000425565b86555062000522565b601f198416620004cb8662000267565b60005b82811015620004f557848901518255600182019150602085019450602081019050620004ce565b8683101562000515578489015162000511601f89168262000405565b8355505b6001600288020188555050505b505050505050565b6153d5806200053a6000396000f3fe6080604052600436106101815760003560e01c80638da5cb5b116100d1578063c87b56dd1161008a578063f2fde38b11610064578063f2fde38b14610552578063f50925211461057b578063f80eca22146105bd578063fb37e883146105d457610181565b8063c87b56dd146104ad578063df15c37e146104ea578063e985e9c51461051557610181565b80638da5cb5b146103be57806395d89b41146103e9578063a22cb46514610414578063a789ab3a1461043d578063ac4460021461046d578063b88d4fde1461048457610181565b806342842e0e1161013e578063697660791161011857806369766079146103375780636dd7d8ea1461034157806370a082311461036a578063715018a6146103a757610181565b806342842e0e146102a857806355f1d172146102d15780636352211e146102fa57610181565b806301ffc9a71461018657806306fdde03146101c3578063081812fc146101ee578063095ea7b31461022b578063229688851461025457806323b872dd1461027f575b600080fd5b34801561019257600080fd5b506101ad60048036038101906101a891906138a0565b610611565b6040516101ba91906138e8565b60405180910390f35b3480156101cf57600080fd5b506101d86106f3565b6040516101e59190613993565b60405180910390f35b3480156101fa57600080fd5b50610215600480360381019061021091906139eb565b610785565b6040516102229190613a59565b60405180910390f35b34801561023757600080fd5b50610252600480360381019061024d9190613aa0565b6107cb565b005b34801561026057600080fd5b506102696108e2565b6040516102769190613aef565b60405180910390f35b34801561028b57600080fd5b506102a660048036038101906102a19190613b0a565b6108f2565b005b3480156102b457600080fd5b506102cf60048036038101906102ca9190613b0a565b610952565b005b3480156102dd57600080fd5b506102f860048036038101906102f39190613c92565b610972565b005b34801561030657600080fd5b50610321600480360381019061031c91906139eb565b610a60565b60405161032e9190613a59565b60405180910390f35b61033f610ae6565b005b34801561034d57600080fd5b5061036860048036038101906103639190613d01565b610fd5565b005b34801561037657600080fd5b50610391600480360381019061038c9190613d01565b6111c6565b60405161039e9190613aef565b60405180910390f35b3480156103b357600080fd5b506103bc61127d565b005b3480156103ca57600080fd5b506103d3611291565b6040516103e09190613a59565b60405180910390f35b3480156103f557600080fd5b506103fe6112bb565b60405161040b9190613993565b60405180910390f35b34801561042057600080fd5b5061043b60048036038101906104369190613d5a565b61134d565b005b34801561044957600080fd5b50610452611363565b60405161046496959493929190613e58565b60405180910390f35b34801561047957600080fd5b50610482611536565b005b34801561049057600080fd5b506104ab60048036038101906104a69190613f68565b611594565b005b3480156104b957600080fd5b506104d460048036038101906104cf91906139eb565b6115f6565b6040516104e19190613993565b60405180910390f35b3480156104f657600080fd5b506104ff611708565b60405161050c9190613feb565b60405180910390f35b34801561052157600080fd5b5061053c6004803603810190610537919061400d565b6117fe565b60405161054991906138e8565b60405180910390f35b34801561055e57600080fd5b5061057960048036038101906105749190613d01565b611892565b005b34801561058757600080fd5b506105a2600480360381019061059d9190613d01565b611915565b6040516105b496959493929190614111565b60405180910390f35b3480156105c957600080fd5b506105d2611b2a565b005b3480156105e057600080fd5b506105fb60048036038101906105f69190614173565b6121a9565b6040516106089190613aef565b60405180910390f35b60007f80ac58cd000000000000000000000000000000000000000000000000000000007bffffffffffffffffffffffffffffffffffffffffffffffffffffffff1916827bffffffffffffffffffffffffffffffffffffffffffffffffffffffff191614806106dc57507f5b5e139f000000000000000000000000000000000000000000000000000000007bffffffffffffffffffffffffffffffffffffffffffffffffffffffff1916827bffffffffffffffffffffffffffffffffffffffffffffffffffffffff1916145b806106ec57506106eb82612360565b5b9050919050565b606060008054610702906141eb565b80601f016020809104026020016040519081016040528092919081815260200182805461072e906141eb565b801561077b5780601f106107505761010080835404028352916020019161077b565b820191906000526020600020905b81548152906001019060200180831161075e57829003601f168201915b5050505050905090565b6000610790826123ca565b6004600083815260200190815260200160002060009054906101000a900473ffffffffffffffffffffffffffffffffffffffff169050919050565b60006107d682610a60565b90508073ffffffffffffffffffffffffffffffffffffffff168373ffffffffffffffffffffffffffffffffffffffff1603610846576040517f08c379a000000000000000000000000000000000000000000000000000000000815260040161083d9061428e565b60405180910390fd5b8073ffffffffffffffffffffffffffffffffffffffff16610865612415565b73ffffffffffffffffffffffffffffffffffffffff16148061089457506108938161088e612415565b6117fe565b5b6108d3576040517f08c379a00000000000000000000000000000000000000000000000000000000081526004016108ca90614320565b60405180910390fd5b6108dd838361241d565b505050565b60006108ec6124d6565b47905090565b6109036108fd612415565b82612554565b610942576040517f08c379a0000000000000000000000000000000000000000000000000000000008152600401610939906143b2565b60405180910390fd5b61094d8383836125e9565b505050565b61096d83838360405180602001604052806000815250611594565b505050565b61097a6124d6565b60606040518060e00160405280828152602001828152602001848152602001858152602001600b54815260200160011515815260200183815250600a6000600b54815260200190815260200160002060008201518160000190805190602001906109e592919061372b565b506020820151816001019080519060200190610a0292919061372b565b5060408201518160020155606082015181600301556080820151816004015560a08201518160050160006101000a81548160ff02191690831515021790555060c0820151816006019081610a56919061457e565b5090505050505050565b600080610a6c836128e2565b9050600073ffffffffffffffffffffffffffffffffffffffff168173ffffffffffffffffffffffffffffffffffffffff1603610add576040517f08c379a0000000000000000000000000000000000000000000000000000000008152600401610ad49061469c565b60405180910390fd5b80915050919050565b610aee61291f565b15610b2e576040517f08c379a0000000000000000000000000000000000000000000000000000000008152600401610b259061472e565b60405180910390fd5b6000600a6000600b5481526020019081526020016000206003015411610b89576040517f08c379a0000000000000000000000000000000000000000000000000000000008152600401610b809061479a565b60405180910390fd5b600a6000600b548152602001908152602001600020600201543414610be3576040517f08c379a0000000000000000000000000000000000000000000000000000000008152600401610bda90614806565b60405180910390fd5b610beb6137b5565b3373ffffffffffffffffffffffffffffffffffffffff16600960003373ffffffffffffffffffffffffffffffffffffffff1673ffffffffffffffffffffffffffffffffffffffff16815260200190815260200160002060000160009054906101000a900473ffffffffffffffffffffffffffffffffffffffff1673ffffffffffffffffffffffffffffffffffffffff1614610df6576040518061010001604052803373ffffffffffffffffffffffffffffffffffffffff16815260200160008152602001600081526020016001815260200160008152602001600081526020018281526020016000815250600960003373ffffffffffffffffffffffffffffffffffffffff1673ffffffffffffffffffffffffffffffffffffffff16815260200190815260200160002060008201518160000160006101000a81548173ffffffffffffffffffffffffffffffffffffffff021916908373ffffffffffffffffffffffffffffffffffffffff1602179055506020820151816001015560408201518160020155606082015181600301556080820151816004015560a0820151816005015560c082015181600601906003610da59291906137d7565b5060e08201518160090155905050610df16040518060400160405280600381526020017f6e657700000000000000000000000000000000000000000000000000000000008152506129f7565b610ecf565b6001600960003373ffffffffffffffffffffffffffffffffffffffff1673ffffffffffffffffffffffffffffffffffffffff168152602001908152602001600020600301819055506000600960003373ffffffffffffffffffffffffffffffffffffffff1673ffffffffffffffffffffffffffffffffffffffff168152602001908152602001600020600401819055506000600960003373ffffffffffffffffffffffffffffffffffffffff1673ffffffffffffffffffffffffffffffffffffffff168152602001908152602001600020600101819055505b600a6000600b548152602001908152602001600020600001339080600181540180825580915050600190039060005260206000200160009091909190916101000a81548173ffffffffffffffffffffffffffffffffffffffff021916908373ffffffffffffffffffffffffffffffffffffffff1602179055506001600a6000600b5481526020019081526020016000206003016000828254610f719190614855565b925050819055506001600960003373ffffffffffffffffffffffffffffffffffffffff1673ffffffffffffffffffffffffffffffffffffffff1681526020019081526020016000206009016000828254610fcb9190614889565b9250508190555050565b610fdd61291f565b61101c576040517f08c379a000000000000000000000000000000000000000000000000000000000815260040161101390614955565b60405180910390fd5b6001600960003373ffffffffffffffffffffffffffffffffffffffff1673ffffffffffffffffffffffffffffffffffffffff16815260200190815260200160002060030154146110a1576040517f08c379a0000000000000000000000000000000000000000000000000000000008152600401611098906149e7565b60405180910390fd5b8073ffffffffffffffffffffffffffffffffffffffff163373ffffffffffffffffffffffffffffffffffffffff160361110f576040517f08c379a000000000000000000000000000000000000000000000000000000000815260040161110690614a79565b60405180910390fd5b6001600960003373ffffffffffffffffffffffffffffffffffffffff1673ffffffffffffffffffffffffffffffffffffffff16815260200190815260200160002060030160008282546111629190614855565b925050819055506001600960008373ffffffffffffffffffffffffffffffffffffffff1673ffffffffffffffffffffffffffffffffffffffff16815260200190815260200160002060040160008282546111bc9190614a99565b9250508190555050565b60008073ffffffffffffffffffffffffffffffffffffffff168273ffffffffffffffffffffffffffffffffffffffff1603611236576040517f08c379a000000000000000000000000000000000000000000000000000000000815260040161122d90614b4f565b60405180910390fd5b600360008373ffffffffffffffffffffffffffffffffffffffff1673ffffffffffffffffffffffffffffffffffffffff168152602001908152602001600020549050919050565b6112856124d6565b61128f6000612a90565b565b6000600760009054906101000a900473ffffffffffffffffffffffffffffffffffffffff16905090565b6060600180546112ca906141eb565b80601f01602080910402602001604051908101604052809291908181526020018280546112f6906141eb565b80156113435780601f1061131857610100808354040283529160200191611343565b820191906000526020600020905b81548152906001019060200180831161132657829003601f168201915b5050505050905090565b61135f611358612415565b8383612b56565b5050565b60006060806000806000600a6000600b54815260200190815260200160002060040154600a6000600b548152602001908152602001600020600001600a6000600b548152602001908152602001600020600601600a6000600b54815260200190815260200160002060030154600a6000600b54815260200190815260200160002060020154600a6000600b54815260200190815260200160002060050160009054906101000a900460ff168480548060200260200160405190810160405280929190818152602001828054801561148f57602002820191906000526020600020905b8160009054906101000a900473ffffffffffffffffffffffffffffffffffffffff1673ffffffffffffffffffffffffffffffffffffffff1681526020019060010190808311611445575b505050505094508380546114a2906141eb565b80601f01602080910402602001604051908101604052809291908181526020018280546114ce906141eb565b801561151b5780601f106114f05761010080835404028352916020019161151b565b820191906000526020600020905b8154815290600101906020018083116114fe57829003601f168201915b50505050509350955095509550955095509550909192939495565b61153e6124d6565b60003390508073ffffffffffffffffffffffffffffffffffffffff166108fc6115656108e2565b9081150290604051600060405180830381858888f19350505050158015611590573d6000803e3d6000fd5b5050565b6115a561159f612415565b83612554565b6115e4576040517f08c379a00000000000000000000000000000000000000000000000000000000081526004016115db906143b2565b60405180910390fd5b6115f084848484612cc2565b50505050565b6060611601826123ca565b6000600660008481526020019081526020016000208054611621906141eb565b80601f016020809104026020016040519081016040528092919081815260200182805461164d906141eb565b801561169a5780601f1061166f5761010080835404028352916020019161169a565b820191906000526020600020905b81548152906001019060200180831161167d57829003601f168201915b5050505050905060006116ab612d1e565b905060008151036116c0578192505050611703565b6000825111156116f55780826040516020016116dd929190614bab565b60405160208183030381529060405292505050611703565b6116fe84612d35565b925050505b919050565b60606001600b541015611750576040517f08c379a000000000000000000000000000000000000000000000000000000000815260040161174790614c41565b60405180910390fd5b600a60006001600b546117639190614855565b81526020019081526020016000206001018054806020026020016040519081016040528092919081815260200182805480156117f457602002820191906000526020600020905b8160009054906101000a900473ffffffffffffffffffffffffffffffffffffffff1673ffffffffffffffffffffffffffffffffffffffff16815260200190600101908083116117aa575b5050505050905090565b6000600560008473ffffffffffffffffffffffffffffffffffffffff1673ffffffffffffffffffffffffffffffffffffffff16815260200190815260200160002060008373ffffffffffffffffffffffffffffffffffffffff1673ffffffffffffffffffffffffffffffffffffffff16815260200190815260200160002060009054906101000a900460ff16905092915050565b61189a6124d6565b600073ffffffffffffffffffffffffffffffffffffffff168173ffffffffffffffffffffffffffffffffffffffff1603611909576040517f08c379a000000000000000000000000000000000000000000000000000000000815260040161190090614cd3565b60405180910390fd5b61191281612a90565b50565b60008060006119226137b5565b600080600960008873ffffffffffffffffffffffffffffffffffffffff1673ffffffffffffffffffffffffffffffffffffffff16815260200190815260200160002060000160009054906101000a900473ffffffffffffffffffffffffffffffffffffffff16600960008973ffffffffffffffffffffffffffffffffffffffff1673ffffffffffffffffffffffffffffffffffffffff16815260200190815260200160002060040154600960008a73ffffffffffffffffffffffffffffffffffffffff1673ffffffffffffffffffffffffffffffffffffffff16815260200190815260200160002060050154600960008b73ffffffffffffffffffffffffffffffffffffffff1673ffffffffffffffffffffffffffffffffffffffff168152602001908152602001600020600601600960008c73ffffffffffffffffffffffffffffffffffffffff1673ffffffffffffffffffffffffffffffffffffffff16815260200190815260200160002060090154600960008d73ffffffffffffffffffffffffffffffffffffffff1673ffffffffffffffffffffffffffffffffffffffff1681526020019081526020016000206002015482600380602002604051908101604052809291908260038015611b0e576020028201915b815481526020019060010190808311611afa575b5050505050925095509550955095509550955091939550919395565b611b326124d6565b6002600f5411611f815760005b600a6000600b54815260200190815260200160002060000180549050811015611e3e57600d5460096000600a6000600b5481526020019081526020016000206000018481548110611b9357611b92614cf3565b5b9060005260206000200160009054906101000a900473ffffffffffffffffffffffffffffffffffffffff1673ffffffffffffffffffffffffffffffffffffffff1673ffffffffffffffffffffffffffffffffffffffff16815260200190815260200160002060040154138015611c8a5750600073ffffffffffffffffffffffffffffffffffffffff16600a6000600b5481526020019081526020016000206000018281548110611c4657611c45614cf3565b5b9060005260206000200160009054906101000a900473ffffffffffffffffffffffffffffffffffffffff1673ffffffffffffffffffffffffffffffffffffffff1614155b15611e2b5760096000600a6000600b5481526020019081526020016000206000018381548110611cbd57611cbc614cf3565b5b9060005260206000200160009054906101000a900473ffffffffffffffffffffffffffffffffffffffff1673ffffffffffffffffffffffffffffffffffffffff1673ffffffffffffffffffffffffffffffffffffffff16815260200190815260200160002060000160009054906101000a900473ffffffffffffffffffffffffffffffffffffffff16600c60006101000a81548173ffffffffffffffffffffffffffffffffffffffff021916908373ffffffffffffffffffffffffffffffffffffffff16021790555060096000600a6000600b5481526020019081526020016000206000018381548110611db457611db3614cf3565b5b9060005260206000200160009054906101000a900473ffffffffffffffffffffffffffffffffffffffff1673ffffffffffffffffffffffffffffffffffffffff1673ffffffffffffffffffffffffffffffffffffffff16815260200190815260200160002060040154600d8190555080600e819055505b8080611e3690614d22565b915050611b3f565b50600a6000600b548152602001908152602001600020600101600c60009054906101000a900473ffffffffffffffffffffffffffffffffffffffff169080600181540180825580915050600190039060005260206000200160009091909190916101000a81548173ffffffffffffffffffffffffffffffffffffffff021916908373ffffffffffffffffffffffffffffffffffffffff160217905550600a6000600b548152602001908152602001600020600001600e5481548110611f0657611f05614cf3565b5b9060005260206000200160006101000a81549073ffffffffffffffffffffffffffffffffffffffff02191690557fffffffffffffffffffffffffffffffffffffffffffffffffffffffffffffffff600d819055506001600f6000828254611f6d9190614889565b92505081905550611f7c611b2a565b6121a7565b60006002600a6000600b54815260200190815260200160002060000180549050600a6000600b54815260200190815260200160002060020154611fc49190614d6a565b611fce9190614ddb565b905060005b600a6000600b5481526020019081526020016000206001018054905081101561217a576002826120039190614ddb565b91506000600a6000600b548152602001908152602001600020600101828154811061203157612030614cf3565b5b9060005260206000200160009054906101000a900473ffffffffffffffffffffffffffffffffffffffff1690508073ffffffffffffffffffffffffffffffffffffffff166108fc849081150290604051600060405180830381858888f193505050501580156120a4573d6000803e3d6000fd5b50600160096000600a6000600b54815260200190815260200160002060010185815481106120d5576120d4614cf3565b5b9060005260206000200160009054906101000a900473ffffffffffffffffffffffffffffffffffffffff1673ffffffffffffffffffffffffffffffffffffffff1673ffffffffffffffffffffffffffffffffffffffff168152602001908152602001600020600601836003811061214f5761214e614cf3565b5b01600082825461215f9190614889565b9250508190555050808061217290614d22565b915050611fd3565b50612183612d9d565b6001600b60008282546121969190614889565b925050819055506000600f81905550505b565b60006121b361291f565b6121f2576040517f08c379a00000000000000000000000000000000000000000000000000000000081526004016121e990614955565b60405180910390fd5b6001600960003373ffffffffffffffffffffffffffffffffffffffff1673ffffffffffffffffffffffffffffffffffffffff1681526020019081526020016000206001015410612277576040517f08c379a000000000000000000000000000000000000000000000000000000000815260040161226e90614ea4565b60405180910390fd5b6122816008612f1c565b600061228d6008612f32565b90506122993382612f40565b6122a3818461315d565b6001600960003373ffffffffffffffffffffffffffffffffffffffff1673ffffffffffffffffffffffffffffffffffffffff16815260200190815260200160002060010160008282546122f69190614889565b925050819055506001600960003373ffffffffffffffffffffffffffffffffffffffff1673ffffffffffffffffffffffffffffffffffffffff16815260200190815260200160002060020160008282546123509190614889565b9250508190555080915050919050565b60007f01ffc9a7000000000000000000000000000000000000000000000000000000007bffffffffffffffffffffffffffffffffffffffffffffffffffffffff1916827bffffffffffffffffffffffffffffffffffffffffffffffffffffffff1916149050919050565b6123d3816131ca565b612412576040517f08c379a00000000000000000000000000000000000000000000000000000000081526004016124099061469c565b60405180910390fd5b50565b600033905090565b816004600083815260200190815260200160002060006101000a81548173ffffffffffffffffffffffffffffffffffffffff021916908373ffffffffffffffffffffffffffffffffffffffff160217905550808273ffffffffffffffffffffffffffffffffffffffff1661249083610a60565b73ffffffffffffffffffffffffffffffffffffffff167f8c5be1e5ebec7d5bd14f71427d1e84f3dd0314c0f7b2291e5b200ac8c7c3b92560405160405180910390a45050565b6124de612415565b73ffffffffffffffffffffffffffffffffffffffff166124fc611291565b73ffffffffffffffffffffffffffffffffffffffff1614612552576040517f08c379a000000000000000000000000000000000000000000000000000000000815260040161254990614f10565b60405180910390fd5b565b60008061256083610a60565b90508073ffffffffffffffffffffffffffffffffffffffff168473ffffffffffffffffffffffffffffffffffffffff1614806125a257506125a181856117fe565b5b806125e057508373ffffffffffffffffffffffffffffffffffffffff166125c884610785565b73ffffffffffffffffffffffffffffffffffffffff16145b91505092915050565b8273ffffffffffffffffffffffffffffffffffffffff1661260982610a60565b73ffffffffffffffffffffffffffffffffffffffff161461265f576040517f08c379a000000000000000000000000000000000000000000000000000000000815260040161265690614fa2565b60405180910390fd5b600073ffffffffffffffffffffffffffffffffffffffff168273ffffffffffffffffffffffffffffffffffffffff16036126ce576040517f08c379a00000000000000000000000000000000000000000000000000000000081526004016126c590615034565b60405180910390fd5b6126db838383600161320b565b8273ffffffffffffffffffffffffffffffffffffffff166126fb82610a60565b73ffffffffffffffffffffffffffffffffffffffff1614612751576040517f08c379a000000000000000000000000000000000000000000000000000000000815260040161274890614fa2565b60405180910390fd5b6004600082815260200190815260200160002060006101000a81549073ffffffffffffffffffffffffffffffffffffffff02191690556001600360008573ffffffffffffffffffffffffffffffffffffffff1673ffffffffffffffffffffffffffffffffffffffff168152602001908152602001600020600082825403925050819055506001600360008473ffffffffffffffffffffffffffffffffffffffff1673ffffffffffffffffffffffffffffffffffffffff16815260200190815260200160002060008282540192505081905550816002600083815260200190815260200160002060006101000a81548173ffffffffffffffffffffffffffffffffffffffff021916908373ffffffffffffffffffffffffffffffffffffffff160217905550808273ffffffffffffffffffffffffffffffffffffffff168473ffffffffffffffffffffffffffffffffffffffff167fddf252ad1be2c89b69c2b068fc378daa952ba7f163c4a11628f55a4df523b3ef60405160405180910390a46128dd8383836001613331565b505050565b60006002600083815260200190815260200160002060009054906101000a900473ffffffffffffffffffffffffffffffffffffffff169050919050565b600080600090505b600a6000600b548152602001908152602001600020600001805490508110156129ee57600a6000600b548152602001908152602001600020600001818154811061297457612973614cf3565b5b9060005260206000200160009054906101000a900473ffffffffffffffffffffffffffffffffffffffff1673ffffffffffffffffffffffffffffffffffffffff163373ffffffffffffffffffffffffffffffffffffffff16036129db5760019150506129f4565b80806129e690614d22565b915050612927565b50600090505b90565b612a8d81604051602401612a0b9190613993565b6040516020818303038152906040527f41304fac000000000000000000000000000000000000000000000000000000007bffffffffffffffffffffffffffffffffffffffffffffffffffffffff19166020820180517bffffffffffffffffffffffffffffffffffffffffffffffffffffffff8381831617835250505050613337565b50565b6000600760009054906101000a900473ffffffffffffffffffffffffffffffffffffffff16905081600760006101000a81548173ffffffffffffffffffffffffffffffffffffffff021916908373ffffffffffffffffffffffffffffffffffffffff1602179055508173ffffffffffffffffffffffffffffffffffffffff168173ffffffffffffffffffffffffffffffffffffffff167f8be0079c531659141344cd1fd0a4f28419497f9722a3daafe3b4186f6b6457e060405160405180910390a35050565b8173ffffffffffffffffffffffffffffffffffffffff168373ffffffffffffffffffffffffffffffffffffffff1603612bc4576040517f08c379a0000000000000000000000000000000000000000000000000000000008152600401612bbb906150a0565b60405180910390fd5b80600560008573ffffffffffffffffffffffffffffffffffffffff1673ffffffffffffffffffffffffffffffffffffffff16815260200190815260200160002060008473ffffffffffffffffffffffffffffffffffffffff1673ffffffffffffffffffffffffffffffffffffffff16815260200190815260200160002060006101000a81548160ff0219169083151502179055508173ffffffffffffffffffffffffffffffffffffffff168373ffffffffffffffffffffffffffffffffffffffff167f17307eab39ab6107e8899845ad3d59bd9653f200f220920489ca2b5937696c3183604051612cb591906138e8565b60405180910390a3505050565b612ccd8484846125e9565b612cd984848484613360565b612d18576040517f08c379a0000000000000000000000000000000000000000000000000000000008152600401612d0f90615132565b60405180910390fd5b50505050565b606060405180602001604052806000815250905090565b6060612d40826123ca565b6000612d4a612d1e565b90506000815111612d6a5760405180602001604052806000815250612d95565b80612d74846134e7565b604051602001612d85929190614bab565b6040516020818303038152906040525b915050919050565b60005b600a6000600b54815260200190815260200160002060000180549050811015612f195760096000600a6000600b5481526020019081526020016000206000018381548110612df157612df0614cf3565b5b9060005260206000200160009054906101000a900473ffffffffffffffffffffffffffffffffffffffff1673ffffffffffffffffffffffffffffffffffffffff1673ffffffffffffffffffffffffffffffffffffffff1681526020019081526020016000206004015460096000600a6000600b5481526020019081526020016000206000018481548110612e8857612e87614cf3565b5b9060005260206000200160009054906101000a900473ffffffffffffffffffffffffffffffffffffffff1673ffffffffffffffffffffffffffffffffffffffff1673ffffffffffffffffffffffffffffffffffffffff1681526020019081526020016000206005016000828254612eff9190614a99565b925050819055508080612f1190614d22565b915050612da0565b50565b6001816000016000828254019250508190555050565b600081600001549050919050565b600073ffffffffffffffffffffffffffffffffffffffff168273ffffffffffffffffffffffffffffffffffffffff1603612faf576040517f08c379a0000000000000000000000000000000000000000000000000000000008152600401612fa69061519e565b60405180910390fd5b612fb8816131ca565b15612ff8576040517f08c379a0000000000000000000000000000000000000000000000000000000008152600401612fef9061520a565b60405180910390fd5b61300660008383600161320b565b61300f816131ca565b1561304f576040517f08c379a00000000000000000000000000000000000000000000000000000000081526004016130469061520a565b60405180910390fd5b6001600360008473ffffffffffffffffffffffffffffffffffffffff1673ffffffffffffffffffffffffffffffffffffffff16815260200190815260200160002060008282540192505081905550816002600083815260200190815260200160002060006101000a81548173ffffffffffffffffffffffffffffffffffffffff021916908373ffffffffffffffffffffffffffffffffffffffff160217905550808273ffffffffffffffffffffffffffffffffffffffff16600073ffffffffffffffffffffffffffffffffffffffff167fddf252ad1be2c89b69c2b068fc378daa952ba7f163c4a11628f55a4df523b3ef60405160405180910390a4613159600083836001613331565b5050565b613166826131ca565b6131a5576040517f08c379a000000000000000000000000000000000000000000000000000000000815260040161319c9061529c565b60405180910390fd5b806006600084815260200190815260200160002090816131c5919061457e565b505050565b60008073ffffffffffffffffffffffffffffffffffffffff166131ec836128e2565b73ffffffffffffffffffffffffffffffffffffffff1614159050919050565b600181111561332b57600073ffffffffffffffffffffffffffffffffffffffff168473ffffffffffffffffffffffffffffffffffffffff161461329f5780600360008673ffffffffffffffffffffffffffffffffffffffff1673ffffffffffffffffffffffffffffffffffffffff16815260200190815260200160002060008282546132979190614855565b925050819055505b600073ffffffffffffffffffffffffffffffffffffffff168373ffffffffffffffffffffffffffffffffffffffff161461332a5780600360008573ffffffffffffffffffffffffffffffffffffffff1673ffffffffffffffffffffffffffffffffffffffff16815260200190815260200160002060008282546133229190614889565b925050819055505b5b50505050565b50505050565b60008151905060006a636f6e736f6c652e6c6f679050602083016000808483855afa5050505050565b60006133818473ffffffffffffffffffffffffffffffffffffffff166135b5565b156134da578373ffffffffffffffffffffffffffffffffffffffff1663150b7a026133aa612415565b8786866040518563ffffffff1660e01b81526004016133cc9493929190615311565b6020604051808303816000875af192505050801561340857506040513d601f19601f820116820180604052508101906134059190615372565b60015b61348a573d8060008114613438576040519150601f19603f3d011682016040523d82523d6000602084013e61343d565b606091505b506000815103613482576040517f08c379a000000000000000000000000000000000000000000000000000000000815260040161347990615132565b60405180910390fd5b805181602001fd5b63150b7a0260e01b7bffffffffffffffffffffffffffffffffffffffffffffffffffffffff1916817bffffffffffffffffffffffffffffffffffffffffffffffffffffffff1916149150506134df565b600190505b949350505050565b6060600060016134f6846135d8565b01905060008167ffffffffffffffff81111561351557613514613b67565b5b6040519080825280601f01601f1916602001820160405280156135475781602001600182028036833780820191505090505b509050600082602001820190505b6001156135aa578080600190039150507f3031323334353637383961626364656600000000000000000000000000000000600a86061a8153600a858161359e5761359d614dac565b5b04945060008503613555575b819350505050919050565b6000808273ffffffffffffffffffffffffffffffffffffffff163b119050919050565b600080600090507a184f03e93ff9f4daa797ed6e38ed64bf6a1f0100000000000000008310613636577a184f03e93ff9f4daa797ed6e38ed64bf6a1f010000000000000000838161362c5761362b614dac565b5b0492506040810190505b6d04ee2d6d415b85acef81000000008310613673576d04ee2d6d415b85acef8100000000838161366957613668614dac565b5b0492506020810190505b662386f26fc1000083106136a257662386f26fc10000838161369857613697614dac565b5b0492506010810190505b6305f5e10083106136cb576305f5e10083816136c1576136c0614dac565b5b0492506008810190505b61271083106136f05761271083816136e6576136e5614dac565b5b0492506004810190505b60648310613713576064838161370957613708614dac565b5b0492506002810190505b600a8310613722576001810190505b80915050919050565b8280548282559060005260206000209081019282156137a4579160200282015b828111156137a35782518260006101000a81548173ffffffffffffffffffffffffffffffffffffffff021916908373ffffffffffffffffffffffffffffffffffffffff1602179055509160200191906001019061374b565b5b5090506137b19190613817565b5090565b6040518060600160405280600390602082028036833780820191505090505090565b8260038101928215613806579160200282015b828111156138055782518255916020019190600101906137ea565b5b5090506138139190613817565b5090565b5b80821115613830576000816000905550600101613818565b5090565b6000604051905090565b600080fd5b600080fd5b60007fffffffff0000000000000000000000000000000000000000000000000000000082169050919050565b61387d81613848565b811461388857600080fd5b50565b60008135905061389a81613874565b92915050565b6000602082840312156138b6576138b561383e565b5b60006138c48482850161388b565b91505092915050565b60008115159050919050565b6138e2816138cd565b82525050565b60006020820190506138fd60008301846138d9565b92915050565b600081519050919050565b600082825260208201905092915050565b60005b8381101561393d578082015181840152602081019050613922565b60008484015250505050565b6000601f19601f8301169050919050565b600061396582613903565b61396f818561390e565b935061397f81856020860161391f565b61398881613949565b840191505092915050565b600060208201905081810360008301526139ad818461395a565b905092915050565b6000819050919050565b6139c8816139b5565b81146139d357600080fd5b50565b6000813590506139e5816139bf565b92915050565b600060208284031215613a0157613a0061383e565b5b6000613a0f848285016139d6565b91505092915050565b600073ffffffffffffffffffffffffffffffffffffffff82169050919050565b6000613a4382613a18565b9050919050565b613a5381613a38565b82525050565b6000602082019050613a6e6000830184613a4a565b92915050565b613a7d81613a38565b8114613a8857600080fd5b50565b600081359050613a9a81613a74565b92915050565b60008060408385031215613ab757613ab661383e565b5b6000613ac585828601613a8b565b9250506020613ad6858286016139d6565b9150509250929050565b613ae9816139b5565b82525050565b6000602082019050613b046000830184613ae0565b92915050565b600080600060608486031215613b2357613b2261383e565b5b6000613b3186828701613a8b565b9350506020613b4286828701613a8b565b9250506040613b53868287016139d6565b9150509250925092565b600080fd5b600080fd5b7f4e487b7100000000000000000000000000000000000000000000000000000000600052604160045260246000fd5b613b9f82613949565b810181811067ffffffffffffffff82111715613bbe57613bbd613b67565b5b80604052505050565b6000613bd1613834565b9050613bdd8282613b96565b919050565b600067ffffffffffffffff821115613bfd57613bfc613b67565b5b613c0682613949565b9050602081019050919050565b82818337600083830152505050565b6000613c35613c3084613be2565b613bc7565b905082815260208101848484011115613c5157613c50613b62565b5b613c5c848285613c13565b509392505050565b600082601f830112613c7957613c78613b5d565b5b8135613c89848260208601613c22565b91505092915050565b600080600060608486031215613cab57613caa61383e565b5b6000613cb9868287016139d6565b9350506020613cca868287016139d6565b925050604084013567ffffffffffffffff811115613ceb57613cea613843565b5b613cf786828701613c64565b9150509250925092565b600060208284031215613d1757613d1661383e565b5b6000613d2584828501613a8b565b91505092915050565b613d37816138cd565b8114613d4257600080fd5b50565b600081359050613d5481613d2e565b92915050565b60008060408385031215613d7157613d7061383e565b5b6000613d7f85828601613a8b565b9250506020613d9085828601613d45565b9150509250929050565b600081519050919050565b600082825260208201905092915050565b6000819050602082019050919050565b613dcf81613a38565b82525050565b6000613de18383613dc6565b60208301905092915050565b6000602082019050919050565b6000613e0582613d9a565b613e0f8185613da5565b9350613e1a83613db6565b8060005b83811015613e4b578151613e328882613dd5565b9750613e3d83613ded565b925050600181019050613e1e565b5085935050505092915050565b600060c082019050613e6d6000830189613ae0565b8181036020830152613e7f8188613dfa565b90508181036040830152613e93818761395a565b9050613ea26060830186613ae0565b613eaf6080830185613ae0565b613ebc60a08301846138d9565b979650505050505050565b600067ffffffffffffffff821115613ee257613ee1613b67565b5b613eeb82613949565b9050602081019050919050565b6000613f0b613f0684613ec7565b613bc7565b905082815260208101848484011115613f2757613f26613b62565b5b613f32848285613c13565b509392505050565b600082601f830112613f4f57613f4e613b5d565b5b8135613f5f848260208601613ef8565b91505092915050565b60008060008060808587031215613f8257613f8161383e565b5b6000613f9087828801613a8b565b9450506020613fa187828801613a8b565b9350506040613fb2878288016139d6565b925050606085013567ffffffffffffffff811115613fd357613fd2613843565b5b613fdf87828801613f3a565b91505092959194509250565b600060208201905081810360008301526140058184613dfa565b905092915050565b600080604083850312156140245761402361383e565b5b600061403285828601613a8b565b925050602061404385828601613a8b565b9150509250929050565b6000819050919050565b6140608161404d565b82525050565b600060039050919050565b600081905092915050565b6000819050919050565b61408f816139b5565b82525050565b60006140a18383614086565b60208301905092915050565b6000602082019050919050565b6140c381614066565b6140cd8184614071565b92506140d88261407c565b8060005b838110156141095781516140f08782614095565b96506140fb836140ad565b9250506001810190506140dc565b505050505050565b6000610100820190506141276000830189613a4a565b6141346020830188614057565b6141416040830187614057565b61414e60608301866140ba565b61415b60c0830185613ae0565b61416860e0830184613ae0565b979650505050505050565b6000602082840312156141895761418861383e565b5b600082013567ffffffffffffffff8111156141a7576141a6613843565b5b6141b384828501613c64565b91505092915050565b7f4e487b7100000000000000000000000000000000000000000000000000000000600052602260045260246000fd5b6000600282049050600182168061420357607f821691505b602082108103614216576142156141bc565b5b50919050565b7f4552433732313a20617070726f76616c20746f2063757272656e74206f776e6560008201527f7200000000000000000000000000000000000000000000000000000000000000602082015250565b600061427860218361390e565b91506142838261421c565b604082019050919050565b600060208201905081810360008301526142a78161426b565b9050919050565b7f4552433732313a20617070726f76652063616c6c6572206973206e6f7420746f60008201527f6b656e206f776e6572206f7220617070726f76656420666f7220616c6c000000602082015250565b600061430a603d8361390e565b9150614315826142ae565b604082019050919050565b60006020820190508181036000830152614339816142fd565b9050919050565b7f4552433732313a2063616c6c6572206973206e6f7420746f6b656e206f776e6560008201527f72206f7220617070726f76656400000000000000000000000000000000000000602082015250565b600061439c602d8361390e565b91506143a782614340565b604082019050919050565b600060208201905081810360008301526143cb8161438f565b9050919050565b60008190508160005260206000209050919050565b60006020601f8301049050919050565b600082821b905092915050565b6000600883026144347fffffffffffffffffffffffffffffffffffffffffffffffffffffffffffffffff826143f7565b61443e86836143f7565b95508019841693508086168417925050509392505050565b6000819050919050565b600061447b614476614471846139b5565b614456565b6139b5565b9050919050565b6000819050919050565b61449583614460565b6144a96144a182614482565b848454614404565b825550505050565b600090565b6144be6144b1565b6144c981848461448c565b505050565b5b818110156144ed576144e26000826144b6565b6001810190506144cf565b5050565b601f82111561453257614503816143d2565b61450c846143e7565b8101602085101561451b578190505b61452f614527856143e7565b8301826144ce565b50505b505050565b600082821c905092915050565b600061455560001984600802614537565b1980831691505092915050565b600061456e8383614544565b9150826002028217905092915050565b61458782613903565b67ffffffffffffffff8111156145a05761459f613b67565b5b6145aa82546141eb565b6145b58282856144f1565b600060209050601f8311600181146145e857600084156145d6578287015190505b6145e08582614562565b865550614648565b601f1984166145f6866143d2565b60005b8281101561461e578489015182556001820191506020850194506020810190506145f9565b8683101561463b5784890151614637601f891682614544565b8355505b6001600288020188555050505b505050505050565b7f4552433732313a20696e76616c696420746f6b656e2049440000000000000000600082015250565b600061468660188361390e565b915061469182614650565b602082019050919050565b600060208201905081810360008301526146b581614679565b9050919050565b7f557365722068617320616c72656164792070757263686173656420612074696360008201527f6b65742e00000000000000000000000000000000000000000000000000000000602082015250565b600061471860248361390e565b9150614723826146bc565b604082019050919050565b600060208201905081810360008301526147478161470b565b9050919050565b7f4e6f2073706f7473206c65667420696e20636f6d7065746974696f6e2e000000600082015250565b6000614784601d8361390e565b915061478f8261474e565b602082019050919050565b600060208201905081810360008301526147b381614777565b9050919050565b7f496e636f7272656374207061796d656e7420616d6f756e742e00000000000000600082015250565b60006147f060198361390e565b91506147fb826147ba565b602082019050919050565b6000602082019050818103600083015261481f816147e3565b9050919050565b7f4e487b7100000000000000000000000000000000000000000000000000000000600052601160045260246000fd5b6000614860826139b5565b915061486b836139b5565b925082820390508181111561488357614882614826565b5b92915050565b6000614894826139b5565b915061489f836139b5565b92508282019050808211156148b7576148b6614826565b5b92915050565b7f55736572206973206e6f7420612070617274206f66207468652063757272656e60008201527f7420636f6d7065746974696f6e20616e64207468657265666f72652063616e6e60208201527f6f74206d696e742e000000000000000000000000000000000000000000000000604082015250565b600061493f60488361390e565b915061494a826148bd565b606082019050919050565b6000602082019050818103600083015261496e81614932565b9050919050565b7f557365722068617320616c726561647920766f7465642e202043616e206f6e6c60008201527f7920766f7465206f6e63652070657220636f6d7065746974696f6e2e00000000602082015250565b60006149d1603c8361390e565b91506149dc82614975565b604082019050919050565b60006020820190508181036000830152614a00816149c4565b9050919050565b7f4e6f7420616c6c6f77656420746f20766f746520666f7220796f757273656c6660008201527f20746f2077696e2e000000000000000000000000000000000000000000000000602082015250565b6000614a6360288361390e565b9150614a6e82614a07565b604082019050919050565b60006020820190508181036000830152614a9281614a56565b9050919050565b6000614aa48261404d565b9150614aaf8361404d565b925082820190508281121560008312168382126000841215161715614ad757614ad6614826565b5b92915050565b7f4552433732313a2061646472657373207a65726f206973206e6f74206120766160008201527f6c6964206f776e65720000000000000000000000000000000000000000000000602082015250565b6000614b3960298361390e565b9150614b4482614add565b604082019050919050565b60006020820190508181036000830152614b6881614b2c565b9050919050565b600081905092915050565b6000614b8582613903565b614b8f8185614b6f565b9350614b9f81856020860161391f565b80840191505092915050565b6000614bb78285614b7a565b9150614bc38284614b7a565b91508190509392505050565b7f54686520666972737420636f6d7065746974696f6e206861736e277420656e6460008201527f65642e0000000000000000000000000000000000000000000000000000000000602082015250565b6000614c2b60238361390e565b9150614c3682614bcf565b604082019050919050565b60006020820190508181036000830152614c5a81614c1e565b9050919050565b7f4f776e61626c653a206e6577206f776e657220697320746865207a65726f206160008201527f6464726573730000000000000000000000000000000000000000000000000000602082015250565b6000614cbd60268361390e565b9150614cc882614c61565b604082019050919050565b60006020820190508181036000830152614cec81614cb0565b9050919050565b7f4e487b7100000000000000000000000000000000000000000000000000000000600052603260045260246000fd5b6000614d2d826139b5565b91507fffffffffffffffffffffffffffffffffffffffffffffffffffffffffffffffff8203614d5f57614d5e614826565b5b600182019050919050565b6000614d75826139b5565b9150614d80836139b5565b9250828202614d8e816139b5565b91508282048414831517614da557614da4614826565b5b5092915050565b7f4e487b7100000000000000000000000000000000000000000000000000000000600052601260045260246000fd5b6000614de6826139b5565b9150614df1836139b5565b925082614e0157614e00614dac565b5b828204905092915050565b7f557365722068617320616c7265616479206d696e7465642e20204f6e6c79206f60008201527f6e65206d696e7420706572207573657220616c6c6f7765642070657220636f6d60208201527f7065746974696f6e2e0000000000000000000000000000000000000000000000604082015250565b6000614e8e60498361390e565b9150614e9982614e0c565b606082019050919050565b60006020820190508181036000830152614ebd81614e81565b9050919050565b7f4f776e61626c653a2063616c6c6572206973206e6f7420746865206f776e6572600082015250565b6000614efa60208361390e565b9150614f0582614ec4565b602082019050919050565b60006020820190508181036000830152614f2981614eed565b9050919050565b7f4552433732313a207472616e736665722066726f6d20696e636f72726563742060008201527f6f776e6572000000000000000000000000000000000000000000000000000000602082015250565b6000614f8c60258361390e565b9150614f9782614f30565b604082019050919050565b60006020820190508181036000830152614fbb81614f7f565b9050919050565b7f4552433732313a207472616e7366657220746f20746865207a65726f2061646460008201527f7265737300000000000000000000000000000000000000000000000000000000602082015250565b600061501e60248361390e565b915061502982614fc2565b604082019050919050565b6000602082019050818103600083015261504d81615011565b9050919050565b7f4552433732313a20617070726f766520746f2063616c6c657200000000000000600082015250565b600061508a60198361390e565b915061509582615054565b602082019050919050565b600060208201905081810360008301526150b98161507d565b9050919050565b7f4552433732313a207472616e7366657220746f206e6f6e20455243373231526560008201527f63656976657220696d706c656d656e7465720000000000000000000000000000602082015250565b600061511c60328361390e565b9150615127826150c0565b604082019050919050565b6000602082019050818103600083015261514b8161510f565b9050919050565b7f4552433732313a206d696e7420746f20746865207a65726f2061646472657373600082015250565b600061518860208361390e565b915061519382615152565b602082019050919050565b600060208201905081810360008301526151b78161517b565b9050919050565b7f4552433732313a20746f6b656e20616c7265616479206d696e74656400000000600082015250565b60006151f4601c8361390e565b91506151ff826151be565b602082019050919050565b60006020820190508181036000830152615223816151e7565b9050919050565b7f45524337323155524953746f726167653a2055524920736574206f66206e6f6e60008201527f6578697374656e7420746f6b656e000000000000000000000000000000000000602082015250565b6000615286602e8361390e565b91506152918261522a565b604082019050919050565b600060208201905081810360008301526152b581615279565b9050919050565b600081519050919050565b600082825260208201905092915050565b60006152e3826152bc565b6152ed81856152c7565b93506152fd81856020860161391f565b61530681613949565b840191505092915050565b60006080820190506153266000830187613a4a565b6153336020830186613a4a565b6153406040830185613ae0565b818103606083015261535281846152d8565b905095945050505050565b60008151905061536c81613874565b92915050565b6000602082840312156153885761538761383e565b5b60006153968482850161535d565b9150509291505056fea2646970667358221220ecb7367e61fc9e918488991188bbaf4a724647a1e15f7a2acd604500c3e2346964736f6c63430008110033",
  "linkReferences": {},
  "deployedLinkReferences": {}
}