{
  "_format": "hh-sol-artifact-1",
  "contractName": "Competition",
  "sourceName": "contracts/Competition.sol",
  "abi": [
    {
      "inputs": [],
      "stateMutability": "nonpayable",
      "type": "constructor"
    },
    {
      "anonymous": false,
      "inputs": [
        {
          "indexed": true,
          "internalType": "address",
          "name": "owner",
          "type": "address"
        },
        {
          "indexed": true,
          "internalType": "address",
          "name": "approved",
          "type": "address"
        },
        {
          "indexed": true,
          "internalType": "uint256",
          "name": "tokenId",
          "type": "uint256"
        }
      ],
      "name": "Approval",
      "type": "event"
    },
    {
      "anonymous": false,
      "inputs": [
        {
          "indexed": true,
          "internalType": "address",
          "name": "owner",
          "type": "address"
        },
        {
          "indexed": true,
          "internalType": "address",
          "name": "operator",
          "type": "address"
        },
        {
          "indexed": false,
          "internalType": "bool",
          "name": "approved",
          "type": "bool"
        }
      ],
      "name": "ApprovalForAll",
      "type": "event"
    },
    {
      "anonymous": false,
      "inputs": [
        {
          "indexed": true,
          "internalType": "address",
          "name": "previousOwner",
          "type": "address"
        },
        {
          "indexed": true,
          "internalType": "address",
          "name": "newOwner",
          "type": "address"
        }
      ],
      "name": "OwnershipTransferred",
      "type": "event"
    },
    {
      "anonymous": false,
      "inputs": [
        {
          "indexed": true,
          "internalType": "address",
          "name": "from",
          "type": "address"
        },
        {
          "indexed": true,
          "internalType": "address",
          "name": "to",
          "type": "address"
        },
        {
          "indexed": true,
          "internalType": "uint256",
          "name": "tokenId",
          "type": "uint256"
        }
      ],
      "name": "Transfer",
      "type": "event"
    },
    {
      "inputs": [
        {
          "internalType": "address",
          "name": "to",
          "type": "address"
        },
        {
          "internalType": "uint256",
          "name": "tokenId",
          "type": "uint256"
        }
      ],
      "name": "approve",
      "outputs": [],
      "stateMutability": "nonpayable",
      "type": "function"
    },
    {
      "inputs": [
        {
          "internalType": "address",
          "name": "owner",
          "type": "address"
        }
      ],
      "name": "balanceOf",
      "outputs": [
        {
          "internalType": "uint256",
          "name": "",
          "type": "uint256"
        }
      ],
      "stateMutability": "view",
      "type": "function"
    },
    {
      "inputs": [],
      "name": "buyin",
      "outputs": [],
      "stateMutability": "payable",
      "type": "function"
    },
    {
      "inputs": [
        {
          "internalType": "uint256",
          "name": "tokenId",
          "type": "uint256"
        }
      ],
      "name": "getApproved",
      "outputs": [
        {
          "internalType": "address",
          "name": "",
          "type": "address"
        }
      ],
      "stateMutability": "view",
      "type": "function"
    },
    {
      "inputs": [],
      "name": "getBalanceOfContract",
      "outputs": [
        {
          "internalType": "uint256",
          "name": "",
          "type": "uint256"
        }
      ],
      "stateMutability": "view",
      "type": "function"
    },
    {
      "inputs": [],
      "name": "getCompetitionStats",
      "outputs": [
        {
          "internalType": "uint256",
          "name": "",
          "type": "uint256"
        },
        {
          "internalType": "address[]",
          "name": "",
          "type": "address[]"
        },
        {
          "internalType": "string",
          "name": "",
          "type": "string"
        },
        {
          "internalType": "uint256",
          "name": "",
          "type": "uint256"
        },
        {
          "internalType": "uint256",
          "name": "",
          "type": "uint256"
        }
      ],
      "stateMutability": "view",
      "type": "function"
    },
    {
      "inputs": [
        {
          "internalType": "address",
          "name": "owner",
          "type": "address"
        },
        {
          "internalType": "address",
          "name": "operator",
          "type": "address"
        }
      ],
      "name": "isApprovedForAll",
      "outputs": [
        {
          "internalType": "bool",
          "name": "",
          "type": "bool"
        }
      ],
      "stateMutability": "view",
      "type": "function"
    },
    {
      "inputs": [
        {
          "internalType": "string",
          "name": "tokenURI",
          "type": "string"
        }
      ],
      "name": "mintNFT",
      "outputs": [
        {
          "internalType": "uint256",
          "name": "",
          "type": "uint256"
        }
      ],
      "stateMutability": "nonpayable",
      "type": "function"
    },
    {
      "inputs": [],
      "name": "name",
      "outputs": [
        {
          "internalType": "string",
          "name": "",
          "type": "string"
        }
      ],
      "stateMutability": "view",
      "type": "function"
    },
    {
      "inputs": [],
      "name": "owner",
      "outputs": [
        {
          "internalType": "address",
          "name": "",
          "type": "address"
        }
      ],
      "stateMutability": "view",
      "type": "function"
    },
    {
      "inputs": [
        {
          "internalType": "uint256",
          "name": "tokenId",
          "type": "uint256"
        }
      ],
      "name": "ownerOf",
      "outputs": [
        {
          "internalType": "address",
          "name": "",
          "type": "address"
        }
      ],
      "stateMutability": "view",
      "type": "function"
    },
    {
      "inputs": [],
      "name": "renounceOwnership",
      "outputs": [],
      "stateMutability": "nonpayable",
      "type": "function"
    },
    {
      "inputs": [
        {
          "internalType": "address",
          "name": "from",
          "type": "address"
        },
        {
          "internalType": "address",
          "name": "to",
          "type": "address"
        },
        {
          "internalType": "uint256",
          "name": "tokenId",
          "type": "uint256"
        }
      ],
      "name": "safeTransferFrom",
      "outputs": [],
      "stateMutability": "nonpayable",
      "type": "function"
    },
    {
      "inputs": [
        {
          "internalType": "address",
          "name": "from",
          "type": "address"
        },
        {
          "internalType": "address",
          "name": "to",
          "type": "address"
        },
        {
          "internalType": "uint256",
          "name": "tokenId",
          "type": "uint256"
        },
        {
          "internalType": "bytes",
          "name": "data",
          "type": "bytes"
        }
      ],
      "name": "safeTransferFrom",
      "outputs": [],
      "stateMutability": "nonpayable",
      "type": "function"
    },
    {
      "inputs": [
        {
          "internalType": "address",
          "name": "operator",
          "type": "address"
        },
        {
          "internalType": "bool",
          "name": "approved",
          "type": "bool"
        }
      ],
      "name": "setApprovalForAll",
      "outputs": [],
      "stateMutability": "nonpayable",
      "type": "function"
    },
    {
      "inputs": [
        {
          "internalType": "uint256",
          "name": "spots",
          "type": "uint256"
        },
        {
          "internalType": "uint256",
          "name": "cost",
          "type": "uint256"
        },
        {
          "internalType": "string",
          "name": "typeComp",
          "type": "string"
        }
      ],
      "name": "startCompetition",
      "outputs": [],
      "stateMutability": "nonpayable",
      "type": "function"
    },
    {
      "inputs": [
        {
          "internalType": "bytes4",
          "name": "interfaceId",
          "type": "bytes4"
        }
      ],
      "name": "supportsInterface",
      "outputs": [
        {
          "internalType": "bool",
          "name": "",
          "type": "bool"
        }
      ],
      "stateMutability": "view",
      "type": "function"
    },
    {
      "inputs": [],
      "name": "symbol",
      "outputs": [
        {
          "internalType": "string",
          "name": "",
          "type": "string"
        }
      ],
      "stateMutability": "view",
      "type": "function"
    },
    {
      "inputs": [
        {
          "internalType": "uint256",
          "name": "tokenId",
          "type": "uint256"
        }
      ],
      "name": "tokenURI",
      "outputs": [
        {
          "internalType": "string",
          "name": "",
          "type": "string"
        }
      ],
      "stateMutability": "view",
      "type": "function"
    },
    {
      "inputs": [
        {
          "internalType": "address",
          "name": "from",
          "type": "address"
        },
        {
          "internalType": "address",
          "name": "to",
          "type": "address"
        },
        {
          "internalType": "uint256",
          "name": "tokenId",
          "type": "uint256"
        }
      ],
      "name": "transferFrom",
      "outputs": [],
      "stateMutability": "nonpayable",
      "type": "function"
    },
    {
      "inputs": [
        {
          "internalType": "address",
          "name": "newOwner",
          "type": "address"
        }
      ],
      "name": "transferOwnership",
      "outputs": [],
      "stateMutability": "nonpayable",
      "type": "function"
    },
    {
      "inputs": [],
      "name": "withdrawMoney",
      "outputs": [],
      "stateMutability": "nonpayable",
      "type": "function"
    }
  ],
  "bytecode": "0x60806040523480156200001157600080fd5b506040518060400160405280600b81526020017f776176706f6f6c204e46540000000000000000000000000000000000000000008152506040518060400160405280600481526020017f574156500000000000000000000000000000000000000000000000000000000081525081600090816200008f919062000443565b508060019081620000a1919062000443565b505050620000c4620000b8620000fb60201b60201c565b6200010360201b60201c565b6000600a6000600b54815260200190815260200160002060040160006101000a81548160ff0219169083151502179055506200052a565b600033905090565b6000600760009054906101000a900473ffffffffffffffffffffffffffffffffffffffff16905081600760006101000a81548173ffffffffffffffffffffffffffffffffffffffff021916908373ffffffffffffffffffffffffffffffffffffffff1602179055508173ffffffffffffffffffffffffffffffffffffffff168173ffffffffffffffffffffffffffffffffffffffff167f8be0079c531659141344cd1fd0a4f28419497f9722a3daafe3b4186f6b6457e060405160405180910390a35050565b600081519050919050565b7f4e487b7100000000000000000000000000000000000000000000000000000000600052604160045260246000fd5b7f4e487b7100000000000000000000000000000000000000000000000000000000600052602260045260246000fd5b600060028204905060018216806200024b57607f821691505b60208210810362000261576200026062000203565b5b50919050565b60008190508160005260206000209050919050565b60006020601f8301049050919050565b600082821b905092915050565b600060088302620002cb7fffffffffffffffffffffffffffffffffffffffffffffffffffffffffffffffff826200028c565b620002d786836200028c565b95508019841693508086168417925050509392505050565b6000819050919050565b6000819050919050565b6000620003246200031e6200031884620002ef565b620002f9565b620002ef565b9050919050565b6000819050919050565b620003408362000303565b620003586200034f826200032b565b84845462000299565b825550505050565b600090565b6200036f62000360565b6200037c81848462000335565b505050565b5b81811015620003a4576200039860008262000365565b60018101905062000382565b5050565b601f821115620003f357620003bd8162000267565b620003c8846200027c565b81016020851015620003d8578190505b620003f0620003e7856200027c565b83018262000381565b50505b505050565b600082821c905092915050565b60006200041860001984600802620003f8565b1980831691505092915050565b600062000433838362000405565b9150826002028217905092915050565b6200044e82620001c9565b67ffffffffffffffff8111156200046a5762000469620001d4565b5b62000476825462000232565b62000483828285620003a8565b600060209050601f831160018114620004bb5760008415620004a6578287015190505b620004b2858262000425565b86555062000522565b601f198416620004cb8662000267565b60005b82811015620004f557848901518255600182019150602085019450602081019050620004ce565b8683101562000515578489015162000511601f89168262000405565b8355505b6001600288020188555050505b505050505050565b613db6806200053a6000396000f3fe6080604052600436106101355760003560e01c8063715018a6116100ab578063ac4460021161006f578063ac446002146103f7578063b88d4fde1461040e578063c87b56dd14610437578063e985e9c514610474578063f2fde38b146104b1578063fb37e883146104da57610135565b8063715018a6146103325780638da5cb5b1461034957806395d89b4114610374578063a22cb4651461039f578063a789ab3a146103c857610135565b806323b872dd116100fd57806323b872dd1461023357806342842e0e1461025c57806355f1d172146102855780636352211e146102ae57806369766079146102eb57806370a08231146102f557610135565b806301ffc9a71461013a57806306fdde0314610177578063081812fc146101a2578063095ea7b3146101df5780632296888514610208575b600080fd5b34801561014657600080fd5b50610161600480360381019061015c9190612644565b610517565b60405161016e919061268c565b60405180910390f35b34801561018357600080fd5b5061018c6105f9565b6040516101999190612737565b60405180910390f35b3480156101ae57600080fd5b506101c960048036038101906101c4919061278f565b61068b565b6040516101d691906127fd565b60405180910390f35b3480156101eb57600080fd5b5061020660048036038101906102019190612844565b6106d1565b005b34801561021457600080fd5b5061021d6107e8565b60405161022a9190612893565b60405180910390f35b34801561023f57600080fd5b5061025a600480360381019061025591906128ae565b6107f8565b005b34801561026857600080fd5b50610283600480360381019061027e91906128ae565b610858565b005b34801561029157600080fd5b506102ac60048036038101906102a79190612a36565b610878565b005b3480156102ba57600080fd5b506102d560048036038101906102d0919061278f565b610998565b6040516102e291906127fd565b60405180910390f35b6102f3610a1e565b005b34801561030157600080fd5b5061031c60048036038101906103179190612aa5565b610c85565b6040516103299190612893565b60405180910390f35b34801561033e57600080fd5b50610347610d3c565b005b34801561035557600080fd5b5061035e610d50565b60405161036b91906127fd565b60405180910390f35b34801561038057600080fd5b50610389610d7a565b6040516103969190612737565b60405180910390f35b3480156103ab57600080fd5b506103c660048036038101906103c19190612afe565b610e0c565b005b3480156103d457600080fd5b506103dd610e22565b6040516103ee959493929190612bfc565b60405180910390f35b34801561040357600080fd5b5061040c610fca565b005b34801561041a57600080fd5b5061043560048036038101906104309190612cfe565b611028565b005b34801561044357600080fd5b5061045e6004803603810190610459919061278f565b61108a565b60405161046b9190612737565b60405180910390f35b34801561048057600080fd5b5061049b60048036038101906104969190612d81565b61119c565b6040516104a8919061268c565b60405180910390f35b3480156104bd57600080fd5b506104d860048036038101906104d39190612aa5565b611230565b005b3480156104e657600080fd5b5061050160048036038101906104fc9190612dc1565b6112b3565b60405161050e9190612893565b60405180910390f35b60007f80ac58cd000000000000000000000000000000000000000000000000000000007bffffffffffffffffffffffffffffffffffffffffffffffffffffffff1916827bffffffffffffffffffffffffffffffffffffffffffffffffffffffff191614806105e257507f5b5e139f000000000000000000000000000000000000000000000000000000007bffffffffffffffffffffffffffffffffffffffffffffffffffffffff1916827bffffffffffffffffffffffffffffffffffffffffffffffffffffffff1916145b806105f257506105f182611410565b5b9050919050565b60606000805461060890612e39565b80601f016020809104026020016040519081016040528092919081815260200182805461063490612e39565b80156106815780601f1061065657610100808354040283529160200191610681565b820191906000526020600020905b81548152906001019060200180831161066457829003601f168201915b5050505050905090565b60006106968261147a565b6004600083815260200190815260200160002060009054906101000a900473ffffffffffffffffffffffffffffffffffffffff169050919050565b60006106dc82610998565b90508073ffffffffffffffffffffffffffffffffffffffff168373ffffffffffffffffffffffffffffffffffffffff160361074c576040517f08c379a000000000000000000000000000000000000000000000000000000000815260040161074390612edc565b60405180910390fd5b8073ffffffffffffffffffffffffffffffffffffffff1661076b6114c5565b73ffffffffffffffffffffffffffffffffffffffff16148061079a5750610799816107946114c5565b61119c565b5b6107d9576040517f08c379a00000000000000000000000000000000000000000000000000000000081526004016107d090612f6e565b60405180910390fd5b6107e383836114cd565b505050565b60006107f2611586565b47905090565b6108096108036114c5565b82611604565b610848576040517f08c379a000000000000000000000000000000000000000000000000000000000815260040161083f90613000565b60405180910390fd5b610853838383611699565b505050565b61087383838360405180602001604052806000815250611028565b505050565b610880611586565b6000600a6000600b5481526020019081526020016000206000018054905011156108bf576001600b60008282546108b7919061304f565b925050819055505b600a6000600b54815260200190815260200160002060000160006108e3919061259a565b82600a6000600b5481526020019081526020016000206002018190555080600a6000600b5481526020019081526020016000206005019081610925919061322f565b5081600a6000600b54815260200190815260200160002060010181905550600b54600a6000600b548152602001908152602001600020600301819055506001600a6000600b54815260200190815260200160002060040160006101000a81548160ff021916908315150217905550505050565b6000806109a483611992565b9050600073ffffffffffffffffffffffffffffffffffffffff168173ffffffffffffffffffffffffffffffffffffffff1603610a15576040517f08c379a0000000000000000000000000000000000000000000000000000000008152600401610a0c9061334d565b60405180910390fd5b80915050919050565b610a266119cf565b15610a66576040517f08c379a0000000000000000000000000000000000000000000000000000000008152600401610a5d906133df565b60405180910390fd5b6000600a6000600b5481526020019081526020016000206002015411610ac1576040517f08c379a0000000000000000000000000000000000000000000000000000000008152600401610ab89061344b565b60405180910390fd5b600a6000600b548152602001908152602001600020600101543414610b1b576040517f08c379a0000000000000000000000000000000000000000000000000000000008152600401610b12906134b7565b60405180910390fd5b60405180604001604052803373ffffffffffffffffffffffffffffffffffffffff1681526020016000815250600960003373ffffffffffffffffffffffffffffffffffffffff1673ffffffffffffffffffffffffffffffffffffffff16815260200190815260200160002060008201518160000160006101000a81548173ffffffffffffffffffffffffffffffffffffffff021916908373ffffffffffffffffffffffffffffffffffffffff16021790555060208201518160010155905050600a6000600b548152602001908152602001600020600001339080600181540180825580915050600190039060005260206000200160009091909190916101000a81548173ffffffffffffffffffffffffffffffffffffffff021916908373ffffffffffffffffffffffffffffffffffffffff1602179055506001600a6000600b5481526020019081526020016000206002016000828254610c7c91906134d7565b92505081905550565b60008073ffffffffffffffffffffffffffffffffffffffff168273ffffffffffffffffffffffffffffffffffffffff1603610cf5576040517f08c379a0000000000000000000000000000000000000000000000000000000008152600401610cec9061357d565b60405180910390fd5b600360008373ffffffffffffffffffffffffffffffffffffffff1673ffffffffffffffffffffffffffffffffffffffff168152602001908152602001600020549050919050565b610d44611586565b610d4e6000611aa7565b565b6000600760009054906101000a900473ffffffffffffffffffffffffffffffffffffffff16905090565b606060018054610d8990612e39565b80601f0160208091040260200160405190810160405280929190818152602001828054610db590612e39565b8015610e025780601f10610dd757610100808354040283529160200191610e02565b820191906000526020600020905b815481529060010190602001808311610de557829003601f168201915b5050505050905090565b610e1e610e176114c5565b8383611b6d565b5050565b6000606080600080600a6000600b54815260200190815260200160002060030154600a6000600b548152602001908152602001600020600001600a6000600b548152602001908152602001600020600501600a6000600b54815260200190815260200160002060020154600a6000600b5481526020019081526020016000206001015483805480602002602001604051908101604052809291908181526020018280548015610f2657602002820191906000526020600020905b8160009054906101000a900473ffffffffffffffffffffffffffffffffffffffff1673ffffffffffffffffffffffffffffffffffffffff1681526020019060010190808311610edc575b50505050509350828054610f3990612e39565b80601f0160208091040260200160405190810160405280929190818152602001828054610f6590612e39565b8015610fb25780601f10610f8757610100808354040283529160200191610fb2565b820191906000526020600020905b815481529060010190602001808311610f9557829003601f168201915b50505050509250945094509450945094509091929394565b610fd2611586565b60003390508073ffffffffffffffffffffffffffffffffffffffff166108fc610ff96107e8565b9081150290604051600060405180830381858888f19350505050158015611024573d6000803e3d6000fd5b5050565b6110396110336114c5565b83611604565b611078576040517f08c379a000000000000000000000000000000000000000000000000000000000815260040161106f90613000565b60405180910390fd5b61108484848484611cd9565b50505050565b60606110958261147a565b60006006600084815260200190815260200160002080546110b590612e39565b80601f01602080910402602001604051908101604052809291908181526020018280546110e190612e39565b801561112e5780601f106111035761010080835404028352916020019161112e565b820191906000526020600020905b81548152906001019060200180831161111157829003601f168201915b50505050509050600061113f611d35565b90506000815103611154578192505050611197565b6000825111156111895780826040516020016111719291906135d9565b60405160208183030381529060405292505050611197565b61119284611d4c565b925050505b919050565b6000600560008473ffffffffffffffffffffffffffffffffffffffff1673ffffffffffffffffffffffffffffffffffffffff16815260200190815260200160002060008373ffffffffffffffffffffffffffffffffffffffff1673ffffffffffffffffffffffffffffffffffffffff16815260200190815260200160002060009054906101000a900460ff16905092915050565b611238611586565b600073ffffffffffffffffffffffffffffffffffffffff168173ffffffffffffffffffffffffffffffffffffffff16036112a7576040517f08c379a000000000000000000000000000000000000000000000000000000000815260040161129e9061366f565b60405180910390fd5b6112b081611aa7565b50565b60006112bd6119cf565b6112fc576040517f08c379a00000000000000000000000000000000000000000000000000000000081526004016112f390613727565b60405180910390fd5b6001600960003373ffffffffffffffffffffffffffffffffffffffff1673ffffffffffffffffffffffffffffffffffffffff1681526020019081526020016000206001015410611381576040517f08c379a0000000000000000000000000000000000000000000000000000000008152600401611378906137df565b60405180910390fd5b61138b6008611db4565b60006113976008611dca565b90506113a33382611dd8565b6113ad8184611ff5565b6001600960003373ffffffffffffffffffffffffffffffffffffffff1673ffffffffffffffffffffffffffffffffffffffff1681526020019081526020016000206001016000828254611400919061304f565b9250508190555080915050919050565b60007f01ffc9a7000000000000000000000000000000000000000000000000000000007bffffffffffffffffffffffffffffffffffffffffffffffffffffffff1916827bffffffffffffffffffffffffffffffffffffffffffffffffffffffff1916149050919050565b61148381612062565b6114c2576040517f08c379a00000000000000000000000000000000000000000000000000000000081526004016114b99061334d565b60405180910390fd5b50565b600033905090565b816004600083815260200190815260200160002060006101000a81548173ffffffffffffffffffffffffffffffffffffffff021916908373ffffffffffffffffffffffffffffffffffffffff160217905550808273ffffffffffffffffffffffffffffffffffffffff1661154083610998565b73ffffffffffffffffffffffffffffffffffffffff167f8c5be1e5ebec7d5bd14f71427d1e84f3dd0314c0f7b2291e5b200ac8c7c3b92560405160405180910390a45050565b61158e6114c5565b73ffffffffffffffffffffffffffffffffffffffff166115ac610d50565b73ffffffffffffffffffffffffffffffffffffffff1614611602576040517f08c379a00000000000000000000000000000000000000000000000000000000081526004016115f99061384b565b60405180910390fd5b565b60008061161083610998565b90508073ffffffffffffffffffffffffffffffffffffffff168473ffffffffffffffffffffffffffffffffffffffff1614806116525750611651818561119c565b5b8061169057508373ffffffffffffffffffffffffffffffffffffffff166116788461068b565b73ffffffffffffffffffffffffffffffffffffffff16145b91505092915050565b8273ffffffffffffffffffffffffffffffffffffffff166116b982610998565b73ffffffffffffffffffffffffffffffffffffffff161461170f576040517f08c379a0000000000000000000000000000000000000000000000000000000008152600401611706906138dd565b60405180910390fd5b600073ffffffffffffffffffffffffffffffffffffffff168273ffffffffffffffffffffffffffffffffffffffff160361177e576040517f08c379a00000000000000000000000000000000000000000000000000000000081526004016117759061396f565b60405180910390fd5b61178b83838360016120a3565b8273ffffffffffffffffffffffffffffffffffffffff166117ab82610998565b73ffffffffffffffffffffffffffffffffffffffff1614611801576040517f08c379a00000000000000000000000000000000000000000000000000000000081526004016117f8906138dd565b60405180910390fd5b6004600082815260200190815260200160002060006101000a81549073ffffffffffffffffffffffffffffffffffffffff02191690556001600360008573ffffffffffffffffffffffffffffffffffffffff1673ffffffffffffffffffffffffffffffffffffffff168152602001908152602001600020600082825403925050819055506001600360008473ffffffffffffffffffffffffffffffffffffffff1673ffffffffffffffffffffffffffffffffffffffff16815260200190815260200160002060008282540192505081905550816002600083815260200190815260200160002060006101000a81548173ffffffffffffffffffffffffffffffffffffffff021916908373ffffffffffffffffffffffffffffffffffffffff160217905550808273ffffffffffffffffffffffffffffffffffffffff168473ffffffffffffffffffffffffffffffffffffffff167fddf252ad1be2c89b69c2b068fc378daa952ba7f163c4a11628f55a4df523b3ef60405160405180910390a461198d83838360016121c9565b505050565b60006002600083815260200190815260200160002060009054906101000a900473ffffffffffffffffffffffffffffffffffffffff169050919050565b600080600090505b600a6000600b54815260200190815260200160002060000180549050811015611a9e57600a6000600b5481526020019081526020016000206000018181548110611a2457611a2361398f565b5b9060005260206000200160009054906101000a900473ffffffffffffffffffffffffffffffffffffffff1673ffffffffffffffffffffffffffffffffffffffff163373ffffffffffffffffffffffffffffffffffffffff1603611a8b576001915050611aa4565b8080611a96906139be565b9150506119d7565b50600090505b90565b6000600760009054906101000a900473ffffffffffffffffffffffffffffffffffffffff16905081600760006101000a81548173ffffffffffffffffffffffffffffffffffffffff021916908373ffffffffffffffffffffffffffffffffffffffff1602179055508173ffffffffffffffffffffffffffffffffffffffff168173ffffffffffffffffffffffffffffffffffffffff167f8be0079c531659141344cd1fd0a4f28419497f9722a3daafe3b4186f6b6457e060405160405180910390a35050565b8173ffffffffffffffffffffffffffffffffffffffff168373ffffffffffffffffffffffffffffffffffffffff1603611bdb576040517f08c379a0000000000000000000000000000000000000000000000000000000008152600401611bd290613a52565b60405180910390fd5b80600560008573ffffffffffffffffffffffffffffffffffffffff1673ffffffffffffffffffffffffffffffffffffffff16815260200190815260200160002060008473ffffffffffffffffffffffffffffffffffffffff1673ffffffffffffffffffffffffffffffffffffffff16815260200190815260200160002060006101000a81548160ff0219169083151502179055508173ffffffffffffffffffffffffffffffffffffffff168373ffffffffffffffffffffffffffffffffffffffff167f17307eab39ab6107e8899845ad3d59bd9653f200f220920489ca2b5937696c3183604051611ccc919061268c565b60405180910390a3505050565b611ce4848484611699565b611cf0848484846121cf565b611d2f576040517f08c379a0000000000000000000000000000000000000000000000000000000008152600401611d2690613ae4565b60405180910390fd5b50505050565b606060405180602001604052806000815250905090565b6060611d578261147a565b6000611d61611d35565b90506000815111611d815760405180602001604052806000815250611dac565b80611d8b84612356565b604051602001611d9c9291906135d9565b6040516020818303038152906040525b915050919050565b6001816000016000828254019250508190555050565b600081600001549050919050565b600073ffffffffffffffffffffffffffffffffffffffff168273ffffffffffffffffffffffffffffffffffffffff1603611e47576040517f08c379a0000000000000000000000000000000000000000000000000000000008152600401611e3e90613b50565b60405180910390fd5b611e5081612062565b15611e90576040517f08c379a0000000000000000000000000000000000000000000000000000000008152600401611e8790613bbc565b60405180910390fd5b611e9e6000838360016120a3565b611ea781612062565b15611ee7576040517f08c379a0000000000000000000000000000000000000000000000000000000008152600401611ede90613bbc565b60405180910390fd5b6001600360008473ffffffffffffffffffffffffffffffffffffffff1673ffffffffffffffffffffffffffffffffffffffff16815260200190815260200160002060008282540192505081905550816002600083815260200190815260200160002060006101000a81548173ffffffffffffffffffffffffffffffffffffffff021916908373ffffffffffffffffffffffffffffffffffffffff160217905550808273ffffffffffffffffffffffffffffffffffffffff16600073ffffffffffffffffffffffffffffffffffffffff167fddf252ad1be2c89b69c2b068fc378daa952ba7f163c4a11628f55a4df523b3ef60405160405180910390a4611ff16000838360016121c9565b5050565b611ffe82612062565b61203d576040517f08c379a000000000000000000000000000000000000000000000000000000000815260040161203490613c4e565b60405180910390fd5b8060066000848152602001908152602001600020908161205d919061322f565b505050565b60008073ffffffffffffffffffffffffffffffffffffffff1661208483611992565b73ffffffffffffffffffffffffffffffffffffffff1614159050919050565b60018111156121c357600073ffffffffffffffffffffffffffffffffffffffff168473ffffffffffffffffffffffffffffffffffffffff16146121375780600360008673ffffffffffffffffffffffffffffffffffffffff1673ffffffffffffffffffffffffffffffffffffffff168152602001908152602001600020600082825461212f91906134d7565b925050819055505b600073ffffffffffffffffffffffffffffffffffffffff168373ffffffffffffffffffffffffffffffffffffffff16146121c25780600360008573ffffffffffffffffffffffffffffffffffffffff1673ffffffffffffffffffffffffffffffffffffffff16815260200190815260200160002060008282546121ba919061304f565b925050819055505b5b50505050565b50505050565b60006121f08473ffffffffffffffffffffffffffffffffffffffff16612424565b15612349578373ffffffffffffffffffffffffffffffffffffffff1663150b7a026122196114c5565b8786866040518563ffffffff1660e01b815260040161223b9493929190613cc3565b6020604051808303816000875af192505050801561227757506040513d601f19601f820116820180604052508101906122749190613d24565b60015b6122f9573d80600081146122a7576040519150601f19603f3d011682016040523d82523d6000602084013e6122ac565b606091505b5060008151036122f1576040517f08c379a00000000000000000000000000000000000000000000000000000000081526004016122e890613ae4565b60405180910390fd5b805181602001fd5b63150b7a0260e01b7bffffffffffffffffffffffffffffffffffffffffffffffffffffffff1916817bffffffffffffffffffffffffffffffffffffffffffffffffffffffff19161491505061234e565b600190505b949350505050565b60606000600161236584612447565b01905060008167ffffffffffffffff8111156123845761238361290b565b5b6040519080825280601f01601f1916602001820160405280156123b65781602001600182028036833780820191505090505b509050600082602001820190505b600115612419578080600190039150507f3031323334353637383961626364656600000000000000000000000000000000600a86061a8153600a858161240d5761240c613d51565b5b049450600085036123c4575b819350505050919050565b6000808273ffffffffffffffffffffffffffffffffffffffff163b119050919050565b600080600090507a184f03e93ff9f4daa797ed6e38ed64bf6a1f01000000000000000083106124a5577a184f03e93ff9f4daa797ed6e38ed64bf6a1f010000000000000000838161249b5761249a613d51565b5b0492506040810190505b6d04ee2d6d415b85acef810000000083106124e2576d04ee2d6d415b85acef810000000083816124d8576124d7613d51565b5b0492506020810190505b662386f26fc10000831061251157662386f26fc10000838161250757612506613d51565b5b0492506010810190505b6305f5e100831061253a576305f5e10083816125305761252f613d51565b5b0492506008810190505b612710831061255f57612710838161255557612554613d51565b5b0492506004810190505b60648310612582576064838161257857612577613d51565b5b0492506002810190505b600a8310612591576001810190505b80915050919050565b50805460008255906000526020600020908101906125b891906125bb565b50565b5b808211156125d45760008160009055506001016125bc565b5090565b6000604051905090565b600080fd5b600080fd5b60007fffffffff0000000000000000000000000000000000000000000000000000000082169050919050565b612621816125ec565b811461262c57600080fd5b50565b60008135905061263e81612618565b92915050565b60006020828403121561265a576126596125e2565b5b60006126688482850161262f565b91505092915050565b60008115159050919050565b61268681612671565b82525050565b60006020820190506126a1600083018461267d565b92915050565b600081519050919050565b600082825260208201905092915050565b60005b838110156126e15780820151818401526020810190506126c6565b60008484015250505050565b6000601f19601f8301169050919050565b6000612709826126a7565b61271381856126b2565b93506127238185602086016126c3565b61272c816126ed565b840191505092915050565b6000602082019050818103600083015261275181846126fe565b905092915050565b6000819050919050565b61276c81612759565b811461277757600080fd5b50565b60008135905061278981612763565b92915050565b6000602082840312156127a5576127a46125e2565b5b60006127b38482850161277a565b91505092915050565b600073ffffffffffffffffffffffffffffffffffffffff82169050919050565b60006127e7826127bc565b9050919050565b6127f7816127dc565b82525050565b600060208201905061281260008301846127ee565b92915050565b612821816127dc565b811461282c57600080fd5b50565b60008135905061283e81612818565b92915050565b6000806040838503121561285b5761285a6125e2565b5b60006128698582860161282f565b925050602061287a8582860161277a565b9150509250929050565b61288d81612759565b82525050565b60006020820190506128a86000830184612884565b92915050565b6000806000606084860312156128c7576128c66125e2565b5b60006128d58682870161282f565b93505060206128e68682870161282f565b92505060406128f78682870161277a565b9150509250925092565b600080fd5b600080fd5b7f4e487b7100000000000000000000000000000000000000000000000000000000600052604160045260246000fd5b612943826126ed565b810181811067ffffffffffffffff821117156129625761296161290b565b5b80604052505050565b60006129756125d8565b9050612981828261293a565b919050565b600067ffffffffffffffff8211156129a1576129a061290b565b5b6129aa826126ed565b9050602081019050919050565b82818337600083830152505050565b60006129d96129d484612986565b61296b565b9050828152602081018484840111156129f5576129f4612906565b5b612a008482856129b7565b509392505050565b600082601f830112612a1d57612a1c612901565b5b8135612a2d8482602086016129c6565b91505092915050565b600080600060608486031215612a4f57612a4e6125e2565b5b6000612a5d8682870161277a565b9350506020612a6e8682870161277a565b925050604084013567ffffffffffffffff811115612a8f57612a8e6125e7565b5b612a9b86828701612a08565b9150509250925092565b600060208284031215612abb57612aba6125e2565b5b6000612ac98482850161282f565b91505092915050565b612adb81612671565b8114612ae657600080fd5b50565b600081359050612af881612ad2565b92915050565b60008060408385031215612b1557612b146125e2565b5b6000612b238582860161282f565b9250506020612b3485828601612ae9565b9150509250929050565b600081519050919050565b600082825260208201905092915050565b6000819050602082019050919050565b612b73816127dc565b82525050565b6000612b858383612b6a565b60208301905092915050565b6000602082019050919050565b6000612ba982612b3e565b612bb38185612b49565b9350612bbe83612b5a565b8060005b83811015612bef578151612bd68882612b79565b9750612be183612b91565b925050600181019050612bc2565b5085935050505092915050565b600060a082019050612c116000830188612884565b8181036020830152612c238187612b9e565b90508181036040830152612c3781866126fe565b9050612c466060830185612884565b612c536080830184612884565b9695505050505050565b600067ffffffffffffffff821115612c7857612c7761290b565b5b612c81826126ed565b9050602081019050919050565b6000612ca1612c9c84612c5d565b61296b565b905082815260208101848484011115612cbd57612cbc612906565b5b612cc88482856129b7565b509392505050565b600082601f830112612ce557612ce4612901565b5b8135612cf5848260208601612c8e565b91505092915050565b60008060008060808587031215612d1857612d176125e2565b5b6000612d268782880161282f565b9450506020612d378782880161282f565b9350506040612d488782880161277a565b925050606085013567ffffffffffffffff811115612d6957612d686125e7565b5b612d7587828801612cd0565b91505092959194509250565b60008060408385031215612d9857612d976125e2565b5b6000612da68582860161282f565b9250506020612db78582860161282f565b9150509250929050565b600060208284031215612dd757612dd66125e2565b5b600082013567ffffffffffffffff811115612df557612df46125e7565b5b612e0184828501612a08565b91505092915050565b7f4e487b7100000000000000000000000000000000000000000000000000000000600052602260045260246000fd5b60006002820490506001821680612e5157607f821691505b602082108103612e6457612e63612e0a565b5b50919050565b7f4552433732313a20617070726f76616c20746f2063757272656e74206f776e6560008201527f7200000000000000000000000000000000000000000000000000000000000000602082015250565b6000612ec66021836126b2565b9150612ed182612e6a565b604082019050919050565b60006020820190508181036000830152612ef581612eb9565b9050919050565b7f4552433732313a20617070726f76652063616c6c6572206973206e6f7420746f60008201527f6b656e206f776e6572206f7220617070726f76656420666f7220616c6c000000602082015250565b6000612f58603d836126b2565b9150612f6382612efc565b604082019050919050565b60006020820190508181036000830152612f8781612f4b565b9050919050565b7f4552433732313a2063616c6c6572206973206e6f7420746f6b656e206f776e6560008201527f72206f7220617070726f76656400000000000000000000000000000000000000602082015250565b6000612fea602d836126b2565b9150612ff582612f8e565b604082019050919050565b6000602082019050818103600083015261301981612fdd565b9050919050565b7f4e487b7100000000000000000000000000000000000000000000000000000000600052601160045260246000fd5b600061305a82612759565b915061306583612759565b925082820190508082111561307d5761307c613020565b5b92915050565b60008190508160005260206000209050919050565b60006020601f8301049050919050565b600082821b905092915050565b6000600883026130e57fffffffffffffffffffffffffffffffffffffffffffffffffffffffffffffffff826130a8565b6130ef86836130a8565b95508019841693508086168417925050509392505050565b6000819050919050565b600061312c61312761312284612759565b613107565b612759565b9050919050565b6000819050919050565b61314683613111565b61315a61315282613133565b8484546130b5565b825550505050565b600090565b61316f613162565b61317a81848461313d565b505050565b5b8181101561319e57613193600082613167565b600181019050613180565b5050565b601f8211156131e3576131b481613083565b6131bd84613098565b810160208510156131cc578190505b6131e06131d885613098565b83018261317f565b50505b505050565b600082821c905092915050565b6000613206600019846008026131e8565b1980831691505092915050565b600061321f83836131f5565b9150826002028217905092915050565b613238826126a7565b67ffffffffffffffff8111156132515761325061290b565b5b61325b8254612e39565b6132668282856131a2565b600060209050601f8311600181146132995760008415613287578287015190505b6132918582613213565b8655506132f9565b601f1984166132a786613083565b60005b828110156132cf578489015182556001820191506020850194506020810190506132aa565b868310156132ec57848901516132e8601f8916826131f5565b8355505b6001600288020188555050505b505050505050565b7f4552433732313a20696e76616c696420746f6b656e2049440000000000000000600082015250565b60006133376018836126b2565b915061334282613301565b602082019050919050565b600060208201905081810360008301526133668161332a565b9050919050565b7f557365722068617320616c72656164792070757263686173656420612074696360008201527f6b65742e00000000000000000000000000000000000000000000000000000000602082015250565b60006133c96024836126b2565b91506133d48261336d565b604082019050919050565b600060208201905081810360008301526133f8816133bc565b9050919050565b7f4e6f2073706f7473206c65667420696e20636f6d7065746974696f6e2e000000600082015250565b6000613435601d836126b2565b9150613440826133ff565b602082019050919050565b6000602082019050818103600083015261346481613428565b9050919050565b7f496e636f7272656374207061796d656e7420616d6f756e742e00000000000000600082015250565b60006134a16019836126b2565b91506134ac8261346b565b602082019050919050565b600060208201905081810360008301526134d081613494565b9050919050565b60006134e282612759565b91506134ed83612759565b925082820390508181111561350557613504613020565b5b92915050565b7f4552433732313a2061646472657373207a65726f206973206e6f74206120766160008201527f6c6964206f776e65720000000000000000000000000000000000000000000000602082015250565b60006135676029836126b2565b91506135728261350b565b604082019050919050565b600060208201905081810360008301526135968161355a565b9050919050565b600081905092915050565b60006135b3826126a7565b6135bd818561359d565b93506135cd8185602086016126c3565b80840191505092915050565b60006135e582856135a8565b91506135f182846135a8565b91508190509392505050565b7f4f776e61626c653a206e6577206f776e657220697320746865207a65726f206160008201527f6464726573730000000000000000000000000000000000000000000000000000602082015250565b60006136596026836126b2565b9150613664826135fd565b604082019050919050565b600060208201905081810360008301526136888161364c565b9050919050565b7f55736572206973206e6f7420612070617274206f66207468652063757272656e60008201527f7420636f6d7065746974696f6e20616e64207468657265666f72652063616e6e60208201527f6f74206d696e742e000000000000000000000000000000000000000000000000604082015250565b60006137116048836126b2565b915061371c8261368f565b606082019050919050565b6000602082019050818103600083015261374081613704565b9050919050565b7f557365722068617320616c7265616479206d696e7465642e20204f6e6c79206f60008201527f6e65206d696e7420706572207573657220616c6c6f7765642070657220636f6d60208201527f7065746974696f6e2e0000000000000000000000000000000000000000000000604082015250565b60006137c96049836126b2565b91506137d482613747565b606082019050919050565b600060208201905081810360008301526137f8816137bc565b9050919050565b7f4f776e61626c653a2063616c6c6572206973206e6f7420746865206f776e6572600082015250565b60006138356020836126b2565b9150613840826137ff565b602082019050919050565b6000602082019050818103600083015261386481613828565b9050919050565b7f4552433732313a207472616e736665722066726f6d20696e636f72726563742060008201527f6f776e6572000000000000000000000000000000000000000000000000000000602082015250565b60006138c76025836126b2565b91506138d28261386b565b604082019050919050565b600060208201905081810360008301526138f6816138ba565b9050919050565b7f4552433732313a207472616e7366657220746f20746865207a65726f2061646460008201527f7265737300000000000000000000000000000000000000000000000000000000602082015250565b60006139596024836126b2565b9150613964826138fd565b604082019050919050565b600060208201905081810360008301526139888161394c565b9050919050565b7f4e487b7100000000000000000000000000000000000000000000000000000000600052603260045260246000fd5b60006139c982612759565b91507fffffffffffffffffffffffffffffffffffffffffffffffffffffffffffffffff82036139fb576139fa613020565b5b600182019050919050565b7f4552433732313a20617070726f766520746f2063616c6c657200000000000000600082015250565b6000613a3c6019836126b2565b9150613a4782613a06565b602082019050919050565b60006020820190508181036000830152613a6b81613a2f565b9050919050565b7f4552433732313a207472616e7366657220746f206e6f6e20455243373231526560008201527f63656976657220696d706c656d656e7465720000000000000000000000000000602082015250565b6000613ace6032836126b2565b9150613ad982613a72565b604082019050919050565b60006020820190508181036000830152613afd81613ac1565b9050919050565b7f4552433732313a206d696e7420746f20746865207a65726f2061646472657373600082015250565b6000613b3a6020836126b2565b9150613b4582613b04565b602082019050919050565b60006020820190508181036000830152613b6981613b2d565b9050919050565b7f4552433732313a20746f6b656e20616c7265616479206d696e74656400000000600082015250565b6000613ba6601c836126b2565b9150613bb182613b70565b602082019050919050565b60006020820190508181036000830152613bd581613b99565b9050919050565b7f45524337323155524953746f726167653a2055524920736574206f66206e6f6e60008201527f6578697374656e7420746f6b656e000000000000000000000000000000000000602082015250565b6000613c38602e836126b2565b9150613c4382613bdc565b604082019050919050565b60006020820190508181036000830152613c6781613c2b565b9050919050565b600081519050919050565b600082825260208201905092915050565b6000613c9582613c6e565b613c9f8185613c79565b9350613caf8185602086016126c3565b613cb8816126ed565b840191505092915050565b6000608082019050613cd860008301876127ee565b613ce560208301866127ee565b613cf26040830185612884565b8181036060830152613d048184613c8a565b905095945050505050565b600081519050613d1e81612618565b92915050565b600060208284031215613d3a57613d396125e2565b5b6000613d4884828501613d0f565b91505092915050565b7f4e487b7100000000000000000000000000000000000000000000000000000000600052601260045260246000fdfea26469706673582212206041bffdc9986022bf5be3bec92e68f2aee4595b27d4fa558d578f7cea38035f64736f6c63430008110033",
  "linkReferences": {},
  "deployedLinkReferences": {}
}