{
  "_format": "hh-sol-artifact-1",
  "contractName": "Competition",
  "sourceName": "contracts/Competition.sol",
  "abi": [
    {
      "inputs": [],
      "stateMutability": "nonpayable",
      "type": "constructor"
    },
    {
      "anonymous": false,
      "inputs": [
        {
          "indexed": true,
          "internalType": "address",
          "name": "owner",
          "type": "address"
        },
        {
          "indexed": true,
          "internalType": "address",
          "name": "approved",
          "type": "address"
        },
        {
          "indexed": true,
          "internalType": "uint256",
          "name": "tokenId",
          "type": "uint256"
        }
      ],
      "name": "Approval",
      "type": "event"
    },
    {
      "anonymous": false,
      "inputs": [
        {
          "indexed": true,
          "internalType": "address",
          "name": "owner",
          "type": "address"
        },
        {
          "indexed": true,
          "internalType": "address",
          "name": "operator",
          "type": "address"
        },
        {
          "indexed": false,
          "internalType": "bool",
          "name": "approved",
          "type": "bool"
        }
      ],
      "name": "ApprovalForAll",
      "type": "event"
    },
    {
      "anonymous": false,
      "inputs": [
        {
          "indexed": true,
          "internalType": "address",
          "name": "from",
          "type": "address"
        },
        {
          "indexed": true,
          "internalType": "address",
          "name": "to",
          "type": "address"
        },
        {
          "indexed": true,
          "internalType": "uint256",
          "name": "tokenId",
          "type": "uint256"
        }
      ],
      "name": "Transfer",
      "type": "event"
    },
    {
      "inputs": [
        {
          "internalType": "address",
          "name": "to",
          "type": "address"
        },
        {
          "internalType": "uint256",
          "name": "tokenId",
          "type": "uint256"
        }
      ],
      "name": "approve",
      "outputs": [],
      "stateMutability": "nonpayable",
      "type": "function"
    },
    {
      "inputs": [
        {
          "internalType": "address",
          "name": "owner",
          "type": "address"
        }
      ],
      "name": "balanceOf",
      "outputs": [
        {
          "internalType": "uint256",
          "name": "",
          "type": "uint256"
        }
      ],
      "stateMutability": "view",
      "type": "function"
    },
    {
      "inputs": [],
      "name": "buyin",
      "outputs": [],
      "stateMutability": "payable",
      "type": "function"
    },
    {
      "inputs": [],
      "name": "checkIfOwner",
      "outputs": [
        {
          "internalType": "bool",
          "name": "",
          "type": "bool"
        }
      ],
      "stateMutability": "view",
      "type": "function"
    },
    {
      "inputs": [],
      "name": "endCompetition",
      "outputs": [],
      "stateMutability": "nonpayable",
      "type": "function"
    },
    {
      "inputs": [
        {
          "internalType": "uint256",
          "name": "tokenId",
          "type": "uint256"
        }
      ],
      "name": "getApproved",
      "outputs": [
        {
          "internalType": "address",
          "name": "",
          "type": "address"
        }
      ],
      "stateMutability": "view",
      "type": "function"
    },
    {
      "inputs": [],
      "name": "getBalanceOfContract",
      "outputs": [
        {
          "internalType": "uint256",
          "name": "",
          "type": "uint256"
        }
      ],
      "stateMutability": "view",
      "type": "function"
    },
    {
      "inputs": [],
      "name": "getCompetitionStats",
      "outputs": [
        {
          "internalType": "uint256",
          "name": "",
          "type": "uint256"
        },
        {
          "internalType": "address[]",
          "name": "",
          "type": "address[]"
        },
        {
          "internalType": "string",
          "name": "",
          "type": "string"
        },
        {
          "internalType": "uint256",
          "name": "",
          "type": "uint256"
        },
        {
          "internalType": "uint256",
          "name": "",
          "type": "uint256"
        },
        {
          "internalType": "bool",
          "name": "",
          "type": "bool"
        }
      ],
      "stateMutability": "view",
      "type": "function"
    },
    {
      "inputs": [
        {
          "internalType": "address",
          "name": "competitors",
          "type": "address"
        }
      ],
      "name": "getCompetitorStats",
      "outputs": [
        {
          "internalType": "address",
          "name": "",
          "type": "address"
        },
        {
          "internalType": "int256",
          "name": "",
          "type": "int256"
        },
        {
          "internalType": "int256",
          "name": "",
          "type": "int256"
        },
        {
          "internalType": "uint256[3]",
          "name": "",
          "type": "uint256[3]"
        },
        {
          "internalType": "uint256",
          "name": "",
          "type": "uint256"
        },
        {
          "internalType": "uint256",
          "name": "",
          "type": "uint256"
        }
      ],
      "stateMutability": "view",
      "type": "function"
    },
    {
      "inputs": [],
      "name": "getWinners",
      "outputs": [
        {
          "internalType": "address[]",
          "name": "",
          "type": "address[]"
        }
      ],
      "stateMutability": "view",
      "type": "function"
    },
    {
      "inputs": [
        {
          "internalType": "address",
          "name": "owner",
          "type": "address"
        },
        {
          "internalType": "address",
          "name": "operator",
          "type": "address"
        }
      ],
      "name": "isApprovedForAll",
      "outputs": [
        {
          "internalType": "bool",
          "name": "",
          "type": "bool"
        }
      ],
      "stateMutability": "view",
      "type": "function"
    },
    {
      "inputs": [
        {
          "internalType": "string",
          "name": "tokenURI",
          "type": "string"
        }
      ],
      "name": "mintNFT",
      "outputs": [
        {
          "internalType": "uint256",
          "name": "",
          "type": "uint256"
        }
      ],
      "stateMutability": "nonpayable",
      "type": "function"
    },
    {
      "inputs": [],
      "name": "name",
      "outputs": [
        {
          "internalType": "string",
          "name": "",
          "type": "string"
        }
      ],
      "stateMutability": "view",
      "type": "function"
    },
    {
      "inputs": [
        {
          "internalType": "uint256",
          "name": "tokenId",
          "type": "uint256"
        }
      ],
      "name": "ownerOf",
      "outputs": [
        {
          "internalType": "address",
          "name": "",
          "type": "address"
        }
      ],
      "stateMutability": "view",
      "type": "function"
    },
    {
      "inputs": [
        {
          "internalType": "address",
          "name": "from",
          "type": "address"
        },
        {
          "internalType": "address",
          "name": "to",
          "type": "address"
        },
        {
          "internalType": "uint256",
          "name": "tokenId",
          "type": "uint256"
        }
      ],
      "name": "safeTransferFrom",
      "outputs": [],
      "stateMutability": "nonpayable",
      "type": "function"
    },
    {
      "inputs": [
        {
          "internalType": "address",
          "name": "from",
          "type": "address"
        },
        {
          "internalType": "address",
          "name": "to",
          "type": "address"
        },
        {
          "internalType": "uint256",
          "name": "tokenId",
          "type": "uint256"
        },
        {
          "internalType": "bytes",
          "name": "data",
          "type": "bytes"
        }
      ],
      "name": "safeTransferFrom",
      "outputs": [],
      "stateMutability": "nonpayable",
      "type": "function"
    },
    {
      "inputs": [
        {
          "internalType": "address",
          "name": "operator",
          "type": "address"
        },
        {
          "internalType": "bool",
          "name": "approved",
          "type": "bool"
        }
      ],
      "name": "setApprovalForAll",
      "outputs": [],
      "stateMutability": "nonpayable",
      "type": "function"
    },
    {
      "inputs": [
        {
          "internalType": "uint256",
          "name": "spots",
          "type": "uint256"
        },
        {
          "internalType": "uint256",
          "name": "cost",
          "type": "uint256"
        },
        {
          "internalType": "string",
          "name": "typeComp",
          "type": "string"
        }
      ],
      "name": "startCompetition",
      "outputs": [],
      "stateMutability": "nonpayable",
      "type": "function"
    },
    {
      "inputs": [
        {
          "internalType": "bytes4",
          "name": "interfaceId",
          "type": "bytes4"
        }
      ],
      "name": "supportsInterface",
      "outputs": [
        {
          "internalType": "bool",
          "name": "",
          "type": "bool"
        }
      ],
      "stateMutability": "view",
      "type": "function"
    },
    {
      "inputs": [],
      "name": "symbol",
      "outputs": [
        {
          "internalType": "string",
          "name": "",
          "type": "string"
        }
      ],
      "stateMutability": "view",
      "type": "function"
    },
    {
      "inputs": [
        {
          "internalType": "uint256",
          "name": "tokenId",
          "type": "uint256"
        }
      ],
      "name": "tokenURI",
      "outputs": [
        {
          "internalType": "string",
          "name": "",
          "type": "string"
        }
      ],
      "stateMutability": "view",
      "type": "function"
    },
    {
      "inputs": [
        {
          "internalType": "address",
          "name": "from",
          "type": "address"
        },
        {
          "internalType": "address",
          "name": "to",
          "type": "address"
        },
        {
          "internalType": "uint256",
          "name": "tokenId",
          "type": "uint256"
        }
      ],
      "name": "transferFrom",
      "outputs": [],
      "stateMutability": "nonpayable",
      "type": "function"
    },
    {
      "inputs": [
        {
          "internalType": "address",
          "name": "voteFor",
          "type": "address"
        }
      ],
      "name": "vote",
      "outputs": [],
      "stateMutability": "nonpayable",
      "type": "function"
    },
    {
      "inputs": [],
      "name": "withdrawMoney",
      "outputs": [],
      "stateMutability": "nonpayable",
      "type": "function"
    }
  ],
  "bytecode": "0x60806040523480156200001157600080fd5b506040518060400160405280600b81526020017f776176706f6f6c204e46540000000000000000000000000000000000000000008152506040518060400160405280600481526020017f574156500000000000000000000000000000000000000000000000000000000081525081600090816200008f919062000396565b508060019081620000a1919062000396565b505050600060096000600a54815260200190815260200160002060050160006101000a81548160ff02191690831515021790555033600f60006101000a81548173ffffffffffffffffffffffffffffffffffffffff021916908373ffffffffffffffffffffffffffffffffffffffff1602179055506200047d565b600081519050919050565b7f4e487b7100000000000000000000000000000000000000000000000000000000600052604160045260246000fd5b7f4e487b7100000000000000000000000000000000000000000000000000000000600052602260045260246000fd5b600060028204905060018216806200019e57607f821691505b602082108103620001b457620001b362000156565b5b50919050565b60008190508160005260206000209050919050565b60006020601f8301049050919050565b600082821b905092915050565b6000600883026200021e7fffffffffffffffffffffffffffffffffffffffffffffffffffffffffffffffff82620001df565b6200022a8683620001df565b95508019841693508086168417925050509392505050565b6000819050919050565b6000819050919050565b600062000277620002716200026b8462000242565b6200024c565b62000242565b9050919050565b6000819050919050565b620002938362000256565b620002ab620002a2826200027e565b848454620001ec565b825550505050565b600090565b620002c2620002b3565b620002cf81848462000288565b505050565b5b81811015620002f757620002eb600082620002b8565b600181019050620002d5565b5050565b601f82111562000346576200031081620001ba565b6200031b84620001cf565b810160208510156200032b578190505b620003436200033a85620001cf565b830182620002d4565b50505b505050565b600082821c905092915050565b60006200036b600019846008026200034b565b1980831691505092915050565b600062000386838362000358565b9150826002028217905092915050565b620003a1826200011c565b67ffffffffffffffff811115620003bd57620003bc62000127565b5b620003c9825462000185565b620003d6828285620002fb565b600060209050601f8311600181146200040e5760008415620003f9578287015190505b62000405858262000378565b86555062000475565b601f1984166200041e86620001ba565b60005b82811015620004485784890151825560018201915060208501945060208101905062000421565b8683101562000468578489015162000464601f89168262000358565b8355505b6001600288020188555050505b505050505050565b615350806200048d6000396000f3fe60806040526004361061014b5760003560e01c8063898de773116100b6578063c87b56dd1161006f578063c87b56dd14610460578063df15c37e1461049d578063e985e9c5146104c8578063f509252114610505578063f80eca2214610547578063fb37e8831461055e5761014b565b8063898de7731461037157806395d89b411461039c578063a22cb465146103c7578063a789ab3a146103f0578063ac44600214610420578063b88d4fde146104375761014b565b806342842e0e1161010857806342842e0e1461027257806355f1d1721461029b5780636352211e146102c457806369766079146103015780636dd7d8ea1461030b57806370a08231146103345761014b565b806301ffc9a71461015057806306fdde031461018d578063081812fc146101b8578063095ea7b3146101f5578063229688851461021e57806323b872dd14610249575b600080fd5b34801561015c57600080fd5b50610177600480360381019061017291906138ad565b61059b565b60405161018491906138f5565b60405180910390f35b34801561019957600080fd5b506101a261067d565b6040516101af91906139a0565b60405180910390f35b3480156101c457600080fd5b506101df60048036038101906101da91906139f8565b61070f565b6040516101ec9190613a66565b60405180910390f35b34801561020157600080fd5b5061021c60048036038101906102179190613aad565b610755565b005b34801561022a57600080fd5b5061023361086c565b6040516102409190613afc565b60405180910390f35b34801561025557600080fd5b50610270600480360381019061026b9190613b17565b610904565b005b34801561027e57600080fd5b5061029960048036038101906102949190613b17565b610964565b005b3480156102a757600080fd5b506102c260048036038101906102bd9190613c9f565b610984565b005b3480156102d057600080fd5b506102eb60048036038101906102e691906139f8565b610afa565b6040516102f89190613a66565b60405180910390f35b610309610b80565b005b34801561031757600080fd5b50610332600480360381019061032d9190613d0e565b61106f565b005b34801561034057600080fd5b5061035b60048036038101906103569190613d0e565b611260565b6040516103689190613afc565b60405180910390f35b34801561037d57600080fd5b50610386611317565b60405161039391906138f5565b60405180910390f35b3480156103a857600080fd5b506103b161137f565b6040516103be91906139a0565b60405180910390f35b3480156103d357600080fd5b506103ee60048036038101906103e99190613d67565b611411565b005b3480156103fc57600080fd5b50610405611427565b60405161041796959493929190613e65565b60405180910390f35b34801561042c57600080fd5b506104356115fa565b005b34801561044357600080fd5b5061045e60048036038101906104599190613f75565b6116e0565b005b34801561046c57600080fd5b50610487600480360381019061048291906139f8565b611742565b60405161049491906139a0565b60405180910390f35b3480156104a957600080fd5b506104b2611854565b6040516104bf9190613ff8565b60405180910390f35b3480156104d457600080fd5b506104ef60048036038101906104ea919061401a565b61194a565b6040516104fc91906138f5565b60405180910390f35b34801561051157600080fd5b5061052c60048036038101906105279190613d0e565b6119de565b60405161053e9695949392919061411e565b60405180910390f35b34801561055357600080fd5b5061055c611bf3565b005b34801561056a57600080fd5b5061058560048036038101906105809190614180565b6122fa565b6040516105929190613afc565b60405180910390f35b60007f80ac58cd000000000000000000000000000000000000000000000000000000007bffffffffffffffffffffffffffffffffffffffffffffffffffffffff1916827bffffffffffffffffffffffffffffffffffffffffffffffffffffffff1916148061066657507f5b5e139f000000000000000000000000000000000000000000000000000000007bffffffffffffffffffffffffffffffffffffffffffffffffffffffff1916827bffffffffffffffffffffffffffffffffffffffffffffffffffffffff1916145b806106765750610675826124b1565b5b9050919050565b60606000805461068c906141f8565b80601f01602080910402602001604051908101604052809291908181526020018280546106b8906141f8565b80156107055780601f106106da57610100808354040283529160200191610705565b820191906000526020600020905b8154815290600101906020018083116106e857829003601f168201915b5050505050905090565b600061071a8261251b565b6004600083815260200190815260200160002060009054906101000a900473ffffffffffffffffffffffffffffffffffffffff169050919050565b600061076082610afa565b90508073ffffffffffffffffffffffffffffffffffffffff168373ffffffffffffffffffffffffffffffffffffffff16036107d0576040517f08c379a00000000000000000000000000000000000000000000000000000000081526004016107c79061429b565b60405180910390fd5b8073ffffffffffffffffffffffffffffffffffffffff166107ef612566565b73ffffffffffffffffffffffffffffffffffffffff16148061081e575061081d81610818612566565b61194a565b5b61085d576040517f08c379a00000000000000000000000000000000000000000000000000000000081526004016108549061432d565b60405180910390fd5b610867838361256e565b505050565b6000600f60009054906101000a900473ffffffffffffffffffffffffffffffffffffffff1673ffffffffffffffffffffffffffffffffffffffff163373ffffffffffffffffffffffffffffffffffffffff16146108fe576040517f08c379a00000000000000000000000000000000000000000000000000000000081526004016108f590614399565b60405180910390fd5b47905090565b61091561090f612566565b82612627565b610954576040517f08c379a000000000000000000000000000000000000000000000000000000000815260040161094b9061442b565b60405180910390fd5b61095f8383836126bc565b505050565b61097f838383604051806020016040528060008152506116e0565b505050565b600f60009054906101000a900473ffffffffffffffffffffffffffffffffffffffff1673ffffffffffffffffffffffffffffffffffffffff163373ffffffffffffffffffffffffffffffffffffffff1614610a14576040517f08c379a0000000000000000000000000000000000000000000000000000000008152600401610a0b90614399565b60405180910390fd5b60606040518060e00160405280828152602001828152602001848152602001858152602001600a5481526020016001151581526020018381525060096000600a5481526020019081526020016000206000820151816000019080519060200190610a7f929190613738565b506020820151816001019080519060200190610a9c929190613738565b5060408201518160020155606082015181600301556080820151816004015560a08201518160050160006101000a81548160ff02191690831515021790555060c0820151816006019081610af091906145f7565b5090505050505050565b600080610b06836129b5565b9050600073ffffffffffffffffffffffffffffffffffffffff168173ffffffffffffffffffffffffffffffffffffffff1603610b77576040517f08c379a0000000000000000000000000000000000000000000000000000000008152600401610b6e90614715565b60405180910390fd5b80915050919050565b610b886129f2565b15610bc8576040517f08c379a0000000000000000000000000000000000000000000000000000000008152600401610bbf906147a7565b60405180910390fd5b600060096000600a5481526020019081526020016000206003015411610c23576040517f08c379a0000000000000000000000000000000000000000000000000000000008152600401610c1a90614813565b60405180910390fd5b60096000600a548152602001908152602001600020600201543414610c7d576040517f08c379a0000000000000000000000000000000000000000000000000000000008152600401610c749061487f565b60405180910390fd5b610c856137c2565b3373ffffffffffffffffffffffffffffffffffffffff16600860003373ffffffffffffffffffffffffffffffffffffffff1673ffffffffffffffffffffffffffffffffffffffff16815260200190815260200160002060000160009054906101000a900473ffffffffffffffffffffffffffffffffffffffff1673ffffffffffffffffffffffffffffffffffffffff1614610e90576040518061010001604052803373ffffffffffffffffffffffffffffffffffffffff16815260200160008152602001600081526020016001815260200160008152602001600081526020018281526020016000815250600860003373ffffffffffffffffffffffffffffffffffffffff1673ffffffffffffffffffffffffffffffffffffffff16815260200190815260200160002060008201518160000160006101000a81548173ffffffffffffffffffffffffffffffffffffffff021916908373ffffffffffffffffffffffffffffffffffffffff1602179055506020820151816001015560408201518160020155606082015181600301556080820151816004015560a0820151816005015560c082015181600601906003610e3f9291906137e4565b5060e08201518160090155905050610e8b6040518060400160405280600381526020017f6e65770000000000000000000000000000000000000000000000000000000000815250612aca565b610f69565b6001600860003373ffffffffffffffffffffffffffffffffffffffff1673ffffffffffffffffffffffffffffffffffffffff168152602001908152602001600020600301819055506000600860003373ffffffffffffffffffffffffffffffffffffffff1673ffffffffffffffffffffffffffffffffffffffff168152602001908152602001600020600401819055506000600860003373ffffffffffffffffffffffffffffffffffffffff1673ffffffffffffffffffffffffffffffffffffffff168152602001908152602001600020600101819055505b60096000600a548152602001908152602001600020600001339080600181540180825580915050600190039060005260206000200160009091909190916101000a81548173ffffffffffffffffffffffffffffffffffffffff021916908373ffffffffffffffffffffffffffffffffffffffff160217905550600160096000600a548152602001908152602001600020600301600082825461100b91906148ce565b925050819055506001600860003373ffffffffffffffffffffffffffffffffffffffff1673ffffffffffffffffffffffffffffffffffffffff16815260200190815260200160002060090160008282546110659190614902565b9250508190555050565b6110776129f2565b6110b6576040517f08c379a00000000000000000000000000000000000000000000000000000000081526004016110ad906149ce565b60405180910390fd5b6001600860003373ffffffffffffffffffffffffffffffffffffffff1673ffffffffffffffffffffffffffffffffffffffff168152602001908152602001600020600301541461113b576040517f08c379a000000000000000000000000000000000000000000000000000000000815260040161113290614a60565b60405180910390fd5b8073ffffffffffffffffffffffffffffffffffffffff163373ffffffffffffffffffffffffffffffffffffffff16036111a9576040517f08c379a00000000000000000000000000000000000000000000000000000000081526004016111a090614af2565b60405180910390fd5b6001600860003373ffffffffffffffffffffffffffffffffffffffff1673ffffffffffffffffffffffffffffffffffffffff16815260200190815260200160002060030160008282546111fc91906148ce565b925050819055506001600860008373ffffffffffffffffffffffffffffffffffffffff1673ffffffffffffffffffffffffffffffffffffffff16815260200190815260200160002060040160008282546112569190614b12565b9250508190555050565b60008073ffffffffffffffffffffffffffffffffffffffff168273ffffffffffffffffffffffffffffffffffffffff16036112d0576040517f08c379a00000000000000000000000000000000000000000000000000000000081526004016112c790614bc8565b60405180910390fd5b600360008373ffffffffffffffffffffffffffffffffffffffff1673ffffffffffffffffffffffffffffffffffffffff168152602001908152602001600020549050919050565b60003373ffffffffffffffffffffffffffffffffffffffff16600f60009054906101000a900473ffffffffffffffffffffffffffffffffffffffff1673ffffffffffffffffffffffffffffffffffffffff1603611377576001905061137c565b600090505b90565b60606001805461138e906141f8565b80601f01602080910402602001604051908101604052809291908181526020018280546113ba906141f8565b80156114075780601f106113dc57610100808354040283529160200191611407565b820191906000526020600020905b8154815290600101906020018083116113ea57829003601f168201915b5050505050905090565b61142361141c612566565b8383612b63565b5050565b6000606080600080600060096000600a5481526020019081526020016000206004015460096000600a54815260200190815260200160002060000160096000600a54815260200190815260200160002060060160096000600a5481526020019081526020016000206003015460096000600a5481526020019081526020016000206002015460096000600a54815260200190815260200160002060050160009054906101000a900460ff168480548060200260200160405190810160405280929190818152602001828054801561155357602002820191906000526020600020905b8160009054906101000a900473ffffffffffffffffffffffffffffffffffffffff1673ffffffffffffffffffffffffffffffffffffffff1681526020019060010190808311611509575b50505050509450838054611566906141f8565b80601f0160208091040260200160405190810160405280929190818152602001828054611592906141f8565b80156115df5780601f106115b4576101008083540402835291602001916115df565b820191906000526020600020905b8154815290600101906020018083116115c257829003601f168201915b50505050509350955095509550955095509550909192939495565b600f60009054906101000a900473ffffffffffffffffffffffffffffffffffffffff1673ffffffffffffffffffffffffffffffffffffffff163373ffffffffffffffffffffffffffffffffffffffff161461168a576040517f08c379a000000000000000000000000000000000000000000000000000000000815260040161168190614399565b60405180910390fd5b60003390508073ffffffffffffffffffffffffffffffffffffffff166108fc6116b161086c565b9081150290604051600060405180830381858888f193505050501580156116dc573d6000803e3d6000fd5b5050565b6116f16116eb612566565b83612627565b611730576040517f08c379a00000000000000000000000000000000000000000000000000000000081526004016117279061442b565b60405180910390fd5b61173c84848484612ccf565b50505050565b606061174d8261251b565b600060066000848152602001908152602001600020805461176d906141f8565b80601f0160208091040260200160405190810160405280929190818152602001828054611799906141f8565b80156117e65780601f106117bb576101008083540402835291602001916117e6565b820191906000526020600020905b8154815290600101906020018083116117c957829003601f168201915b5050505050905060006117f7612d2b565b9050600081510361180c57819250505061184f565b600082511115611841578082604051602001611829929190614c24565b6040516020818303038152906040529250505061184f565b61184a84612d42565b925050505b919050565b60606001600a54101561189c576040517f08c379a000000000000000000000000000000000000000000000000000000000815260040161189390614cba565b60405180910390fd5b600960006001600a546118af91906148ce565b815260200190815260200160002060010180548060200260200160405190810160405280929190818152602001828054801561194057602002820191906000526020600020905b8160009054906101000a900473ffffffffffffffffffffffffffffffffffffffff1673ffffffffffffffffffffffffffffffffffffffff16815260200190600101908083116118f6575b5050505050905090565b6000600560008473ffffffffffffffffffffffffffffffffffffffff1673ffffffffffffffffffffffffffffffffffffffff16815260200190815260200160002060008373ffffffffffffffffffffffffffffffffffffffff1673ffffffffffffffffffffffffffffffffffffffff16815260200190815260200160002060009054906101000a900460ff16905092915050565b60008060006119eb6137c2565b600080600860008873ffffffffffffffffffffffffffffffffffffffff1673ffffffffffffffffffffffffffffffffffffffff16815260200190815260200160002060000160009054906101000a900473ffffffffffffffffffffffffffffffffffffffff16600860008973ffffffffffffffffffffffffffffffffffffffff1673ffffffffffffffffffffffffffffffffffffffff16815260200190815260200160002060040154600860008a73ffffffffffffffffffffffffffffffffffffffff1673ffffffffffffffffffffffffffffffffffffffff16815260200190815260200160002060050154600860008b73ffffffffffffffffffffffffffffffffffffffff1673ffffffffffffffffffffffffffffffffffffffff168152602001908152602001600020600601600860008c73ffffffffffffffffffffffffffffffffffffffff1673ffffffffffffffffffffffffffffffffffffffff16815260200190815260200160002060090154600860008d73ffffffffffffffffffffffffffffffffffffffff1673ffffffffffffffffffffffffffffffffffffffff1681526020019081526020016000206002015482600380602002604051908101604052809291908260038015611bd7576020028201915b815481526020019060010190808311611bc3575b5050505050925095509550955095509550955091939550919395565b600f60009054906101000a900473ffffffffffffffffffffffffffffffffffffffff1673ffffffffffffffffffffffffffffffffffffffff163373ffffffffffffffffffffffffffffffffffffffff1614611c83576040517f08c379a0000000000000000000000000000000000000000000000000000000008152600401611c7a90614399565b60405180910390fd5b6002600e54116120d25760005b60096000600a54815260200190815260200160002060000180549050811015611f8f57600c546008600060096000600a5481526020019081526020016000206000018481548110611ce457611ce3614cda565b5b9060005260206000200160009054906101000a900473ffffffffffffffffffffffffffffffffffffffff1673ffffffffffffffffffffffffffffffffffffffff1673ffffffffffffffffffffffffffffffffffffffff16815260200190815260200160002060040154138015611ddb5750600073ffffffffffffffffffffffffffffffffffffffff1660096000600a5481526020019081526020016000206000018281548110611d9757611d96614cda565b5b9060005260206000200160009054906101000a900473ffffffffffffffffffffffffffffffffffffffff1673ffffffffffffffffffffffffffffffffffffffff1614155b15611f7c576008600060096000600a5481526020019081526020016000206000018381548110611e0e57611e0d614cda565b5b9060005260206000200160009054906101000a900473ffffffffffffffffffffffffffffffffffffffff1673ffffffffffffffffffffffffffffffffffffffff1673ffffffffffffffffffffffffffffffffffffffff16815260200190815260200160002060000160009054906101000a900473ffffffffffffffffffffffffffffffffffffffff16600b60006101000a81548173ffffffffffffffffffffffffffffffffffffffff021916908373ffffffffffffffffffffffffffffffffffffffff1602179055506008600060096000600a5481526020019081526020016000206000018381548110611f0557611f04614cda565b5b9060005260206000200160009054906101000a900473ffffffffffffffffffffffffffffffffffffffff1673ffffffffffffffffffffffffffffffffffffffff1673ffffffffffffffffffffffffffffffffffffffff16815260200190815260200160002060040154600c8190555080600d819055505b8080611f8790614d09565b915050611c90565b5060096000600a548152602001908152602001600020600101600b60009054906101000a900473ffffffffffffffffffffffffffffffffffffffff169080600181540180825580915050600190039060005260206000200160009091909190916101000a81548173ffffffffffffffffffffffffffffffffffffffff021916908373ffffffffffffffffffffffffffffffffffffffff16021790555060096000600a548152602001908152602001600020600001600d548154811061205757612056614cda565b5b9060005260206000200160006101000a81549073ffffffffffffffffffffffffffffffffffffffff02191690557fffffffffffffffffffffffffffffffffffffffffffffffffffffffffffffffff600c819055506001600e60008282546120be9190614902565b925050819055506120cd611bf3565b6122f8565b6000600260096000600a5481526020019081526020016000206000018054905060096000600a548152602001908152602001600020600201546121159190614d51565b61211f9190614dc2565b905060005b60096000600a548152602001908152602001600020600101805490508110156122cb576002826121549190614dc2565b9150600060096000600a548152602001908152602001600020600101828154811061218257612181614cda565b5b9060005260206000200160009054906101000a900473ffffffffffffffffffffffffffffffffffffffff1690508073ffffffffffffffffffffffffffffffffffffffff166108fc849081150290604051600060405180830381858888f193505050501580156121f5573d6000803e3d6000fd5b5060016008600060096000600a548152602001908152602001600020600101858154811061222657612225614cda565b5b9060005260206000200160009054906101000a900473ffffffffffffffffffffffffffffffffffffffff1673ffffffffffffffffffffffffffffffffffffffff1673ffffffffffffffffffffffffffffffffffffffff16815260200190815260200160002060060183600381106122a05761229f614cda565b5b0160008282546122b09190614902565b925050819055505080806122c390614d09565b915050612124565b506122d4612daa565b6001600a60008282546122e79190614902565b925050819055506000600e81905550505b565b60006123046129f2565b612343576040517f08c379a000000000000000000000000000000000000000000000000000000000815260040161233a906149ce565b60405180910390fd5b6001600860003373ffffffffffffffffffffffffffffffffffffffff1673ffffffffffffffffffffffffffffffffffffffff16815260200190815260200160002060010154106123c8576040517f08c379a00000000000000000000000000000000000000000000000000000000081526004016123bf90614e8b565b60405180910390fd5b6123d26007612f29565b60006123de6007612f3f565b90506123ea3382612f4d565b6123f4818461316a565b6001600860003373ffffffffffffffffffffffffffffffffffffffff1673ffffffffffffffffffffffffffffffffffffffff16815260200190815260200160002060010160008282546124479190614902565b925050819055506001600860003373ffffffffffffffffffffffffffffffffffffffff1673ffffffffffffffffffffffffffffffffffffffff16815260200190815260200160002060020160008282546124a19190614902565b9250508190555080915050919050565b60007f01ffc9a7000000000000000000000000000000000000000000000000000000007bffffffffffffffffffffffffffffffffffffffffffffffffffffffff1916827bffffffffffffffffffffffffffffffffffffffffffffffffffffffff1916149050919050565b612524816131d7565b612563576040517f08c379a000000000000000000000000000000000000000000000000000000000815260040161255a90614715565b60405180910390fd5b50565b600033905090565b816004600083815260200190815260200160002060006101000a81548173ffffffffffffffffffffffffffffffffffffffff021916908373ffffffffffffffffffffffffffffffffffffffff160217905550808273ffffffffffffffffffffffffffffffffffffffff166125e183610afa565b73ffffffffffffffffffffffffffffffffffffffff167f8c5be1e5ebec7d5bd14f71427d1e84f3dd0314c0f7b2291e5b200ac8c7c3b92560405160405180910390a45050565b60008061263383610afa565b90508073ffffffffffffffffffffffffffffffffffffffff168473ffffffffffffffffffffffffffffffffffffffff1614806126755750612674818561194a565b5b806126b357508373ffffffffffffffffffffffffffffffffffffffff1661269b8461070f565b73ffffffffffffffffffffffffffffffffffffffff16145b91505092915050565b8273ffffffffffffffffffffffffffffffffffffffff166126dc82610afa565b73ffffffffffffffffffffffffffffffffffffffff1614612732576040517f08c379a000000000000000000000000000000000000000000000000000000000815260040161272990614f1d565b60405180910390fd5b600073ffffffffffffffffffffffffffffffffffffffff168273ffffffffffffffffffffffffffffffffffffffff16036127a1576040517f08c379a000000000000000000000000000000000000000000000000000000000815260040161279890614faf565b60405180910390fd5b6127ae8383836001613218565b8273ffffffffffffffffffffffffffffffffffffffff166127ce82610afa565b73ffffffffffffffffffffffffffffffffffffffff1614612824576040517f08c379a000000000000000000000000000000000000000000000000000000000815260040161281b90614f1d565b60405180910390fd5b6004600082815260200190815260200160002060006101000a81549073ffffffffffffffffffffffffffffffffffffffff02191690556001600360008573ffffffffffffffffffffffffffffffffffffffff1673ffffffffffffffffffffffffffffffffffffffff168152602001908152602001600020600082825403925050819055506001600360008473ffffffffffffffffffffffffffffffffffffffff1673ffffffffffffffffffffffffffffffffffffffff16815260200190815260200160002060008282540192505081905550816002600083815260200190815260200160002060006101000a81548173ffffffffffffffffffffffffffffffffffffffff021916908373ffffffffffffffffffffffffffffffffffffffff160217905550808273ffffffffffffffffffffffffffffffffffffffff168473ffffffffffffffffffffffffffffffffffffffff167fddf252ad1be2c89b69c2b068fc378daa952ba7f163c4a11628f55a4df523b3ef60405160405180910390a46129b0838383600161333e565b505050565b60006002600083815260200190815260200160002060009054906101000a900473ffffffffffffffffffffffffffffffffffffffff169050919050565b600080600090505b60096000600a54815260200190815260200160002060000180549050811015612ac15760096000600a5481526020019081526020016000206000018181548110612a4757612a46614cda565b5b9060005260206000200160009054906101000a900473ffffffffffffffffffffffffffffffffffffffff1673ffffffffffffffffffffffffffffffffffffffff163373ffffffffffffffffffffffffffffffffffffffff1603612aae576001915050612ac7565b8080612ab990614d09565b9150506129fa565b50600090505b90565b612b6081604051602401612ade91906139a0565b6040516020818303038152906040527f41304fac000000000000000000000000000000000000000000000000000000007bffffffffffffffffffffffffffffffffffffffffffffffffffffffff19166020820180517bffffffffffffffffffffffffffffffffffffffffffffffffffffffff8381831617835250505050613344565b50565b8173ffffffffffffffffffffffffffffffffffffffff168373ffffffffffffffffffffffffffffffffffffffff1603612bd1576040517f08c379a0000000000000000000000000000000000000000000000000000000008152600401612bc89061501b565b60405180910390fd5b80600560008573ffffffffffffffffffffffffffffffffffffffff1673ffffffffffffffffffffffffffffffffffffffff16815260200190815260200160002060008473ffffffffffffffffffffffffffffffffffffffff1673ffffffffffffffffffffffffffffffffffffffff16815260200190815260200160002060006101000a81548160ff0219169083151502179055508173ffffffffffffffffffffffffffffffffffffffff168373ffffffffffffffffffffffffffffffffffffffff167f17307eab39ab6107e8899845ad3d59bd9653f200f220920489ca2b5937696c3183604051612cc291906138f5565b60405180910390a3505050565b612cda8484846126bc565b612ce68484848461336d565b612d25576040517f08c379a0000000000000000000000000000000000000000000000000000000008152600401612d1c906150ad565b60405180910390fd5b50505050565b606060405180602001604052806000815250905090565b6060612d4d8261251b565b6000612d57612d2b565b90506000815111612d775760405180602001604052806000815250612da2565b80612d81846134f4565b604051602001612d92929190614c24565b6040516020818303038152906040525b915050919050565b60005b60096000600a54815260200190815260200160002060000180549050811015612f26576008600060096000600a5481526020019081526020016000206000018381548110612dfe57612dfd614cda565b5b9060005260206000200160009054906101000a900473ffffffffffffffffffffffffffffffffffffffff1673ffffffffffffffffffffffffffffffffffffffff1673ffffffffffffffffffffffffffffffffffffffff168152602001908152602001600020600401546008600060096000600a5481526020019081526020016000206000018481548110612e9557612e94614cda565b5b9060005260206000200160009054906101000a900473ffffffffffffffffffffffffffffffffffffffff1673ffffffffffffffffffffffffffffffffffffffff1673ffffffffffffffffffffffffffffffffffffffff1681526020019081526020016000206005016000828254612f0c9190614b12565b925050819055508080612f1e90614d09565b915050612dad565b50565b6001816000016000828254019250508190555050565b600081600001549050919050565b600073ffffffffffffffffffffffffffffffffffffffff168273ffffffffffffffffffffffffffffffffffffffff1603612fbc576040517f08c379a0000000000000000000000000000000000000000000000000000000008152600401612fb390615119565b60405180910390fd5b612fc5816131d7565b15613005576040517f08c379a0000000000000000000000000000000000000000000000000000000008152600401612ffc90615185565b60405180910390fd5b613013600083836001613218565b61301c816131d7565b1561305c576040517f08c379a000000000000000000000000000000000000000000000000000000000815260040161305390615185565b60405180910390fd5b6001600360008473ffffffffffffffffffffffffffffffffffffffff1673ffffffffffffffffffffffffffffffffffffffff16815260200190815260200160002060008282540192505081905550816002600083815260200190815260200160002060006101000a81548173ffffffffffffffffffffffffffffffffffffffff021916908373ffffffffffffffffffffffffffffffffffffffff160217905550808273ffffffffffffffffffffffffffffffffffffffff16600073ffffffffffffffffffffffffffffffffffffffff167fddf252ad1be2c89b69c2b068fc378daa952ba7f163c4a11628f55a4df523b3ef60405160405180910390a461316660008383600161333e565b5050565b613173826131d7565b6131b2576040517f08c379a00000000000000000000000000000000000000000000000000000000081526004016131a990615217565b60405180910390fd5b806006600084815260200190815260200160002090816131d291906145f7565b505050565b60008073ffffffffffffffffffffffffffffffffffffffff166131f9836129b5565b73ffffffffffffffffffffffffffffffffffffffff1614159050919050565b600181111561333857600073ffffffffffffffffffffffffffffffffffffffff168473ffffffffffffffffffffffffffffffffffffffff16146132ac5780600360008673ffffffffffffffffffffffffffffffffffffffff1673ffffffffffffffffffffffffffffffffffffffff16815260200190815260200160002060008282546132a491906148ce565b925050819055505b600073ffffffffffffffffffffffffffffffffffffffff168373ffffffffffffffffffffffffffffffffffffffff16146133375780600360008573ffffffffffffffffffffffffffffffffffffffff1673ffffffffffffffffffffffffffffffffffffffff168152602001908152602001600020600082825461332f9190614902565b925050819055505b5b50505050565b50505050565b60008151905060006a636f6e736f6c652e6c6f679050602083016000808483855afa5050505050565b600061338e8473ffffffffffffffffffffffffffffffffffffffff166135c2565b156134e7578373ffffffffffffffffffffffffffffffffffffffff1663150b7a026133b7612566565b8786866040518563ffffffff1660e01b81526004016133d9949392919061528c565b6020604051808303816000875af192505050801561341557506040513d601f19601f8201168201806040525081019061341291906152ed565b60015b613497573d8060008114613445576040519150601f19603f3d011682016040523d82523d6000602084013e61344a565b606091505b50600081510361348f576040517f08c379a0000000000000000000000000000000000000000000000000000000008152600401613486906150ad565b60405180910390fd5b805181602001fd5b63150b7a0260e01b7bffffffffffffffffffffffffffffffffffffffffffffffffffffffff1916817bffffffffffffffffffffffffffffffffffffffffffffffffffffffff1916149150506134ec565b600190505b949350505050565b606060006001613503846135e5565b01905060008167ffffffffffffffff81111561352257613521613b74565b5b6040519080825280601f01601f1916602001820160405280156135545781602001600182028036833780820191505090505b509050600082602001820190505b6001156135b7578080600190039150507f3031323334353637383961626364656600000000000000000000000000000000600a86061a8153600a85816135ab576135aa614d93565b5b04945060008503613562575b819350505050919050565b6000808273ffffffffffffffffffffffffffffffffffffffff163b119050919050565b600080600090507a184f03e93ff9f4daa797ed6e38ed64bf6a1f0100000000000000008310613643577a184f03e93ff9f4daa797ed6e38ed64bf6a1f010000000000000000838161363957613638614d93565b5b0492506040810190505b6d04ee2d6d415b85acef81000000008310613680576d04ee2d6d415b85acef8100000000838161367657613675614d93565b5b0492506020810190505b662386f26fc1000083106136af57662386f26fc1000083816136a5576136a4614d93565b5b0492506010810190505b6305f5e10083106136d8576305f5e10083816136ce576136cd614d93565b5b0492506008810190505b61271083106136fd5761271083816136f3576136f2614d93565b5b0492506004810190505b60648310613720576064838161371657613715614d93565b5b0492506002810190505b600a831061372f576001810190505b80915050919050565b8280548282559060005260206000209081019282156137b1579160200282015b828111156137b05782518260006101000a81548173ffffffffffffffffffffffffffffffffffffffff021916908373ffffffffffffffffffffffffffffffffffffffff16021790555091602001919060010190613758565b5b5090506137be9190613824565b5090565b6040518060600160405280600390602082028036833780820191505090505090565b8260038101928215613813579160200282015b828111156138125782518255916020019190600101906137f7565b5b5090506138209190613824565b5090565b5b8082111561383d576000816000905550600101613825565b5090565b6000604051905090565b600080fd5b600080fd5b60007fffffffff0000000000000000000000000000000000000000000000000000000082169050919050565b61388a81613855565b811461389557600080fd5b50565b6000813590506138a781613881565b92915050565b6000602082840312156138c3576138c261384b565b5b60006138d184828501613898565b91505092915050565b60008115159050919050565b6138ef816138da565b82525050565b600060208201905061390a60008301846138e6565b92915050565b600081519050919050565b600082825260208201905092915050565b60005b8381101561394a57808201518184015260208101905061392f565b60008484015250505050565b6000601f19601f8301169050919050565b600061397282613910565b61397c818561391b565b935061398c81856020860161392c565b61399581613956565b840191505092915050565b600060208201905081810360008301526139ba8184613967565b905092915050565b6000819050919050565b6139d5816139c2565b81146139e057600080fd5b50565b6000813590506139f2816139cc565b92915050565b600060208284031215613a0e57613a0d61384b565b5b6000613a1c848285016139e3565b91505092915050565b600073ffffffffffffffffffffffffffffffffffffffff82169050919050565b6000613a5082613a25565b9050919050565b613a6081613a45565b82525050565b6000602082019050613a7b6000830184613a57565b92915050565b613a8a81613a45565b8114613a9557600080fd5b50565b600081359050613aa781613a81565b92915050565b60008060408385031215613ac457613ac361384b565b5b6000613ad285828601613a98565b9250506020613ae3858286016139e3565b9150509250929050565b613af6816139c2565b82525050565b6000602082019050613b116000830184613aed565b92915050565b600080600060608486031215613b3057613b2f61384b565b5b6000613b3e86828701613a98565b9350506020613b4f86828701613a98565b9250506040613b60868287016139e3565b9150509250925092565b600080fd5b600080fd5b7f4e487b7100000000000000000000000000000000000000000000000000000000600052604160045260246000fd5b613bac82613956565b810181811067ffffffffffffffff82111715613bcb57613bca613b74565b5b80604052505050565b6000613bde613841565b9050613bea8282613ba3565b919050565b600067ffffffffffffffff821115613c0a57613c09613b74565b5b613c1382613956565b9050602081019050919050565b82818337600083830152505050565b6000613c42613c3d84613bef565b613bd4565b905082815260208101848484011115613c5e57613c5d613b6f565b5b613c69848285613c20565b509392505050565b600082601f830112613c8657613c85613b6a565b5b8135613c96848260208601613c2f565b91505092915050565b600080600060608486031215613cb857613cb761384b565b5b6000613cc6868287016139e3565b9350506020613cd7868287016139e3565b925050604084013567ffffffffffffffff811115613cf857613cf7613850565b5b613d0486828701613c71565b9150509250925092565b600060208284031215613d2457613d2361384b565b5b6000613d3284828501613a98565b91505092915050565b613d44816138da565b8114613d4f57600080fd5b50565b600081359050613d6181613d3b565b92915050565b60008060408385031215613d7e57613d7d61384b565b5b6000613d8c85828601613a98565b9250506020613d9d85828601613d52565b9150509250929050565b600081519050919050565b600082825260208201905092915050565b6000819050602082019050919050565b613ddc81613a45565b82525050565b6000613dee8383613dd3565b60208301905092915050565b6000602082019050919050565b6000613e1282613da7565b613e1c8185613db2565b9350613e2783613dc3565b8060005b83811015613e58578151613e3f8882613de2565b9750613e4a83613dfa565b925050600181019050613e2b565b5085935050505092915050565b600060c082019050613e7a6000830189613aed565b8181036020830152613e8c8188613e07565b90508181036040830152613ea08187613967565b9050613eaf6060830186613aed565b613ebc6080830185613aed565b613ec960a08301846138e6565b979650505050505050565b600067ffffffffffffffff821115613eef57613eee613b74565b5b613ef882613956565b9050602081019050919050565b6000613f18613f1384613ed4565b613bd4565b905082815260208101848484011115613f3457613f33613b6f565b5b613f3f848285613c20565b509392505050565b600082601f830112613f5c57613f5b613b6a565b5b8135613f6c848260208601613f05565b91505092915050565b60008060008060808587031215613f8f57613f8e61384b565b5b6000613f9d87828801613a98565b9450506020613fae87828801613a98565b9350506040613fbf878288016139e3565b925050606085013567ffffffffffffffff811115613fe057613fdf613850565b5b613fec87828801613f47565b91505092959194509250565b600060208201905081810360008301526140128184613e07565b905092915050565b600080604083850312156140315761403061384b565b5b600061403f85828601613a98565b925050602061405085828601613a98565b9150509250929050565b6000819050919050565b61406d8161405a565b82525050565b600060039050919050565b600081905092915050565b6000819050919050565b61409c816139c2565b82525050565b60006140ae8383614093565b60208301905092915050565b6000602082019050919050565b6140d081614073565b6140da818461407e565b92506140e582614089565b8060005b838110156141165781516140fd87826140a2565b9650614108836140ba565b9250506001810190506140e9565b505050505050565b6000610100820190506141346000830189613a57565b6141416020830188614064565b61414e6040830187614064565b61415b60608301866140c7565b61416860c0830185613aed565b61417560e0830184613aed565b979650505050505050565b6000602082840312156141965761419561384b565b5b600082013567ffffffffffffffff8111156141b4576141b3613850565b5b6141c084828501613c71565b91505092915050565b7f4e487b7100000000000000000000000000000000000000000000000000000000600052602260045260246000fd5b6000600282049050600182168061421057607f821691505b602082108103614223576142226141c9565b5b50919050565b7f4552433732313a20617070726f76616c20746f2063757272656e74206f776e6560008201527f7200000000000000000000000000000000000000000000000000000000000000602082015250565b600061428560218361391b565b915061429082614229565b604082019050919050565b600060208201905081810360008301526142b481614278565b9050919050565b7f4552433732313a20617070726f76652063616c6c6572206973206e6f7420746f60008201527f6b656e206f776e6572206f7220617070726f76656420666f7220616c6c000000602082015250565b6000614317603d8361391b565b9150614322826142bb565b604082019050919050565b600060208201905081810360008301526143468161430a565b9050919050565b7f4e6f74206f776e65722c206e6f7420616c6c6f7765642e000000000000000000600082015250565b600061438360178361391b565b915061438e8261434d565b602082019050919050565b600060208201905081810360008301526143b281614376565b9050919050565b7f4552433732313a2063616c6c6572206973206e6f7420746f6b656e206f776e6560008201527f72206f7220617070726f76656400000000000000000000000000000000000000602082015250565b6000614415602d8361391b565b9150614420826143b9565b604082019050919050565b6000602082019050818103600083015261444481614408565b9050919050565b60008190508160005260206000209050919050565b60006020601f8301049050919050565b600082821b905092915050565b6000600883026144ad7fffffffffffffffffffffffffffffffffffffffffffffffffffffffffffffffff82614470565b6144b78683614470565b95508019841693508086168417925050509392505050565b6000819050919050565b60006144f46144ef6144ea846139c2565b6144cf565b6139c2565b9050919050565b6000819050919050565b61450e836144d9565b61452261451a826144fb565b84845461447d565b825550505050565b600090565b61453761452a565b614542818484614505565b505050565b5b818110156145665761455b60008261452f565b600181019050614548565b5050565b601f8211156145ab5761457c8161444b565b61458584614460565b81016020851015614594578190505b6145a86145a085614460565b830182614547565b50505b505050565b600082821c905092915050565b60006145ce600019846008026145b0565b1980831691505092915050565b60006145e783836145bd565b9150826002028217905092915050565b61460082613910565b67ffffffffffffffff81111561461957614618613b74565b5b61462382546141f8565b61462e82828561456a565b600060209050601f831160018114614661576000841561464f578287015190505b61465985826145db565b8655506146c1565b601f19841661466f8661444b565b60005b8281101561469757848901518255600182019150602085019450602081019050614672565b868310156146b457848901516146b0601f8916826145bd565b8355505b6001600288020188555050505b505050505050565b7f4552433732313a20696e76616c696420746f6b656e2049440000000000000000600082015250565b60006146ff60188361391b565b915061470a826146c9565b602082019050919050565b6000602082019050818103600083015261472e816146f2565b9050919050565b7f557365722068617320616c72656164792070757263686173656420612074696360008201527f6b65742e00000000000000000000000000000000000000000000000000000000602082015250565b600061479160248361391b565b915061479c82614735565b604082019050919050565b600060208201905081810360008301526147c081614784565b9050919050565b7f4e6f2073706f7473206c65667420696e20636f6d7065746974696f6e2e000000600082015250565b60006147fd601d8361391b565b9150614808826147c7565b602082019050919050565b6000602082019050818103600083015261482c816147f0565b9050919050565b7f496e636f7272656374207061796d656e7420616d6f756e742e00000000000000600082015250565b600061486960198361391b565b915061487482614833565b602082019050919050565b600060208201905081810360008301526148988161485c565b9050919050565b7f4e487b7100000000000000000000000000000000000000000000000000000000600052601160045260246000fd5b60006148d9826139c2565b91506148e4836139c2565b92508282039050818111156148fc576148fb61489f565b5b92915050565b600061490d826139c2565b9150614918836139c2565b92508282019050808211156149305761492f61489f565b5b92915050565b7f55736572206973206e6f7420612070617274206f66207468652063757272656e60008201527f7420636f6d7065746974696f6e20616e64207468657265666f72652063616e6e60208201527f6f74206d696e742e000000000000000000000000000000000000000000000000604082015250565b60006149b860488361391b565b91506149c382614936565b606082019050919050565b600060208201905081810360008301526149e7816149ab565b9050919050565b7f557365722068617320616c726561647920766f7465642e202043616e206f6e6c60008201527f7920766f7465206f6e63652070657220636f6d7065746974696f6e2e00000000602082015250565b6000614a4a603c8361391b565b9150614a55826149ee565b604082019050919050565b60006020820190508181036000830152614a7981614a3d565b9050919050565b7f4e6f7420616c6c6f77656420746f20766f746520666f7220796f757273656c6660008201527f20746f2077696e2e000000000000000000000000000000000000000000000000602082015250565b6000614adc60288361391b565b9150614ae782614a80565b604082019050919050565b60006020820190508181036000830152614b0b81614acf565b9050919050565b6000614b1d8261405a565b9150614b288361405a565b925082820190508281121560008312168382126000841215161715614b5057614b4f61489f565b5b92915050565b7f4552433732313a2061646472657373207a65726f206973206e6f74206120766160008201527f6c6964206f776e65720000000000000000000000000000000000000000000000602082015250565b6000614bb260298361391b565b9150614bbd82614b56565b604082019050919050565b60006020820190508181036000830152614be181614ba5565b9050919050565b600081905092915050565b6000614bfe82613910565b614c088185614be8565b9350614c1881856020860161392c565b80840191505092915050565b6000614c308285614bf3565b9150614c3c8284614bf3565b91508190509392505050565b7f54686520666972737420636f6d7065746974696f6e206861736e277420656e6460008201527f65642e0000000000000000000000000000000000000000000000000000000000602082015250565b6000614ca460238361391b565b9150614caf82614c48565b604082019050919050565b60006020820190508181036000830152614cd381614c97565b9050919050565b7f4e487b7100000000000000000000000000000000000000000000000000000000600052603260045260246000fd5b6000614d14826139c2565b91507fffffffffffffffffffffffffffffffffffffffffffffffffffffffffffffffff8203614d4657614d4561489f565b5b600182019050919050565b6000614d5c826139c2565b9150614d67836139c2565b9250828202614d75816139c2565b91508282048414831517614d8c57614d8b61489f565b5b5092915050565b7f4e487b7100000000000000000000000000000000000000000000000000000000600052601260045260246000fd5b6000614dcd826139c2565b9150614dd8836139c2565b925082614de857614de7614d93565b5b828204905092915050565b7f557365722068617320616c7265616479206d696e7465642e20204f6e6c79206f60008201527f6e65206d696e7420706572207573657220616c6c6f7765642070657220636f6d60208201527f7065746974696f6e2e0000000000000000000000000000000000000000000000604082015250565b6000614e7560498361391b565b9150614e8082614df3565b606082019050919050565b60006020820190508181036000830152614ea481614e68565b9050919050565b7f4552433732313a207472616e736665722066726f6d20696e636f72726563742060008201527f6f776e6572000000000000000000000000000000000000000000000000000000602082015250565b6000614f0760258361391b565b9150614f1282614eab565b604082019050919050565b60006020820190508181036000830152614f3681614efa565b9050919050565b7f4552433732313a207472616e7366657220746f20746865207a65726f2061646460008201527f7265737300000000000000000000000000000000000000000000000000000000602082015250565b6000614f9960248361391b565b9150614fa482614f3d565b604082019050919050565b60006020820190508181036000830152614fc881614f8c565b9050919050565b7f4552433732313a20617070726f766520746f2063616c6c657200000000000000600082015250565b600061500560198361391b565b915061501082614fcf565b602082019050919050565b6000602082019050818103600083015261503481614ff8565b9050919050565b7f4552433732313a207472616e7366657220746f206e6f6e20455243373231526560008201527f63656976657220696d706c656d656e7465720000000000000000000000000000602082015250565b600061509760328361391b565b91506150a28261503b565b604082019050919050565b600060208201905081810360008301526150c68161508a565b9050919050565b7f4552433732313a206d696e7420746f20746865207a65726f2061646472657373600082015250565b600061510360208361391b565b915061510e826150cd565b602082019050919050565b60006020820190508181036000830152615132816150f6565b9050919050565b7f4552433732313a20746f6b656e20616c7265616479206d696e74656400000000600082015250565b600061516f601c8361391b565b915061517a82615139565b602082019050919050565b6000602082019050818103600083015261519e81615162565b9050919050565b7f45524337323155524953746f726167653a2055524920736574206f66206e6f6e60008201527f6578697374656e7420746f6b656e000000000000000000000000000000000000602082015250565b6000615201602e8361391b565b915061520c826151a5565b604082019050919050565b60006020820190508181036000830152615230816151f4565b9050919050565b600081519050919050565b600082825260208201905092915050565b600061525e82615237565b6152688185615242565b935061527881856020860161392c565b61528181613956565b840191505092915050565b60006080820190506152a16000830187613a57565b6152ae6020830186613a57565b6152bb6040830185613aed565b81810360608301526152cd8184615253565b905095945050505050565b6000815190506152e781613881565b92915050565b6000602082840312156153035761530261384b565b5b6000615311848285016152d8565b9150509291505056fea2646970667358221220ae713bc8b4615abf5f97c54dced60dc64ec3c9b3865b403f6aab5ebda020c57c64736f6c63430008110033",
  "linkReferences": {},
  "deployedLinkReferences": {}
}