{
  "_format": "hh-sol-artifact-1",
  "contractName": "Competition",
  "sourceName": "contracts/Competition.sol",
  "abi": [
    {
      "inputs": [],
      "stateMutability": "nonpayable",
      "type": "constructor"
    },
    {
      "inputs": [],
      "name": "AlreadyMinted",
      "type": "error"
    },
    {
      "inputs": [],
      "name": "AlreadyPurchasedTicket",
      "type": "error"
    },
    {
      "inputs": [],
      "name": "AlreadyVoted",
      "type": "error"
    },
    {
      "inputs": [],
      "name": "CannotVoteForSelf",
      "type": "error"
    },
    {
      "inputs": [],
      "name": "FirstCompetitionNotEnded",
      "type": "error"
    },
    {
      "inputs": [],
      "name": "IncorrectPaymentAmount",
      "type": "error"
    },
    {
      "inputs": [],
      "name": "NoSpotsLeft",
      "type": "error"
    },
    {
      "inputs": [],
      "name": "NotAdminOrOwner",
      "type": "error"
    },
    {
      "inputs": [],
      "name": "NotInCompetition",
      "type": "error"
    },
    {
      "inputs": [],
      "name": "NotOwner",
      "type": "error"
    },
    {
      "anonymous": false,
      "inputs": [
        {
          "indexed": true,
          "internalType": "address",
          "name": "owner",
          "type": "address"
        },
        {
          "indexed": true,
          "internalType": "address",
          "name": "approved",
          "type": "address"
        },
        {
          "indexed": true,
          "internalType": "uint256",
          "name": "tokenId",
          "type": "uint256"
        }
      ],
      "name": "Approval",
      "type": "event"
    },
    {
      "anonymous": false,
      "inputs": [
        {
          "indexed": true,
          "internalType": "address",
          "name": "owner",
          "type": "address"
        },
        {
          "indexed": true,
          "internalType": "address",
          "name": "operator",
          "type": "address"
        },
        {
          "indexed": false,
          "internalType": "bool",
          "name": "approved",
          "type": "bool"
        }
      ],
      "name": "ApprovalForAll",
      "type": "event"
    },
    {
      "anonymous": false,
      "inputs": [
        {
          "indexed": false,
          "internalType": "address",
          "name": "",
          "type": "address"
        }
      ],
      "name": "Buyin",
      "type": "event"
    },
    {
      "anonymous": false,
      "inputs": [
        {
          "indexed": false,
          "internalType": "address[]",
          "name": "",
          "type": "address[]"
        },
        {
          "indexed": false,
          "internalType": "string",
          "name": "",
          "type": "string"
        }
      ],
      "name": "End",
      "type": "event"
    },
    {
      "anonymous": false,
      "inputs": [
        {
          "indexed": false,
          "internalType": "address",
          "name": "",
          "type": "address"
        },
        {
          "indexed": false,
          "internalType": "uint256",
          "name": "",
          "type": "uint256"
        },
        {
          "indexed": false,
          "internalType": "uint256",
          "name": "",
          "type": "uint256"
        }
      ],
      "name": "Payout",
      "type": "event"
    },
    {
      "anonymous": false,
      "inputs": [
        {
          "indexed": false,
          "internalType": "uint256",
          "name": "",
          "type": "uint256"
        },
        {
          "indexed": false,
          "internalType": "uint256",
          "name": "",
          "type": "uint256"
        },
        {
          "indexed": false,
          "internalType": "string",
          "name": "",
          "type": "string"
        },
        {
          "indexed": false,
          "internalType": "string",
          "name": "",
          "type": "string"
        }
      ],
      "name": "Start",
      "type": "event"
    },
    {
      "anonymous": false,
      "inputs": [
        {
          "indexed": true,
          "internalType": "address",
          "name": "from",
          "type": "address"
        },
        {
          "indexed": true,
          "internalType": "address",
          "name": "to",
          "type": "address"
        },
        {
          "indexed": true,
          "internalType": "uint256",
          "name": "tokenId",
          "type": "uint256"
        }
      ],
      "name": "Transfer",
      "type": "event"
    },
    {
      "inputs": [
        {
          "internalType": "address",
          "name": "admin",
          "type": "address"
        }
      ],
      "name": "addAdmin",
      "outputs": [],
      "stateMutability": "nonpayable",
      "type": "function"
    },
    {
      "inputs": [
        {
          "internalType": "address",
          "name": "to",
          "type": "address"
        },
        {
          "internalType": "uint256",
          "name": "tokenId",
          "type": "uint256"
        }
      ],
      "name": "approve",
      "outputs": [],
      "stateMutability": "nonpayable",
      "type": "function"
    },
    {
      "inputs": [
        {
          "internalType": "address",
          "name": "owner",
          "type": "address"
        }
      ],
      "name": "balanceOf",
      "outputs": [
        {
          "internalType": "uint256",
          "name": "",
          "type": "uint256"
        }
      ],
      "stateMutability": "view",
      "type": "function"
    },
    {
      "inputs": [],
      "name": "buyin",
      "outputs": [],
      "stateMutability": "payable",
      "type": "function"
    },
    {
      "inputs": [],
      "name": "cancelCompetition",
      "outputs": [],
      "stateMutability": "nonpayable",
      "type": "function"
    },
    {
      "inputs": [],
      "name": "checkIfAdmin",
      "outputs": [
        {
          "internalType": "bool",
          "name": "",
          "type": "bool"
        }
      ],
      "stateMutability": "view",
      "type": "function"
    },
    {
      "inputs": [],
      "name": "checkIfOwner",
      "outputs": [
        {
          "internalType": "bool",
          "name": "",
          "type": "bool"
        }
      ],
      "stateMutability": "view",
      "type": "function"
    },
    {
      "inputs": [
        {
          "internalType": "address",
          "name": "admin",
          "type": "address"
        }
      ],
      "name": "delAdmin",
      "outputs": [],
      "stateMutability": "nonpayable",
      "type": "function"
    },
    {
      "inputs": [],
      "name": "endCompetition",
      "outputs": [],
      "stateMutability": "nonpayable",
      "type": "function"
    },
    {
      "inputs": [],
      "name": "getAllIds",
      "outputs": [
        {
          "internalType": "uint256[]",
          "name": "",
          "type": "uint256[]"
        }
      ],
      "stateMutability": "view",
      "type": "function"
    },
    {
      "inputs": [],
      "name": "getAllUsers",
      "outputs": [
        {
          "internalType": "address[]",
          "name": "",
          "type": "address[]"
        }
      ],
      "stateMutability": "view",
      "type": "function"
    },
    {
      "inputs": [
        {
          "internalType": "uint256",
          "name": "tokenId",
          "type": "uint256"
        }
      ],
      "name": "getApproved",
      "outputs": [
        {
          "internalType": "address",
          "name": "",
          "type": "address"
        }
      ],
      "stateMutability": "view",
      "type": "function"
    },
    {
      "inputs": [],
      "name": "getBalanceOfContract",
      "outputs": [
        {
          "internalType": "uint256",
          "name": "",
          "type": "uint256"
        }
      ],
      "stateMutability": "view",
      "type": "function"
    },
    {
      "inputs": [],
      "name": "getCompetitionStats",
      "outputs": [
        {
          "internalType": "uint256",
          "name": "",
          "type": "uint256"
        },
        {
          "internalType": "address[]",
          "name": "",
          "type": "address[]"
        },
        {
          "internalType": "uint256[]",
          "name": "",
          "type": "uint256[]"
        },
        {
          "internalType": "string",
          "name": "",
          "type": "string"
        },
        {
          "internalType": "uint256",
          "name": "",
          "type": "uint256"
        },
        {
          "internalType": "uint256",
          "name": "",
          "type": "uint256"
        },
        {
          "internalType": "bool",
          "name": "",
          "type": "bool"
        },
        {
          "internalType": "bool",
          "name": "",
          "type": "bool"
        }
      ],
      "stateMutability": "view",
      "type": "function"
    },
    {
      "inputs": [
        {
          "internalType": "address",
          "name": "competitors",
          "type": "address"
        }
      ],
      "name": "getCompetitorStats",
      "outputs": [
        {
          "internalType": "address",
          "name": "",
          "type": "address"
        },
        {
          "internalType": "int256",
          "name": "",
          "type": "int256"
        },
        {
          "internalType": "uint256[3]",
          "name": "",
          "type": "uint256[3]"
        },
        {
          "internalType": "uint256",
          "name": "",
          "type": "uint256"
        },
        {
          "internalType": "uint256",
          "name": "",
          "type": "uint256"
        }
      ],
      "stateMutability": "view",
      "type": "function"
    },
    {
      "inputs": [],
      "name": "getWinners",
      "outputs": [
        {
          "internalType": "address[]",
          "name": "",
          "type": "address[]"
        }
      ],
      "stateMutability": "view",
      "type": "function"
    },
    {
      "inputs": [
        {
          "internalType": "address",
          "name": "owner",
          "type": "address"
        },
        {
          "internalType": "address",
          "name": "operator",
          "type": "address"
        }
      ],
      "name": "isApprovedForAll",
      "outputs": [
        {
          "internalType": "bool",
          "name": "",
          "type": "bool"
        }
      ],
      "stateMutability": "view",
      "type": "function"
    },
    {
      "inputs": [
        {
          "internalType": "string",
          "name": "tokenURI",
          "type": "string"
        }
      ],
      "name": "mintNFTLogic",
      "outputs": [
        {
          "internalType": "uint256",
          "name": "",
          "type": "uint256"
        }
      ],
      "stateMutability": "payable",
      "type": "function"
    },
    {
      "inputs": [],
      "name": "name",
      "outputs": [
        {
          "internalType": "string",
          "name": "",
          "type": "string"
        }
      ],
      "stateMutability": "view",
      "type": "function"
    },
    {
      "inputs": [
        {
          "internalType": "uint256",
          "name": "tokenId",
          "type": "uint256"
        }
      ],
      "name": "ownerOf",
      "outputs": [
        {
          "internalType": "address",
          "name": "",
          "type": "address"
        }
      ],
      "stateMutability": "view",
      "type": "function"
    },
    {
      "inputs": [
        {
          "internalType": "address",
          "name": "from",
          "type": "address"
        },
        {
          "internalType": "address",
          "name": "to",
          "type": "address"
        },
        {
          "internalType": "uint256",
          "name": "tokenId",
          "type": "uint256"
        }
      ],
      "name": "safeTransferFrom",
      "outputs": [],
      "stateMutability": "nonpayable",
      "type": "function"
    },
    {
      "inputs": [
        {
          "internalType": "address",
          "name": "from",
          "type": "address"
        },
        {
          "internalType": "address",
          "name": "to",
          "type": "address"
        },
        {
          "internalType": "uint256",
          "name": "tokenId",
          "type": "uint256"
        },
        {
          "internalType": "bytes",
          "name": "data",
          "type": "bytes"
        }
      ],
      "name": "safeTransferFrom",
      "outputs": [],
      "stateMutability": "nonpayable",
      "type": "function"
    },
    {
      "inputs": [
        {
          "internalType": "address",
          "name": "operator",
          "type": "address"
        },
        {
          "internalType": "bool",
          "name": "approved",
          "type": "bool"
        }
      ],
      "name": "setApprovalForAll",
      "outputs": [],
      "stateMutability": "nonpayable",
      "type": "function"
    },
    {
      "inputs": [
        {
          "internalType": "uint256",
          "name": "spots",
          "type": "uint256"
        },
        {
          "internalType": "uint256",
          "name": "cost",
          "type": "uint256"
        },
        {
          "internalType": "string",
          "name": "typeComp",
          "type": "string"
        }
      ],
      "name": "startCompetition",
      "outputs": [],
      "stateMutability": "nonpayable",
      "type": "function"
    },
    {
      "inputs": [
        {
          "internalType": "bytes4",
          "name": "interfaceId",
          "type": "bytes4"
        }
      ],
      "name": "supportsInterface",
      "outputs": [
        {
          "internalType": "bool",
          "name": "",
          "type": "bool"
        }
      ],
      "stateMutability": "view",
      "type": "function"
    },
    {
      "inputs": [],
      "name": "symbol",
      "outputs": [
        {
          "internalType": "string",
          "name": "",
          "type": "string"
        }
      ],
      "stateMutability": "view",
      "type": "function"
    },
    {
      "inputs": [
        {
          "internalType": "uint256",
          "name": "tokenId",
          "type": "uint256"
        }
      ],
      "name": "tokenURI",
      "outputs": [
        {
          "internalType": "string",
          "name": "",
          "type": "string"
        }
      ],
      "stateMutability": "view",
      "type": "function"
    },
    {
      "inputs": [
        {
          "internalType": "address",
          "name": "from",
          "type": "address"
        },
        {
          "internalType": "address",
          "name": "to",
          "type": "address"
        },
        {
          "internalType": "uint256",
          "name": "tokenId",
          "type": "uint256"
        }
      ],
      "name": "transferFrom",
      "outputs": [],
      "stateMutability": "nonpayable",
      "type": "function"
    },
    {
      "inputs": [
        {
          "internalType": "address",
          "name": "voteFor",
          "type": "address"
        }
      ],
      "name": "vote",
      "outputs": [],
      "stateMutability": "nonpayable",
      "type": "function"
    },
    {
      "inputs": [],
      "name": "withdrawMoney",
      "outputs": [],
      "stateMutability": "nonpayable",
      "type": "function"
    }
  ],
  "bytecode": "0x608060405266038d7ea4c680006013553480156200001c57600080fd5b506040518060400160405280600b81526020016a1dd85d9c1bdbdb0813919560aa1b815250604051806040016040528060048152602001630574156560e41b81525081600090816200006f91906200015a565b5060016200007e82826200015a565b5050600b546000908152600a60205260409020600601805460ff1916905550601080546001600160a01b0319163317905562000226565b634e487b7160e01b600052604160045260246000fd5b600181811c90821680620000e057607f821691505b6020821081036200010157634e487b7160e01b600052602260045260246000fd5b50919050565b601f8211156200015557600081815260208120601f850160051c81016020861015620001305750805b601f850160051c820191505b8181101562000151578281556001016200013c565b5050505b505050565b81516001600160401b03811115620001765762000176620000b5565b6200018e81620001878454620000cb565b8462000107565b602080601f831160018114620001c65760008415620001ad5750858301515b600019600386901b1c1916600185901b17855562000151565b600085815260208120601f198616915b82811015620001f757888601518255948401946001909101908401620001d6565b5085821015620002165787850151600019600388901b60f8161c191681555b5050505050600190811b01905550565b6132d880620002366000396000f3fe6080604052600436106101cd5760003560e01c806370a08231116100f7578063b88d4fde11610095578063e985e9c511610064578063e985e9c5146104f7578063ed00e65314610517578063f50925211461052c578063f80eca221461055d57600080fd5b8063b88d4fde14610480578063c87b56dd146104a0578063df15c37e146104c0578063e2842d79146104e257600080fd5b8063a22cb465116100d1578063a22cb46514610400578063a789ab3a14610420578063aaa44e5c14610449578063ac4460021461046b57600080fd5b806370a08231146103b6578063898de773146103d657806395d89b41146103eb57600080fd5b8063295adbb11161016f5780636352211e1161013e5780636352211e1461034e578063697660791461036e5780636dd7d8ea14610376578063704802751461039657600080fd5b8063295adbb1146102d957806342842e0e146102ee57806355f1d1721461030e57806362d918551461032e57600080fd5b8063095ea7b3116101ab578063095ea7b314610261578063173506291461028357806322968885146102a457806323b872dd146102b957600080fd5b806301ffc9a7146101d257806306fdde0314610207578063081812fc14610229575b600080fd5b3480156101de57600080fd5b506101f26101ed3660046128fb565b610572565b60405190151581526020015b60405180910390f35b34801561021357600080fd5b5061021c6105c4565b6040516101fe9190612968565b34801561023557600080fd5b5061024961024436600461297b565b610656565b6040516001600160a01b0390911681526020016101fe565b34801561026d57600080fd5b5061028161027c3660046129b0565b61067d565b005b610296610291366004612a86565b610797565b6040519081526020016101fe565b3480156102b057600080fd5b506102966109a5565b3480156102c557600080fd5b506102816102d4366004612abb565b6109d8565b3480156102e557600080fd5b50610281610a09565b3480156102fa57600080fd5b50610281610309366004612abb565b610ac4565b34801561031a57600080fd5b50610281610329366004612af7565b610adf565b34801561033a57600080fd5b50610281610349366004612b47565b610c84565b34801561035a57600080fd5b5061024961036936600461297b565b610cc0565b610281610d20565b34801561038257600080fd5b50610281610391366004612b47565b610fd5565b3480156103a257600080fd5b506102816103b1366004612b47565b611100565b3480156103c257600080fd5b506102966103d1366004612b47565b611151565b3480156103e257600080fd5b506101f26111d7565b3480156103f757600080fd5b5061021c6111fa565b34801561040c57600080fd5b5061028161041b366004612b62565b611209565b34801561042c57600080fd5b50610435611214565b6040516101fe989796959493929190612c12565b34801561045557600080fd5b5061045e6113b6565b6040516101fe9190612c7e565b34801561047757600080fd5b5061028161140d565b34801561048c57600080fd5b5061028161049b366004612c91565b611454565b3480156104ac57600080fd5b5061021c6104bb36600461297b565b61148c565b3480156104cc57600080fd5b506104d5611594565b6040516101fe9190612d0d565b3480156104ee57600080fd5b506104d561163a565b34801561050357600080fd5b506101f2610512366004612d20565b61169a565b34801561052357600080fd5b506101f26116c8565b34801561053857600080fd5b5061054c610547366004612b47565b6116f1565b6040516101fe959493929190612d53565b34801561056957600080fd5b50610281611776565b60006001600160e01b031982166380ac58cd60e01b14806105a357506001600160e01b03198216635b5e139f60e01b145b806105be57506301ffc9a760e01b6001600160e01b03198316145b92915050565b6060600080546105d390612da8565b80601f01602080910402602001604051908101604052809291908181526020018280546105ff90612da8565b801561064c5780601f106106215761010080835404028352916020019161064c565b820191906000526020600020905b81548152906001019060200180831161062f57829003601f168201915b5050505050905090565b600061066182611c5e565b506000908152600460205260409020546001600160a01b031690565b600061068882610cc0565b9050806001600160a01b0316836001600160a01b0316036106fa5760405162461bcd60e51b815260206004820152602160248201527f4552433732313a20617070726f76616c20746f2063757272656e74206f776e656044820152603960f91b60648201526084015b60405180910390fd5b336001600160a01b03821614806107165750610716813361169a565b6107885760405162461bcd60e51b815260206004820152603d60248201527f4552433732313a20617070726f76652063616c6c6572206973206e6f7420746f60448201527f6b656e206f776e6572206f7220617070726f76656420666f7220616c6c00000060648201526084016106f1565b6107928383611cbd565b505050565b6000806107a2611d2b565b80156107cb5750336000908152600860205260409020546001600160a01b90910463ffffffff16105b15610858576107d983611da8565b336000908152600860205260409020805491925060019160149061080b908490600160a01b900463ffffffff16612df2565b825463ffffffff9182166101009390930a928302919092021990911617905550600b546000908152600a602090815260408220600201805460018101825590835291200181905592915050565b601354341461087a57604051636992e1ff60e01b815260040160405180910390fd5b336000818152600860205260409020546001600160a01b03161461098f576108a061278d565b6040805161010080820183523380835260006020808501828152858701838152606087018481526080880185815260a0890186815260c08a018c815260e08b018890529787526008909552989094208751815493516001600160a01b039091166001600160c01b031990941693909317600160a01b63ffffffff94851602178155905160018201559251600284018054985160ff90921664ffffffffff199099169890981791169094029390931790945590516003808501919091559051919291610970916004840191906127ab565b5060e0820151816007015590505061098784611da8565b949350505050565b61099883611da8565b9392505050565b50919050565b6010546000906001600160a01b031633036109bf57504790565b6040516330cd747160e01b815260040160405180910390fd5b6109e23382611e3e565b6109fe5760405162461bcd60e51b81526004016106f190612e16565b610792838383611e9c565b336000818152600960205260409020546001600160a01b03161480610a3857506010546001600160a01b031633145b15610aab57600b546000908152600a6020526040812090610a5982826127e9565b610a676001830160006127e9565b610a756002830160006127e9565b600060038301819055600483018190556005830181905560068301805461ffff19169055610aa7906007840190612807565b5050565b604051637bb62a2160e01b815260040160405180910390fd5b61079283838360405180602001604052806000815250611454565b336000818152600960205260409020546001600160a01b03161480610b0e57506010546001600160a01b031633145b15610aab5760408051610120810182526060808252602080830182905282840182905282820186905260808301879052600b5460a08401819052600160c0850152600060e085018190526101008501879052908152600a825293909320825180519294859493610b819284920190612841565b506020828101518051610b9a9260018501920190612841565b5060408201518051610bb6916002840191602090910190612896565b50606082015160038201556080820151600482015560a0820151600582015560c082015160068201805460e085015161ffff1990911692151561ff0019169290921761010092151583021790558201516007820190610c159082612eb1565b509050507fca79b48d994cc00aa13fe51439b88e91ae314df9d78f478c49be788f7d0a65d7858585610c48600b5461200d565b604051602001610c589190612f71565b60408051601f1981840301815290829052610c7594939291612fbc565b60405180910390a15050505050565b6010546001600160a01b031633036109bf576001600160a01b0316600090815260096020526040902080546001600160a01b0319169055565b50565b6000818152600260205260408120546001600160a01b0316806105be5760405162461bcd60e51b8152602060048201526018602482015277115490cdcc8c4e881a5b9d985b1a59081d1bdad95b88125160421b60448201526064016106f1565b610d28611d2b565b15610d46576040516323a47a1b60e11b815260040160405180910390fd5b600b546000908152600a60205260408120600401549003610d7a5760405163b2363d2560e01b815260040160405180910390fd5b600b546000908152600a60205260409020600301543414610dae57604051636992e1ff60e01b815260040160405180910390fd5b336000818152600860205260409020546001600160a01b031614610efb57610dd461278d565b60408051610100808201835233808352600060208085018281528587018381526001606088018181526080890186815260a08a0187815260c08b018d815260e08c018990529888526008909652999095208851815494516001600160a01b039091166001600160c01b031990951694909417600160a01b63ffffffff958616021781559151908201559251600284018054985160ff90921664ffffffffff199099169890981791169094029390931790945590516003808501919091559051919291610ea5916004840191906127ab565b5060e0919091015160079091015550601180546001810182556000919091527f31ecc21a745e3968a04e9570e4425bc18fa8019c68028196b546d1669c200c680180546001600160a01b03191633179055610f2c565b33600090815260086020526040902060028101805464ffffffffff19166001179055805463ffffffff60a01b191690555b600b80546000908152600a60209081526040808320805460018101825590845291832090910180546001600160a01b0319163317905591548152908120600401805491610f7883612ff8565b9091555050336000908152600860205260408120600701805491610f9b8361300f565b90915550506040513381527f0e060bb02c4922cc146182d64ff24031896b73e532122cebaec992d3cf33ab3c9060200160405180910390a1565b610fdd611d2b565b6110125760405162461bcd60e51b81526004016106f190602080825260049082015263554e494360e01b604082015260600190565b3360009081526008602052604090206002015460ff166001036110e7576001600160a01b038116330361105857604051631412222d60e31b815260040160405180910390fd5b336000908152600860205260408120600201805460ff169161107983613028565b825460ff91821661010093840a90810292021916179091556001600160a01b038316600090815260086020526040902060020180549190910460030b915060016110c283613045565b91906101000a81548163ffffffff021916908360030b63ffffffff1602179055505050565b604051637c9a1cf960e01b815260040160405180910390fd5b6010546001600160a01b031633036109bf5760408051602080820183526001600160a01b039384168083526000908152600990915291909120905181546001600160a01b0319169216919091179055565b60006001600160a01b0382166111bb5760405162461bcd60e51b815260206004820152602960248201527f4552433732313a2061646472657373207a65726f206973206e6f7420612076616044820152683634b21037bbb732b960b91b60648201526084016106f1565b506001600160a01b031660009081526003602052604090205490565b601054600090336001600160a01b03909116036111f45750600190565b50600090565b6060600180546105d390612da8565b610aa73383836120a0565b600b546000908152600a6020908152604080832060058101546004820154600383015460068401548454865181890281018901909752808752606097889788978b9788978897889792969395600287019560078801959394929360ff80851694610100900416928991908301828280156112b757602002820191906000526020600020905b81546001600160a01b03168152600190910190602001808311611299575b505050505096508580548060200260200160405190810160405280929190818152602001828054801561130957602002820191906000526020600020905b8154815260200190600101908083116112f5575b5050505050955084805461131c90612da8565b80601f016020809104026020016040519081016040528092919081815260200182805461134890612da8565b80156113955780601f1061136a57610100808354040283529160200191611395565b820191906000526020600020905b81548152906001019060200180831161137857829003601f168201915b50505050509450975097509750975097509750975097509091929394959697565b6060601280548060200260200160405190810160405280929190818152602001828054801561064c57602002820191906000526020600020905b8154815260200190600101908083116113f0575050505050905090565b6010546001600160a01b031633036109bf5733806108fc61142c6109a5565b6040518115909202916000818181858888f19350505050158015610aa7573d6000803e3d6000fd5b61145e3383611e3e565b61147a5760405162461bcd60e51b81526004016106f190612e16565b6114868484848461216e565b50505050565b606061149782611c5e565b600082815260066020526040812080546114b090612da8565b80601f01602080910402602001604051908101604052809291908181526020018280546114dc90612da8565b80156115295780601f106114fe57610100808354040283529160200191611529565b820191906000526020600020905b81548152906001019060200180831161150c57829003601f168201915b50505050509050600061154760408051602081019091526000815290565b90508051600003611559575092915050565b81511561158b578082604051602001611573929190613067565b60405160208183030381529060405292505050919050565b610987846121a1565b60606001600b541061162157600a60006001600b546115b39190613096565b815260200190815260200160002060010180548060200260200160405190810160405280929190818152602001828054801561064c57602002820191906000526020600020905b81546001600160a01b031681526001909101906020018083116115fa575050505050905090565b60405163fb81554160e01b815260040160405180910390fd5b6060601180548060200260200160405190810160405280929190818152602001828054801561064c576020028201919060005260206000209081546001600160a01b031681526001909101906020018083116115fa575050505050905090565b6001600160a01b03918216600090815260056020908152604080832093909416825291909152205460ff1690565b3360008181526009602052604081205490916001600160a01b0390911690036111f45750600190565b6000806116fc61278d565b6001600160a01b0384811660009081526008602052604080822080546003808301546007840154600185015486516060810197889052979889989516969295600401949193909285919082845b81548152602001906001019080831161174957505050505092509450945094509450945091939590929450565b336000818152600960205260409020546001600160a01b031614806117a557506010546001600160a01b031633145b15610aab576002600f54116119e55760005b600b546000908152600a602052604090205481101561194957600d54600b546000908152600a6020526040812080546008929190859081106117fb576117fb6130a9565b60009182526020808320909101546001600160a01b03168352820192909252604001902060020154610100900460030b13801561186e5750600b546000908152600a60205260408120805483908110611856576118566130a9565b6000918252602090912001546001600160a01b031614155b1561193757600b546000908152600a60205260408120805460089291908490811061189b5761189b6130a9565b60009182526020808320909101546001600160a01b039081168452838201949094526040928301822054600c80546001600160a01b0319169190951617909355600b548152600a909252812080546008929190849081106118fe576118fe6130a9565b60009182526020808320909101546001600160a01b03168352820192909252604001902060020154610100900460030b600d55600e8190555b806119418161300f565b9150506117b7565b50600b80546000908152600a60209081526040808320600c5460019182018054928301815585529284200180546001600160a01b0319166001600160a01b03909316929092179091559154815220600e54815481106119aa576119aa6130a9565b6000918252602082200180546001600160a01b0319169055600019600d55600f8054916119d68361300f565b91905055506119e3611776565b565b600b546000908152600a602052604081208054600390910154600291611a0a916130bf565b611a1491906130d6565b905060005b600b546000908152600a6020526040902060010154811015611bd257611a406002836130d6565b91506000600a6000600b5481526020019081526020016000206001018281548110611a6d57611a6d6130a9565b60009182526020822001546040516001600160a01b039091169250829185156108fc02918691818181858888f19350505050158015611ab0573d6000803e3d6000fd5b5060086000600a6000600b5481526020019081526020016000206001018481548110611ade57611ade6130a9565b60009182526020808320909101546001600160a01b0316835282019290925260400190206004018260038110611b1657611b166130a9565b018054906000611b258361300f565b91905055507f634235fcf5af0adbca1a405ec65f6f6c08f55e1f379c2c45cd10f23cb29e0e3160086000600a6000600b5481526020019081526020016000206001018581548110611b7857611b786130a9565b6000918252602080832091909101546001600160a01b039081168452838201949094526040928301909120548251931683528201869052810184905260600160405180910390a15080611bca8161300f565b915050611a19565b50611bdb612214565b600b8054906000611beb8361300f565b90915550506000600f819055600b80548252600a6020526040808320600601805461ff001916610100179055905482529081902090517f7cb9e2fcf8f841f4857b076f6552d8f4c0610a8d555f9a0a92b472647f16baf191611c5391600191909101906130f8565b60405180910390a150565b6000818152600260205260409020546001600160a01b0316610cbd5760405162461bcd60e51b8152602060048201526018602482015277115490cdcc8c4e881a5b9d985b1a59081d1bdad95b88125160421b60448201526064016106f1565b600081815260046020526040902080546001600160a01b0319166001600160a01b0384169081179091558190611cf282610cc0565b6001600160a01b03167f8c5be1e5ebec7d5bd14f71427d1e84f3dd0314c0f7b2291e5b200ac8c7c3b92560405160405180910390a45050565b6000805b600b546000908152600a6020526040902054811015611da057600b546000908152600a60205260409020805482908110611d6b57611d6b6130a9565b6000918252602090912001546001600160a01b03163303611d8e57600191505090565b80611d988161300f565b915050611d2f565b506000905090565b6000611db8600780546001019055565b6000611dc360075490565b9050611dcf3382612300565b611dd98184612499565b3360009081526008602052604081206001908101805491929091611dfe908490613176565b9091555050601280546001810182556000919091527fbb8a6a4669ba250d26cd7a459eca9d215f8307e33aebe50379bc5a3617ec34440181905592915050565b600080611e4a83610cc0565b9050806001600160a01b0316846001600160a01b03161480611e715750611e71818561169a565b806109875750836001600160a01b0316611e8a84610656565b6001600160a01b031614949350505050565b826001600160a01b0316611eaf82610cc0565b6001600160a01b031614611ed55760405162461bcd60e51b81526004016106f190613189565b6001600160a01b038216611f375760405162461bcd60e51b8152602060048201526024808201527f4552433732313a207472616e7366657220746f20746865207a65726f206164646044820152637265737360e01b60648201526084016106f1565b611f44838383600161252c565b826001600160a01b0316611f5782610cc0565b6001600160a01b031614611f7d5760405162461bcd60e51b81526004016106f190613189565b600081815260046020908152604080832080546001600160a01b03199081169091556001600160a01b0387811680865260038552838620805460001901905590871680865283862080546001019055868652600290945282852080549092168417909155905184937fddf252ad1be2c89b69c2b068fc378daa952ba7f163c4a11628f55a4df523b3ef91a4505050565b6060600061201a836125b4565b600101905060008167ffffffffffffffff81111561203a5761203a6129da565b6040519080825280601f01601f191660200182016040528015612064576020820181803683370190505b5090508181016020015b600019016f181899199a1a9b1b9c1cb0b131b232b360811b600a86061a8153600a850494508461206e57509392505050565b816001600160a01b0316836001600160a01b0316036121015760405162461bcd60e51b815260206004820152601960248201527f4552433732313a20617070726f766520746f2063616c6c65720000000000000060448201526064016106f1565b6001600160a01b03838116600081815260056020908152604080832094871680845294825291829020805460ff191686151590811790915591519182527f17307eab39ab6107e8899845ad3d59bd9653f200f220920489ca2b5937696c31910160405180910390a3505050565b612179848484611e9c565b6121858484848461268c565b6114865760405162461bcd60e51b81526004016106f1906131ce565b60606121ac82611c5e565b60006121c360408051602081019091526000815290565b905060008151116121e35760405180602001604052806000815250610998565b806121ed8461200d565b6040516020016121fe929190613067565b6040516020818303038152906040529392505050565b60005b600b546000908152600a6020526040902054811015610cbd57600b546000908152600a602052604081208054600892919084908110612258576122586130a9565b60009182526020808320909101546001600160a01b03168352828101939093526040918201812060020154600b548252600a909352908120805461010090930460030b926008929190859081106122b1576122b16130a9565b60009182526020808320909101546001600160a01b03168352820192909252604001812060030180549091906122e8908490613220565b909155508190506122f88161300f565b915050612217565b6001600160a01b0382166123565760405162461bcd60e51b815260206004820181905260248201527f4552433732313a206d696e7420746f20746865207a65726f206164647265737360448201526064016106f1565b6000818152600260205260409020546001600160a01b0316156123bb5760405162461bcd60e51b815260206004820152601c60248201527f4552433732313a20746f6b656e20616c7265616479206d696e7465640000000060448201526064016106f1565b6123c960008383600161252c565b6000818152600260205260409020546001600160a01b03161561242e5760405162461bcd60e51b815260206004820152601c60248201527f4552433732313a20746f6b656e20616c7265616479206d696e7465640000000060448201526064016106f1565b6001600160a01b038216600081815260036020908152604080832080546001019055848352600290915280822080546001600160a01b0319168417905551839291907fddf252ad1be2c89b69c2b068fc378daa952ba7f163c4a11628f55a4df523b3ef908290a45050565b6000828152600260205260409020546001600160a01b03166125145760405162461bcd60e51b815260206004820152602e60248201527f45524337323155524953746f726167653a2055524920736574206f66206e6f6e60448201526d32bc34b9ba32b73a103a37b5b2b760911b60648201526084016106f1565b60008281526006602052604090206107928282612eb1565b6001811115611486576001600160a01b03841615612572576001600160a01b0384166000908152600360205260408120805483929061256c908490613096565b90915550505b6001600160a01b03831615611486576001600160a01b038316600090815260036020526040812080548392906125a9908490613176565b909155505050505050565b60008072184f03e93ff9f4daa797ed6e38ed64bf6a1f0160401b83106125f35772184f03e93ff9f4daa797ed6e38ed64bf6a1f0160401b830492506040015b6d04ee2d6d415b85acef8100000000831061261f576d04ee2d6d415b85acef8100000000830492506020015b662386f26fc10000831061263d57662386f26fc10000830492506010015b6305f5e1008310612655576305f5e100830492506008015b612710831061266957612710830492506004015b6064831061267b576064830492506002015b600a83106105be5760010192915050565b60006001600160a01b0384163b1561278257604051630a85bd0160e11b81526001600160a01b0385169063150b7a02906126d0903390899088908890600401613248565b6020604051808303816000875af192505050801561270b575060408051601f3d908101601f1916820190925261270891810190613285565b60015b612768573d808015612739576040519150601f19603f3d011682016040523d82523d6000602084013e61273e565b606091505b5080516000036127605760405162461bcd60e51b81526004016106f1906131ce565b805181602001fd5b6001600160e01b031916630a85bd0160e11b149050610987565b506001949350505050565b60405180606001604052806003906020820280368337509192915050565b82600381019282156127d9579160200282015b828111156127d95782518255916020019190600101906127be565b506127e59291506128d0565b5090565b5080546000825590600052602060002090810190610cbd91906128d0565b50805461281390612da8565b6000825580601f10612823575050565b601f016020900490600052602060002090810190610cbd91906128d0565b8280548282559060005260206000209081019282156127d9579160200282015b828111156127d957825182546001600160a01b0319166001600160a01b03909116178255602090920191600190910190612861565b8280548282559060005260206000209081019282156127d957916020028201828111156127d95782518255916020019190600101906127be565b5b808211156127e557600081556001016128d1565b6001600160e01b031981168114610cbd57600080fd5b60006020828403121561290d57600080fd5b8135610998816128e5565b60005b8381101561293357818101518382015260200161291b565b50506000910152565b60008151808452612954816020860160208601612918565b601f01601f19169290920160200192915050565b602081526000610998602083018461293c565b60006020828403121561298d57600080fd5b5035919050565b80356001600160a01b03811681146129ab57600080fd5b919050565b600080604083850312156129c357600080fd5b6129cc83612994565b946020939093013593505050565b634e487b7160e01b600052604160045260246000fd5b600067ffffffffffffffff80841115612a0b57612a0b6129da565b604051601f8501601f19908116603f01168101908282118183101715612a3357612a336129da565b81604052809350858152868686011115612a4c57600080fd5b858560208301376000602087830101525050509392505050565b600082601f830112612a7757600080fd5b610998838335602085016129f0565b600060208284031215612a9857600080fd5b813567ffffffffffffffff811115612aaf57600080fd5b61098784828501612a66565b600080600060608486031215612ad057600080fd5b612ad984612994565b9250612ae760208501612994565b9150604084013590509250925092565b600080600060608486031215612b0c57600080fd5b8335925060208401359150604084013567ffffffffffffffff811115612b3157600080fd5b612b3d86828701612a66565b9150509250925092565b600060208284031215612b5957600080fd5b61099882612994565b60008060408385031215612b7557600080fd5b612b7e83612994565b915060208301358015158114612b9357600080fd5b809150509250929050565b600081518084526020808501945080840160005b83811015612bd75781516001600160a01b031687529582019590820190600101612bb2565b509495945050505050565b600081518084526020808501945080840160005b83811015612bd757815187529582019590820190600101612bf6565b60006101008a8352806020840152612c2c8184018b612b9e565b90508281036040840152612c40818a612be2565b90508281036060840152612c54818961293c565b6080840197909752505060a081019390935290151560c0830152151560e090910152949350505050565b6020815260006109986020830184612be2565b60008060008060808587031215612ca757600080fd5b612cb085612994565b9350612cbe60208601612994565b925060408501359150606085013567ffffffffffffffff811115612ce157600080fd5b8501601f81018713612cf257600080fd5b612d01878235602084016129f0565b91505092959194509250565b6020815260006109986020830184612b9e565b60008060408385031215612d3357600080fd5b612d3c83612994565b9150612d4a60208401612994565b90509250929050565b6001600160a01b0386168152602080820186905260e0820190604083018660005b6003811015612d9157815183529183019190830190600101612d74565b5050505060a082019390935260c001529392505050565b600181811c90821680612dbc57607f821691505b60208210810361099f57634e487b7160e01b600052602260045260246000fd5b634e487b7160e01b600052601160045260246000fd5b63ffffffff818116838216019080821115612e0f57612e0f612ddc565b5092915050565b6020808252602d908201527f4552433732313a2063616c6c6572206973206e6f7420746f6b656e206f776e6560408201526c1c881bdc88185c1c1c9bdd9959609a1b606082015260800190565b601f82111561079257600081815260208120601f850160051c81016020861015612e8a5750805b601f850160051c820191505b81811015612ea957828155600101612e96565b505050505050565b815167ffffffffffffffff811115612ecb57612ecb6129da565b612edf81612ed98454612da8565b84612e63565b602080601f831160018114612f145760008415612efc5750858301515b600019600386901b1c1916600185901b178555612ea9565b600085815260208120601f198616915b82811015612f4357888601518255948401946001909101908401612f24565b5085821015612f615787850151600019600388901b60f8161c191681555b5050505050600190811b01905550565b6b021b7b6b832ba34ba34b7b7160a51b815260008251612f9881600c850160208701612918565b6c103430b99039ba30b93a32b21760991b600c939091019283015250601901919050565b848152836020820152608060408201526000612fdb608083018561293c565b8281036060840152612fed818561293c565b979650505050505050565b60008161300757613007612ddc565b506000190190565b60006001820161302157613021612ddc565b5060010190565b600060ff82168061303b5761303b612ddc565b6000190192915050565b60008160030b637fffffff810361305e5761305e612ddc565b60010192915050565b60008351613079818460208801612918565b83519083019061308d818360208801612918565b01949350505050565b818103818111156105be576105be612ddc565b634e487b7160e01b600052603260045260246000fd5b80820281158282048414176105be576105be612ddc565b6000826130f357634e487b7160e01b600052601260045260246000fd5b500490565b6000604082016040835280845480835260608501915085600052602092508260002060005b828110156131425781546001600160a01b03168452928401926001918201910161311d565b50505083810393820193909352601283527121b7b6b832ba34ba34b7b71022b73232b21760711b9083015250604001919050565b808201808211156105be576105be612ddc565b60208082526025908201527f4552433732313a207472616e736665722066726f6d20696e636f72726563742060408201526437bbb732b960d91b606082015260800190565b60208082526032908201527f4552433732313a207472616e7366657220746f206e6f6e20455243373231526560408201527131b2b4bb32b91034b6b83632b6b2b73a32b960711b606082015260800190565b808201828112600083128015821682158216171561324057613240612ddc565b505092915050565b6001600160a01b038581168252841660208201526040810183905260806060820181905260009061327b9083018461293c565b9695505050505050565b60006020828403121561329757600080fd5b8151610998816128e556fea26469706673582212206efba8b4d27948b81f95471cf06b768280c8bd9abaf0390d4a89b033421e18bf64736f6c63430008110033",
  "linkReferences": {},
  "deployedLinkReferences": {}
}